{
  "contractName": "BridgeOutImplementationV1",
  "abi": [
    {
      "anonymous": false,
      "inputs": [
        {
          "indexed": false,
          "internalType": "bytes32",
          "name": "swapId",
          "type": "bytes32"
        },
        {
          "indexed": false,
          "internalType": "address",
          "name": "transmiter",
          "type": "address"
        },
        {
          "indexed": false,
          "internalType": "uint256",
          "name": "receiptIndex",
          "type": "uint256"
        },
        {
          "indexed": false,
          "internalType": "bytes32",
          "name": "receiptHash",
          "type": "bytes32"
        }
      ],
      "name": "NewTransmission",
      "type": "event"
    },
    {
      "anonymous": false,
      "inputs": [
        {
          "indexed": true,
          "internalType": "address",
          "name": "previousOwner",
          "type": "address"
        },
        {
          "indexed": true,
          "internalType": "address",
          "name": "newOwner",
          "type": "address"
        }
      ],
      "name": "OwnershipTransferred",
      "type": "event"
    },
    {
      "anonymous": false,
      "inputs": [
        {
          "indexed": false,
          "internalType": "bytes32",
          "name": "swapId",
          "type": "bytes32"
        },
        {
          "indexed": false,
          "internalType": "address",
          "name": "token",
          "type": "address"
        },
        {
          "indexed": false,
          "internalType": "string",
          "name": "chainId",
          "type": "string"
        }
      ],
      "name": "SwapPairAdded",
      "type": "event"
    },
    {
      "anonymous": false,
      "inputs": [
        {
          "indexed": false,
          "internalType": "address",
          "name": "receiveAddress",
          "type": "address"
        },
        {
          "indexed": false,
          "internalType": "address",
          "name": "token",
          "type": "address"
        },
        {
          "indexed": false,
          "internalType": "uint256",
          "name": "amount",
          "type": "uint256"
        }
      ],
      "name": "TokenSwapEvent",
      "type": "event"
    },
    {
      "inputs": [],
      "name": "MaxQueryRange",
      "outputs": [
        {
          "internalType": "uint256",
          "name": "",
          "type": "uint256"
        }
      ],
      "stateMutability": "view",
      "type": "function"
    },
    {
      "inputs": [],
      "name": "MaxTokenKeyCount",
      "outputs": [
        {
          "internalType": "uint256",
          "name": "",
          "type": "uint256"
        }
      ],
      "stateMutability": "view",
      "type": "function"
    },
    {
      "inputs": [
        {
          "internalType": "string",
          "name": "receiptId",
          "type": "string"
        }
      ],
      "name": "approve",
      "outputs": [],
      "stateMutability": "nonpayable",
      "type": "function"
    },
    {
      "inputs": [],
      "name": "approveController",
      "outputs": [
        {
          "internalType": "address",
          "name": "",
          "type": "address"
        }
      ],
      "stateMutability": "view",
      "type": "function"
    },
    {
      "inputs": [],
      "name": "bridgeIn",
      "outputs": [
        {
          "internalType": "address",
          "name": "",
          "type": "address"
        }
      ],
      "stateMutability": "view",
      "type": "function"
    },
    {
      "inputs": [
        {
          "internalType": "address",
          "name": "_approveController",
          "type": "address"
        }
      ],
      "name": "changeApproveController",
      "outputs": [],
      "stateMutability": "nonpayable",
      "type": "function"
    },
    {
      "inputs": [
        {
          "internalType": "address",
          "name": "_multiSigWallet",
          "type": "address"
        }
      ],
      "name": "changeMultiSignWallet",
      "outputs": [],
      "stateMutability": "nonpayable",
      "type": "function"
    },
    {
      "inputs": [
        {
          "components": [
            {
              "internalType": "address",
              "name": "token",
              "type": "address"
            },
            {
              "internalType": "string",
              "name": "fromChainId",
              "type": "string"
            },
            {
              "internalType": "uint64",
              "name": "originShare",
              "type": "uint64"
            },
            {
              "internalType": "uint64",
              "name": "targetShare",
              "type": "uint64"
            }
          ],
          "internalType": "struct BridgeOutImplementationV1.SwapTargetToken",
          "name": "targetToken",
          "type": "tuple"
        },
        {
          "internalType": "bytes32",
          "name": "regimentId",
          "type": "bytes32"
        }
      ],
      "name": "createSwap",
      "outputs": [],
      "stateMutability": "nonpayable",
      "type": "function"
    },
    {
      "inputs": [],
      "name": "defaultMerkleTreeDepth",
      "outputs": [
        {
          "internalType": "uint256",
          "name": "",
          "type": "uint256"
        }
      ],
      "stateMutability": "view",
      "type": "function"
    },
    {
      "inputs": [
        {
          "internalType": "bytes32",
          "name": "tokenKey",
          "type": "bytes32"
        },
        {
          "internalType": "address",
          "name": "token",
          "type": "address"
        },
        {
          "internalType": "uint256",
          "name": "amount",
          "type": "uint256"
        }
      ],
      "name": "deposit",
      "outputs": [],
      "stateMutability": "nonpayable",
      "type": "function"
    },
    {
      "inputs": [
        {
          "internalType": "bytes32",
          "name": "swapId",
          "type": "bytes32"
        }
      ],
      "name": "getDepositAmount",
      "outputs": [
        {
          "internalType": "uint256",
          "name": "",
          "type": "uint256"
        }
      ],
      "stateMutability": "view",
      "type": "function"
    },
    {
      "inputs": [
        {
          "internalType": "address[]",
          "name": "tokens",
          "type": "address[]"
        },
        {
          "internalType": "string[]",
          "name": "fromChainIds",
          "type": "string[]"
        }
      ],
      "name": "getReceiveReceiptIndex",
      "outputs": [
        {
          "internalType": "uint256[]",
          "name": "",
          "type": "uint256[]"
        }
      ],
      "stateMutability": "view",
      "type": "function"
    },
    {
      "inputs": [
        {
          "internalType": "address",
          "name": "token",
          "type": "address"
        },
        {
          "internalType": "string",
          "name": "fromChainId",
          "type": "string"
        },
        {
          "internalType": "uint256",
          "name": "fromIndex",
          "type": "uint256"
        },
        {
          "internalType": "uint256",
          "name": "endIndex",
          "type": "uint256"
        }
      ],
      "name": "getReceivedReceiptInfos",
      "outputs": [
        {
          "components": [
            {
              "internalType": "address",
              "name": "asset",
              "type": "address"
            },
            {
              "internalType": "address",
              "name": "targetAddress",
              "type": "address"
            },
            {
              "internalType": "uint256",
              "name": "amount",
              "type": "uint256"
            },
            {
              "internalType": "uint256",
              "name": "blockHeight",
              "type": "uint256"
            },
            {
              "internalType": "uint256",
              "name": "blockTime",
              "type": "uint256"
            },
            {
              "internalType": "string",
              "name": "fromChainId",
              "type": "string"
            },
            {
              "internalType": "string",
              "name": "receiptId",
              "type": "string"
            }
          ],
          "internalType": "struct BridgeOutImplementationV1.ReceivedReceipt[]",
          "name": "_receipts",
          "type": "tuple[]"
        }
      ],
      "stateMutability": "view",
      "type": "function"
    },
    {
      "inputs": [
        {
          "internalType": "address",
          "name": "token",
          "type": "address"
        },
        {
          "internalType": "string",
          "name": "fromChainId",
          "type": "string"
        }
      ],
      "name": "getSwapId",
      "outputs": [
        {
          "internalType": "bytes32",
          "name": "",
          "type": "bytes32"
        }
      ],
      "stateMutability": "view",
      "type": "function"
    },
    {
      "inputs": [
        {
          "internalType": "bytes32",
          "name": "swapId",
          "type": "bytes32"
        }
      ],
      "name": "getSwapInfo",
      "outputs": [
        {
          "internalType": "string",
          "name": "fromChainId",
          "type": "string"
        },
        {
          "internalType": "bytes32",
          "name": "regimentId",
          "type": "bytes32"
        },
        {
          "internalType": "bytes32",
          "name": "spaceId",
          "type": "bytes32"
        },
        {
          "internalType": "address",
          "name": "token",
          "type": "address"
        }
      ],
      "stateMutability": "view",
      "type": "function"
    },
    {
      "inputs": [
        {
          "internalType": "address",
          "name": "_merkleTree",
          "type": "address"
        },
        {
          "internalType": "address",
          "name": "_regiment",
          "type": "address"
        },
        {
          "internalType": "address",
          "name": "_bridgeIn",
          "type": "address"
        },
        {
          "internalType": "address",
          "name": "_tokenAddress",
          "type": "address"
        },
        {
          "internalType": "address",
          "name": "_approveController",
          "type": "address"
        },
        {
          "internalType": "address",
          "name": "_multiSigWallet",
          "type": "address"
        }
      ],
      "name": "initialize",
      "outputs": [],
      "stateMutability": "nonpayable",
      "type": "function"
    },
    {
      "inputs": [],
      "name": "isPaused",
      "outputs": [
        {
          "internalType": "bool",
          "name": "",
          "type": "bool"
        }
      ],
      "stateMutability": "view",
      "type": "function"
    },
    {
      "inputs": [
        {
          "internalType": "bytes32",
          "name": "receiptHash",
          "type": "bytes32"
        }
      ],
      "name": "isReceiptRecorded",
      "outputs": [
        {
          "internalType": "bool",
          "name": "",
          "type": "bool"
        }
      ],
      "stateMutability": "view",
      "type": "function"
    },
    {
      "inputs": [],
      "name": "limiter",
      "outputs": [
        {
          "internalType": "address",
          "name": "",
          "type": "address"
        }
      ],
      "stateMutability": "view",
      "type": "function"
    },
    {
      "inputs": [],
      "name": "multiSigWallet",
      "outputs": [
        {
          "internalType": "address",
          "name": "",
          "type": "address"
        }
      ],
      "stateMutability": "view",
      "type": "function"
    },
    {
      "inputs": [],
      "name": "owner",
      "outputs": [
        {
          "internalType": "address",
          "name": "",
          "type": "address"
        }
      ],
      "stateMutability": "view",
      "type": "function"
    },
    {
      "inputs": [],
      "name": "pause",
      "outputs": [],
      "stateMutability": "nonpayable",
      "type": "function"
    },
    {
      "inputs": [],
      "name": "regiment",
      "outputs": [
        {
          "internalType": "address",
          "name": "",
          "type": "address"
        }
      ],
      "stateMutability": "view",
      "type": "function"
    },
    {
      "inputs": [],
      "name": "renounceOwnership",
      "outputs": [],
      "stateMutability": "nonpayable",
      "type": "function"
    },
    {
      "inputs": [],
      "name": "restart",
      "outputs": [],
      "stateMutability": "nonpayable",
      "type": "function"
    },
    {
      "inputs": [
        {
          "internalType": "uint256",
          "name": "_defaultMerkleTreeDepth",
          "type": "uint256"
        }
      ],
      "name": "setDefaultMerkleTreeDepth",
      "outputs": [],
      "stateMutability": "nonpayable",
      "type": "function"
    },
    {
      "inputs": [
        {
          "internalType": "address",
          "name": "_limiter",
          "type": "address"
        }
      ],
      "name": "setLimiter",
      "outputs": [],
      "stateMutability": "nonpayable",
      "type": "function"
    },
    {
      "inputs": [
        {
          "internalType": "uint8",
          "name": "_signatureThreshold",
          "type": "uint8"
        }
      ],
      "name": "setSignatureThreshold",
      "outputs": [],
      "stateMutability": "nonpayable",
      "type": "function"
    },
    {
      "inputs": [],
      "name": "signatureThreshold",
      "outputs": [
        {
          "internalType": "uint8",
          "name": "",
          "type": "uint8"
        }
      ],
      "stateMutability": "view",
      "type": "function"
    },
    {
      "inputs": [
        {
          "internalType": "bytes32",
          "name": "swapId",
          "type": "bytes32"
        },
        {
          "internalType": "string",
          "name": "receiptId",
          "type": "string"
        },
        {
          "internalType": "uint256",
          "name": "amount",
          "type": "uint256"
        },
        {
          "internalType": "address",
          "name": "receiverAddress",
          "type": "address"
        }
      ],
      "name": "swapToken",
      "outputs": [],
      "stateMutability": "nonpayable",
      "type": "function"
    },
    {
      "inputs": [],
      "name": "tokenAddress",
      "outputs": [
        {
          "internalType": "address",
          "name": "",
          "type": "address"
        }
      ],
      "stateMutability": "view",
      "type": "function"
    },
    {
      "inputs": [
        {
          "internalType": "address",
          "name": "",
          "type": "address"
        }
      ],
      "name": "tokenAmountLimit",
      "outputs": [
        {
          "internalType": "uint256",
          "name": "",
          "type": "uint256"
        }
      ],
      "stateMutability": "view",
      "type": "function"
    },
    {
      "inputs": [
        {
          "internalType": "address",
          "name": "newOwner",
          "type": "address"
        }
      ],
      "name": "transferOwnership",
      "outputs": [],
      "stateMutability": "nonpayable",
      "type": "function"
    },
    {
      "inputs": [
        {
          "internalType": "bytes32",
          "name": "swapHashId",
          "type": "bytes32"
        },
        {
          "internalType": "bytes",
          "name": "_report",
          "type": "bytes"
        },
        {
          "internalType": "bytes32[]",
          "name": "_rs",
          "type": "bytes32[]"
        },
        {
          "internalType": "bytes32[]",
          "name": "_ss",
          "type": "bytes32[]"
        },
        {
          "internalType": "bytes32",
          "name": "_rawVs",
          "type": "bytes32"
        }
      ],
      "name": "transmit",
      "outputs": [],
      "stateMutability": "nonpayable",
      "type": "function"
    },
    {
      "inputs": [
        {
          "internalType": "bytes32",
          "name": "tokenKey",
          "type": "bytes32"
        },
        {
          "internalType": "address",
          "name": "token",
          "type": "address"
        },
        {
          "internalType": "uint256",
          "name": "amount",
          "type": "uint256"
        }
      ],
      "name": "withdraw",
      "outputs": [],
      "stateMutability": "nonpayable",
      "type": "function"
    }
  ],
  "bytecode": "0x608060405260036005553480156200001657600080fd5b50d380156200002457600080fd5b50d280156200003257600080fd5b5062000053620000476200005960201b60201c565b6200006160201b60201c565b62000125565b600033905090565b60008060009054906101000a900473ffffffffffffffffffffffffffffffffffffffff169050816000806101000a81548173ffffffffffffffffffffffffffffffffffffffff021916908373ffffffffffffffffffffffffffffffffffffffff1602179055508173ffffffffffffffffffffffffffffffffffffffff168173ffffffffffffffffffffffffffffffffffffffff167f8be0079c531659141344cd1fd0a4f28419497f9722a3daafe3b4186f6b6457e060405160405180910390a35050565b615f3980620001356000396000f3fe608060405234801561001057600080fd5b50d3801561001d57600080fd5b50d2801561002a57600080fd5b506004361061022b5760003560e01c80637a29084c1161013f578063a82f2e26116100c7578063cc2a9a5b11610096578063cc2a9a5b146105e5578063d954863c14610601578063f2fde38b1461061d578063f8c9596e14610639578063fff2ee7a146106575761022b565b8063a82f2e2614610571578063b187bd261461058f578063b67b7163146105ad578063c6d62982146105c95761022b565b80638da5cb5b1161010e5780638da5cb5b146104cd57806394bd77d8146104eb5780639d76ea5814610507578063a6c5fcc014610525578063a6fb97d1146105555761022b565b80637a29084c146104595780638256ce4d146104755780638456cb59146104935780638a0bb6f91461049d5761022b565b80632ec98edd116101c25780634c038c45116101915780634c038c45146103b557806368591baa146103e5578063715018a61461040157806371d0c5ca1461040b57806374b87f671461043b5761022b565b80632ec98edd1461032b57806337ce7549146103495780633f19efbe146103675780634b8feb4f146103975761022b565b8063166d8752116101fe578063166d8752146102a25780631ef3755d146102be5780632c3daef6146102c85780632d0fc6b4146102f85761022b565b806301be7b9e1461023057806303b1ccdb1461024e5780630dd59d451461026a57806315e2bd9814610286575b600080fd5b610238610675565b604051610245919061396d565b60405180910390f35b61026860048036038101906102639190613aed565b61067b565b005b610284600480360381019061027f9190613b99565b6112e0565b005b6102a0600480360381019061029b9190613c2e565b611884565b005b6102bc60048036038101906102b79190613c5b565b611978565b005b6102c6611a62565b005b6102e260048036038101906102dd9190613c88565b611b0f565b6040516102ef919061396d565b60405180910390f35b610312600480360381019061030d9190613c88565b611b2c565b6040516103229493929190613d6c565b60405180910390f35b610333611c4c565b6040516103409190613db8565b60405180910390f35b610351611c72565b60405161035e919061396d565b60405180910390f35b610381600480360381019061037c9190613f67565b611c77565b60405161038e91906140a1565b60405180910390f35b61039f611e29565b6040516103ac9190613db8565b60405180910390f35b6103cf60048036038101906103ca9190613c88565b611e4f565b6040516103dc91906140de565b60405180910390f35b6103ff60048036038101906103fa91906141a5565b611e71565b005b6104096121b8565b005b61042560048036038101906104209190614281565b6121cc565b60405161043291906142e1565b60405180910390f35b61044361226b565b6040516104509190613db8565b60405180910390f35b610473600480360381019061046e91906142fc565b612291565b005b61047d61242f565b60405161048a9190613db8565b60405180910390f35b61049b612455565b005b6104b760048036038101906104b29190614329565b612502565b6040516104c4919061456f565b60405180910390f35b6104d5612921565b6040516104e29190613db8565b60405180910390f35b610505600480360381019061050091906142fc565b61294a565b005b61050f612a06565b60405161051c9190613db8565b60405180910390f35b61053f600480360381019061053a91906142fc565b612a2c565b60405161054c919061396d565b60405180910390f35b61056f600480360381019061056a9190614591565b612a44565b005b610579612b64565b60405161058691906145f3565b60405180910390f35b610597612b77565b6040516105a491906140de565b60405180910390f35b6105c760048036038101906105c2919061460e565b612b8a565b005b6105e360048036038101906105de91906142fc565b612c57565b005b6105ff60048036038101906105fa919061465b565b612d9b565b005b61061b60048036038101906106169190614591565b612fc2565b005b610637600480360381019061063291906142fc565b613054565b005b6106416130d8565b60405161064e9190613db8565b60405180910390f35b61065f6130fe565b60405161066c919061396d565b60405180910390f35b60055481565b600660009054906101000a900460ff16156106cb576040517f08c379a00000000000000000000000000000000000000000000000000000000081526004016106c290614734565b60405180910390fd5b8073ffffffffffffffffffffffffffffffffffffffff163373ffffffffffffffffffffffffffffffffffffffff1614610739576040517f08c379a0000000000000000000000000000000000000000000000000000000008152600401610730906147a0565b60405180910390fd5b6000600b60008781526020019081526020016000206002015490506000801b81141561079a576040517f08c379a00000000000000000000000000000000000000000000000000000000081526004016107919061480c565b60405180910390fd5b600083116107dd576040517f08c379a00000000000000000000000000000000000000000000000000000000081526004016107d490614878565b60405180910390fd5b6000600b6000888152602001908152602001600020905060006108658260030160020160009054906101000a900467ffffffffffffffff1667ffffffffffffffff166108578460030160020160089054906101000a900467ffffffffffffffff1667ffffffffffffffff168861310390919063ffffffff16565b61311990919063ffffffff16565b9050601360009054906101000a900473ffffffffffffffffffffffffffffffffffffffff1673ffffffffffffffffffffffffffffffffffffffff166331980b8489600660019054906101000a900473ffffffffffffffffffffffffffffffffffffffff16846040518463ffffffff1660e01b81526004016108e893929190614898565b600060405180830381600087803b15801561090257600080fd5b505af1158015610916573d6000803e3d6000fd5b50505050601360009054906101000a900473ffffffffffffffffffffffffffffffffffffffff1673ffffffffffffffffffffffffffffffffffffffff166370a5348989600660019054906101000a900473ffffffffffffffffffffffffffffffffffffffff16846040518463ffffffff1660e01b815260040161099b93929190614898565b600060405180830381600087803b1580156109b557600080fd5b505af11580156109c9573d6000803e3d6000fd5b50505050600073__BridgeOutLibrary______________________63cb2b48a5898989896040518563ffffffff1660e01b8152600401610a0c949392919061493a565b602060405180830381865af4158015610a29573d6000803e3d6000fd5b505050506040513d601f19601f82011682018060405250810190610a4d919061498f565b90506000610a7b6001600d60008581526020019081526020016000206001015461312f90919063ffffffff16565b905073__BridgeOutLibrary______________________630521317b86600260009054906101000a900473ffffffffffffffffffffffffffffffffffffffff1684866040518563ffffffff1660e01b8152600401610adc94939291906149cb565b60006040518083038186803b158015610af457600080fd5b505af4158015610b08573d6000803e3d6000fd5b505050506000600d60008481526020019081526020016000209050600073ffffffffffffffffffffffffffffffffffffffff168160000160009054906101000a900473ffffffffffffffffffffffffffffffffffffffff1673ffffffffffffffffffffffffffffffffffffffff1614610bb6576040517f08c379a0000000000000000000000000000000000000000000000000000000008152600401610bad90614a5c565b60405180910390fd5b868160000160006101000a81548173ffffffffffffffffffffffffffffffffffffffff021916908373ffffffffffffffffffffffffffffffffffffffff160217905550601260008c815260200190815260200160002054841115610c4f576040517f08c379a0000000000000000000000000000000000000000000000000000000008152600401610c4690614ac8565b60405180910390fd5b610c7584601260008e81526020019081526020016000205461312f90919063ffffffff16565b601260008d815260200190815260200160002081905550600660019054906101000a900473ffffffffffffffffffffffffffffffffffffffff1673ffffffffffffffffffffffffffffffffffffffff168560030160000160009054906101000a900473ffffffffffffffffffffffffffffffffffffffff1673ffffffffffffffffffffffffffffffffffffffff161415610e4857600660019054906101000a900473ffffffffffffffffffffffffffffffffffffffff1673ffffffffffffffffffffffffffffffffffffffff16632e1a7d4d856040518263ffffffff1660e01b8152600401610d64919061396d565b600060405180830381600087803b158015610d7e57600080fd5b505af1158015610d92573d6000803e3d6000fd5b5050505060008773ffffffffffffffffffffffffffffffffffffffff1685604051610dbc90614b19565b60006040518083038185875af1925050503d8060008114610df9576040519150601f19603f3d011682016040523d82523d6000602084013e610dfe565b606091505b5050905080610e42576040517f08c379a0000000000000000000000000000000000000000000000000000000008152600401610e3990614b7a565b60405180910390fd5b50610e9b565b610e9a87858760030160000160009054906101000a900473ffffffffffffffffffffffffffffffffffffffff1673ffffffffffffffffffffffffffffffffffffffff166131459092919063ffffffff16565b5b838160020160008760030160000160009054906101000a900473ffffffffffffffffffffffffffffffffffffffff1673ffffffffffffffffffffffffffffffffffffffff1673ffffffffffffffffffffffffffffffffffffffff168152602001908152602001600020819055507fb0c1e4d18ea737b756410ab0296768c15a87c12eeb368f360ecc5be61a11b4db878660030160000160009054906101000a900473ffffffffffffffffffffffffffffffffffffffff1686604051610f6293929190614b9a565b60405180910390a1600073__BridgeOutLibrary______________________63629ef33b8760030160000160009054906101000a900473ffffffffffffffffffffffffffffffffffffffff16886003016001016040518363ffffffff1660e01b8152600401610fd2929190614cc7565b602060405180830381865af4158015610fef573d6000803e3d6000fd5b505050506040513d601f19601f82011682018060405250810190611013919061498f565b905061103c6001600f6000848152602001908152602001600020546131cb90919063ffffffff16565b600f6000838152602001908152602001600020819055506000600f60008381526020019081526020016000205490506040518060e001604052808860030160000160009054906101000a900473ffffffffffffffffffffffffffffffffffffffff1673ffffffffffffffffffffffffffffffffffffffff1681526020018a73ffffffffffffffffffffffffffffffffffffffff1681526020018b81526020014381526020014281526020018860030160010180546110f990614c00565b80601f016020809104026020016040519081016040528092919081815260200182805461112590614c00565b80156111725780601f1061114757610100808354040283529160200191611172565b820191906000526020600020905b81548152906001019060200180831161115557829003601f168201915b505050505081526020018d8d8080601f016020809104026020016040519081016040528093929190818152602001838380828437600081840152601f19601f82011690508083019250505050505050815250600e6000848152602001908152602001600020600083815260200190815260200160002060008201518160000160006101000a81548173ffffffffffffffffffffffffffffffffffffffff021916908373ffffffffffffffffffffffffffffffffffffffff16021790555060208201518160010160006101000a81548173ffffffffffffffffffffffffffffffffffffffff021916908373ffffffffffffffffffffffffffffffffffffffff16021790555060408201518160020155606082015181600301556080820151816004015560a08201518160050190805190602001906112b0929190613848565b5060c08201518160060190805190602001906112cd929190613848565b5090505050505050505050505050505050565b600360009054906101000a900473ffffffffffffffffffffffffffffffffffffffff1673ffffffffffffffffffffffffffffffffffffffff16639a96679e82336040518363ffffffff1660e01b815260040161133d929190614cf7565b602060405180830381865afa15801561135a573d6000803e3d6000fd5b505050506040513d601f19601f8201168201806040525081019061137e9190614d4c565b6113bd576040517f08c379a00000000000000000000000000000000000000000000000000000000081526004016113b4906147a0565b60405180910390fd5b600073ffffffffffffffffffffffffffffffffffffffff168260000160208101906113e891906142fc565b73ffffffffffffffffffffffffffffffffffffffff16141561143f576040517f08c379a000000000000000000000000000000000000000000000000000000000815260040161143690614dc5565b60405180910390fd5b60c861144b60096131e1565b1061148b576040517f08c379a000000000000000000000000000000000000000000000000000000000815260040161148290614e31565b60405180910390fd5b600073__BridgeOutLibrary______________________63629ef33b8460000160208101906114ba91906142fc565b8580602001906114ca9190614e60565b6040518463ffffffff1660e01b81526004016114e893929190614ec3565b602060405180830381865af4158015611505573d6000803e3d6000fd5b505050506040513d601f19601f82011682018060405250810190611529919061498f565b905061153f8160096131f690919063ffffffff16565b1561157f576040517f08c379a000000000000000000000000000000000000000000000000000000000815260040161157690614f41565b60405180910390fd5b6000600260009054906101000a900473ffffffffffffffffffffffffffffffffffffffff1673ffffffffffffffffffffffffffffffffffffffff16632a99732a846005546040518363ffffffff1660e01b81526004016115e0929190614f61565b6020604051808303816000875af11580156115ff573d6000803e3d6000fd5b505050506040513d601f19601f82011682018060405250810190611623919061498f565b905060008036604051611637929190614faf565b6040518091039020905060008560400160208101906116569190615008565b67ffffffffffffffff161180156116895750600085606001602081019061167d9190615008565b67ffffffffffffffff16115b6116c8576040517f08c379a00000000000000000000000000000000000000000000000000000000081526004016116bf90615081565b60405180910390fd5b6040518060800160405280828152602001858152602001838152602001866116ef906151e5565b815250600b600083815260200190815260200160002060008201518160000155602082015181600101556040820151816002015560608201518160030160008201518160000160006101000a81548173ffffffffffffffffffffffffffffffffffffffff021916908373ffffffffffffffffffffffffffffffffffffffff160217905550602082015181600101908051906020019061178f929190613848565b5060408201518160020160006101000a81548167ffffffffffffffff021916908367ffffffffffffffff16021790555060608201518160020160086101000a81548167ffffffffffffffff021916908367ffffffffffffffff160217905550505090505061180783600961320d90919063ffffffff16565b5080600c6000858152602001908152602001600020819055507f909c724b9d08d0463115fc7fa6d2c8e51e6eafa867725be497bdb9a53a6cac4f8186600001602081019061185591906142fc565b8780602001906118659190614e60565b6040516118759493929190615225565b60405180910390a15050505050565b600860009054906101000a900473ffffffffffffffffffffffffffffffffffffffff1673ffffffffffffffffffffffffffffffffffffffff163373ffffffffffffffffffffffffffffffffffffffff1614611914576040517f08c379a000000000000000000000000000000000000000000000000000000000815260040161190b906152b1565b60405180910390fd5b60008160ff161161195a576040517f08c379a00000000000000000000000000000000000000000000000000000000081526004016119519061531d565b60405180910390fd5b80601360146101000a81548160ff021916908360ff16021790555050565b600860009054906101000a900473ffffffffffffffffffffffffffffffffffffffff1673ffffffffffffffffffffffffffffffffffffffff163373ffffffffffffffffffffffffffffffffffffffff1614611a08576040517f08c379a00000000000000000000000000000000000000000000000000000000081526004016119ff906152b1565b60405180910390fd5b600081118015611a19575060148111155b611a58576040517f08c379a0000000000000000000000000000000000000000000000000000000008152600401611a4f90614dc5565b60405180910390fd5b8060058190555050565b600460009054906101000a900473ffffffffffffffffffffffffffffffffffffffff1673ffffffffffffffffffffffffffffffffffffffff163373ffffffffffffffffffffffffffffffffffffffff1614611af2576040517f08c379a0000000000000000000000000000000000000000000000000000000008152600401611ae9906147a0565b60405180910390fd5b6000600660006101000a81548160ff021916908315150217905550565b600060126000838152602001908152602001600020549050919050565b60606000806000600b60008681526020019081526020016000206003016001018054611b5790614c00565b80601f0160208091040260200160405190810160405280929190818152602001828054611b8390614c00565b8015611bd05780601f10611ba557610100808354040283529160200191611bd0565b820191906000526020600020905b815481529060010190602001808311611bb357829003601f168201915b50505050509350600b6000868152602001908152602001600020600101549250600b6000868152602001908152602001600020600201549150600b600086815260200190815260200160002060030160000160009054906101000a900473ffffffffffffffffffffffffffffffffffffffff1690509193509193565b600760009054906101000a900473ffffffffffffffffffffffffffffffffffffffff1681565b606481565b606082829050845114611cbf576040517f08c379a0000000000000000000000000000000000000000000000000000000008152600401611cb690614dc5565b60405180910390fd5b6000845167ffffffffffffffff811115611cdc57611cdb613dd3565b5b604051908082528060200260200182016040528015611d0a5781602001602082028036833780820191505090505b50905060005b8551811015611e1d57600073__BridgeOutLibrary______________________63629ef33b888481518110611d4857611d4761533d565b5b6020026020010151888886818110611d6357611d6261533d565b5b9050602002810190611d759190614e60565b6040518463ffffffff1660e01b8152600401611d9393929190614ec3565b602060405180830381865af4158015611db0573d6000803e3d6000fd5b505050506040513d601f19601f82011682018060405250810190611dd4919061498f565b9050600f600082815260200190815260200160002054838381518110611dfd57611dfc61533d565b5b602002602001018181525050508080611e159061539b565b915050611d10565b50809150509392505050565b600860009054906101000a900473ffffffffffffffffffffffffffffffffffffffff1681565b600080600d600084815260200190815260200160002060010154119050919050565b6000600b60008a81526020019081526020016000209050600073__BridgeOutLibrary______________________63e38556d483600101548b8b8b8b8b8b8b600360009054906101000a900473ffffffffffffffffffffffffffffffffffffffff166040518a63ffffffff1660e01b8152600401611ef799989796959493929190615494565b602060405180830381865af4158015611f14573d6000803e3d6000fd5b505050506040513d601f19601f82011682018060405250810190611f389190615525565b905060008073__BridgeOutLibrary______________________6389ec174e84601360149054906101000a900460ff168e8e6040518563ffffffff1660e01b8152600401611f899493929190615561565b6040805180830381865af4158015611fa5573d6000803e3d6000fd5b505050506040513d601f19601f82011682018060405250810190611fc991906155b6565b915091506000600167ffffffffffffffff811115611fea57611fe9613dd3565b5b6040519080825280602002602001820160405280156120185781602001602082028036833780820191505090505b50905081816000815181106120305761202f61533d565b5b6020026020010181815250506000600d60008481526020019081526020016000206001015414612095576040517f08c379a000000000000000000000000000000000000000000000000000000000815260040161208c90615642565b60405180910390fd5b6000600260009054906101000a900473ffffffffffffffffffffffffffffffffffffffff1673ffffffffffffffffffffffffffffffffffffffff16637d9778368760020154846040518363ffffffff1660e01b81526004016120f8929190615720565b6020604051808303816000875af1158015612117573d6000803e3d6000fd5b505050506040513d601f19601f8201168201806040525081019061213b9190615750565b90506121516001826131cb90919063ffffffff16565b600d6000858152602001908152602001600020600101819055507f6319bf84e3d2c97dd1991c07818c14950ceb6f48ce6d85f063be3c60905ea1b98e3386866040516121a0949392919061577d565b60405180910390a15050505050505050505050505050565b6121c0613224565b6121ca60006132a2565b565b60008073__BridgeOutLibrary______________________63629ef33b8686866040518463ffffffff1660e01b815260040161220a93929190614ec3565b602060405180830381865af4158015612227573d6000803e3d6000fd5b505050506040513d601f19601f8201168201806040525081019061224b919061498f565b9050600c6000828152602001908152602001600020549150509392505050565b601360009054906101000a900473ffffffffffffffffffffffffffffffffffffffff1681565b600860009054906101000a900473ffffffffffffffffffffffffffffffffffffffff1673ffffffffffffffffffffffffffffffffffffffff163373ffffffffffffffffffffffffffffffffffffffff1614612321576040517f08c379a0000000000000000000000000000000000000000000000000000000008152600401612318906152b1565b60405180910390fd5b600073ffffffffffffffffffffffffffffffffffffffff16601360009054906101000a900473ffffffffffffffffffffffffffffffffffffffff1673ffffffffffffffffffffffffffffffffffffffff161480156123ac5750600073ffffffffffffffffffffffffffffffffffffffff168173ffffffffffffffffffffffffffffffffffffffff1614155b6123eb576040517f08c379a00000000000000000000000000000000000000000000000000000000081526004016123e29061580e565b60405180910390fd5b80601360006101000a81548173ffffffffffffffffffffffffffffffffffffffff021916908373ffffffffffffffffffffffffffffffffffffffff16021790555050565b600460009054906101000a900473ffffffffffffffffffffffffffffffffffffffff1681565b600460009054906101000a900473ffffffffffffffffffffffffffffffffffffffff1673ffffffffffffffffffffffffffffffffffffffff163373ffffffffffffffffffffffffffffffffffffffff16146124e5576040517f08c379a00000000000000000000000000000000000000000000000000000000081526004016124dc906147a0565b60405180910390fd5b6001600660006101000a81548160ff021916908315150217905550565b6060600073__BridgeOutLibrary______________________63629ef33b8888886040518463ffffffff1660e01b815260040161254193929190614ec3565b602060405180830381865af415801561255e573d6000803e3d6000fd5b505050506040513d601f19601f82011682018060405250810190612582919061498f565b9050600f60008281526020019081526020016000205483111580156125a75750600084115b6125e6576040517f08c379a00000000000000000000000000000000000000000000000000000000081526004016125dd9061587a565b60405180910390fd5b600061260e6001612600878761312f90919063ffffffff16565b6131cb90919063ffffffff16565b90506064811115612654576040517f08c379a000000000000000000000000000000000000000000000000000000000815260040161264b906158e6565b60405180910390fd5b8067ffffffffffffffff81111561266e5761266d613dd3565b5b6040519080825280602002602001820160405280156126a757816020015b6126946138ce565b81526020019060019003908161268c5790505b50925060005b8181101561291557600e600084815260200190815260200160002060006126dd88846131cb90919063ffffffff16565b81526020019081526020016000206040518060e00160405290816000820160009054906101000a900473ffffffffffffffffffffffffffffffffffffffff1673ffffffffffffffffffffffffffffffffffffffff1673ffffffffffffffffffffffffffffffffffffffff1681526020016001820160009054906101000a900473ffffffffffffffffffffffffffffffffffffffff1673ffffffffffffffffffffffffffffffffffffffff1673ffffffffffffffffffffffffffffffffffffffff1681526020016002820154815260200160038201548152602001600482015481526020016005820180546127d090614c00565b80601f01602080910402602001604051908101604052809291908181526020018280546127fc90614c00565b80156128495780601f1061281e57610100808354040283529160200191612849565b820191906000526020600020905b81548152906001019060200180831161282c57829003601f168201915b5050505050815260200160068201805461286290614c00565b80601f016020809104026020016040519081016040528092919081815260200182805461288e90614c00565b80156128db5780601f106128b0576101008083540402835291602001916128db565b820191906000526020600020905b8154815290600101906020018083116128be57829003601f168201915b5050505050815250508482815181106128f7576128f661533d565b5b6020026020010181905250808061290d9061539b565b9150506126ad565b50505095945050505050565b60008060009054906101000a900473ffffffffffffffffffffffffffffffffffffffff16905090565b612952613224565b600073ffffffffffffffffffffffffffffffffffffffff168173ffffffffffffffffffffffffffffffffffffffff1614156129c2576040517f08c379a00000000000000000000000000000000000000000000000000000000081526004016129b990614dc5565b60405180910390fd5b80600860006101000a81548173ffffffffffffffffffffffffffffffffffffffff021916908373ffffffffffffffffffffffffffffffffffffffff16021790555050565b600660019054906101000a900473ffffffffffffffffffffffffffffffffffffffff1681565b60116020528060005260406000206000915090505481565b600460009054906101000a900473ffffffffffffffffffffffffffffffffffffffff1673ffffffffffffffffffffffffffffffffffffffff163373ffffffffffffffffffffffffffffffffffffffff1614612ad4576040517f08c379a0000000000000000000000000000000000000000000000000000000008152600401612acb906147a0565b60405180910390fd5b612ade8284613366565b6000600c6000858152602001908152602001600020549050612b1c82601260008481526020019081526020016000205461312f90919063ffffffff16565b6012600083815260200190815260200160002081905550612b5e33838573ffffffffffffffffffffffffffffffffffffffff166131459092919063ffffffff16565b50505050565b601360149054906101000a900460ff1681565b600660009054906101000a900460ff1681565b600760009054906101000a900473ffffffffffffffffffffffffffffffffffffffff1673ffffffffffffffffffffffffffffffffffffffff163373ffffffffffffffffffffffffffffffffffffffff1614612c1a576040517f08c379a0000000000000000000000000000000000000000000000000000000008152600401612c11906147a0565b60405180910390fd5b600160108383604051612c2e929190615936565b908152602001604051809103902060006101000a81548160ff0219169083151502179055505050565b600860009054906101000a900473ffffffffffffffffffffffffffffffffffffffff1673ffffffffffffffffffffffffffffffffffffffff163373ffffffffffffffffffffffffffffffffffffffff1614612ce7576040517f08c379a0000000000000000000000000000000000000000000000000000000008152600401612cde906152b1565b60405180910390fd5b600073ffffffffffffffffffffffffffffffffffffffff168173ffffffffffffffffffffffffffffffffffffffff161415612d57576040517f08c379a0000000000000000000000000000000000000000000000000000000008152600401612d4e9061587a565b60405180910390fd5b80600760006101000a81548173ffffffffffffffffffffffffffffffffffffffff021916908373ffffffffffffffffffffffffffffffffffffffff16021790555050565b612da3613224565b600073ffffffffffffffffffffffffffffffffffffffff16600260009054906101000a900473ffffffffffffffffffffffffffffffffffffffff1673ffffffffffffffffffffffffffffffffffffffff1614612e34576040517f08c379a0000000000000000000000000000000000000000000000000000000008152600401612e2b9061599b565b60405180910390fd5b85600260006101000a81548173ffffffffffffffffffffffffffffffffffffffff021916908373ffffffffffffffffffffffffffffffffffffffff16021790555084600360006101000a81548173ffffffffffffffffffffffffffffffffffffffff021916908373ffffffffffffffffffffffffffffffffffffffff16021790555083600460006101000a81548173ffffffffffffffffffffffffffffffffffffffff021916908373ffffffffffffffffffffffffffffffffffffffff16021790555082600660016101000a81548173ffffffffffffffffffffffffffffffffffffffff021916908373ffffffffffffffffffffffffffffffffffffffff16021790555081600760006101000a81548173ffffffffffffffffffffffffffffffffffffffff021916908373ffffffffffffffffffffffffffffffffffffffff16021790555080600860006101000a81548173ffffffffffffffffffffffffffffffffffffffff021916908373ffffffffffffffffffffffffffffffffffffffff160217905550505050505050565b612fcc8284613366565b612ff93330838573ffffffffffffffffffffffffffffffffffffffff1661347d909392919063ffffffff16565b6000600c60008581526020019081526020016000205490506130378260126000848152602001908152602001600020546131cb90919063ffffffff16565b601260008381526020019081526020016000208190555050505050565b61305c613224565b600073ffffffffffffffffffffffffffffffffffffffff168173ffffffffffffffffffffffffffffffffffffffff1614156130cc576040517f08c379a00000000000000000000000000000000000000000000000000000000081526004016130c390615a2d565b60405180910390fd5b6130d5816132a2565b50565b600360009054906101000a900473ffffffffffffffffffffffffffffffffffffffff1681565b60c881565b600081836131119190615a4d565b905092915050565b600081836131279190615ad6565b905092915050565b6000818361313d9190615b07565b905092915050565b6131c68363a9059cbb60e01b8484604051602401613164929190615b3b565b604051602081830303815290604052907bffffffffffffffffffffffffffffffffffffffffffffffffffffffff19166020820180517bffffffffffffffffffffffffffffffffffffffffffffffffffffffff8381831617835250505050613506565b505050565b600081836131d99190615b64565b905092915050565b60006131ef826000016135ce565b9050919050565b600061320583600001836135df565b905092915050565b600061321c8360000183613602565b905092915050565b61322c613672565b73ffffffffffffffffffffffffffffffffffffffff1661324a612921565b73ffffffffffffffffffffffffffffffffffffffff16146132a0576040517f08c379a000000000000000000000000000000000000000000000000000000000815260040161329790615c06565b60405180910390fd5b565b60008060009054906101000a900473ffffffffffffffffffffffffffffffffffffffff169050816000806101000a81548173ffffffffffffffffffffffffffffffffffffffff021916908373ffffffffffffffffffffffffffffffffffffffff1602179055508173ffffffffffffffffffffffffffffffffffffffff168173ffffffffffffffffffffffffffffffffffffffff167f8be0079c531659141344cd1fd0a4f28419497f9722a3daafe3b4186f6b6457e060405160405180910390a35050565b61337a8160096131f690919063ffffffff16565b6133b9576040517f08c379a00000000000000000000000000000000000000000000000000000000081526004016133b090615c72565b60405180910390fd5b6000600c60008381526020019081526020016000205490508273ffffffffffffffffffffffffffffffffffffffff16600b600083815260200190815260200160002060030160000160009054906101000a900473ffffffffffffffffffffffffffffffffffffffff1673ffffffffffffffffffffffffffffffffffffffff1614613478576040517f08c379a000000000000000000000000000000000000000000000000000000000815260040161346f90615cde565b60405180910390fd5b505050565b613500846323b872dd60e01b85858560405160240161349e93929190614b9a565b604051602081830303815290604052907bffffffffffffffffffffffffffffffffffffffffffffffffffffffff19166020820180517bffffffffffffffffffffffffffffffffffffffffffffffffffffffff8381831617835250505050613506565b50505050565b6000613568826040518060400160405280602081526020017f5361666545524332303a206c6f772d6c6576656c2063616c6c206661696c65648152508573ffffffffffffffffffffffffffffffffffffffff1661367a9092919063ffffffff16565b905060008151148061358a5750808060200190518101906135899190614d4c565b5b6135c9576040517f08c379a00000000000000000000000000000000000000000000000000000000081526004016135c090615d70565b60405180910390fd5b505050565b600081600001805490509050919050565b600080836001016000848152602001908152602001600020541415905092915050565b600061360e83836135df565b61366757826000018290806001815401808255809150506001900390600052602060002001600090919091909150558260000180549050836001016000848152602001908152602001600020819055506001905061366c565b600090505b92915050565b600033905090565b60606136898484600085613692565b90509392505050565b6060824710156136d7576040517f08c379a00000000000000000000000000000000000000000000000000000000081526004016136ce90615e02565b60405180910390fd5b6000808673ffffffffffffffffffffffffffffffffffffffff1685876040516137009190615e5e565b60006040518083038185875af1925050503d806000811461373d576040519150601f19603f3d011682016040523d82523d6000602084013e613742565b606091505b50915091506137538783838761375f565b92505050949350505050565b606083156137c2576000835114156137ba5761377a856137d5565b6137b9576040517f08c379a00000000000000000000000000000000000000000000000000000000081526004016137b090615ec1565b60405180910390fd5b5b8290506137cd565b6137cc83836137f8565b5b949350505050565b6000808273ffffffffffffffffffffffffffffffffffffffff163b119050919050565b60008251111561380b5781518083602001fd5b806040517f08c379a000000000000000000000000000000000000000000000000000000000815260040161383f9190615ee1565b60405180910390fd5b82805461385490614c00565b90600052602060002090601f01602090048101928261387657600085556138bd565b82601f1061388f57805160ff19168380011785556138bd565b828001600101855582156138bd579182015b828111156138bc5782518255916020019190600101906138a1565b5b5090506138ca9190613937565b5090565b6040518060e00160405280600073ffffffffffffffffffffffffffffffffffffffff168152602001600073ffffffffffffffffffffffffffffffffffffffff16815260200160008152602001600081526020016000815260200160608152602001606081525090565b5b80821115613950576000816000905550600101613938565b5090565b6000819050919050565b61396781613954565b82525050565b6000602082019050613982600083018461395e565b92915050565b6000604051905090565b600080fd5b600080fd5b6000819050919050565b6139af8161399c565b81146139ba57600080fd5b50565b6000813590506139cc816139a6565b92915050565b600080fd5b600080fd5b600080fd5b60008083601f8401126139f7576139f66139d2565b5b8235905067ffffffffffffffff811115613a1457613a136139d7565b5b602083019150836001820283011115613a3057613a2f6139dc565b5b9250929050565b613a4081613954565b8114613a4b57600080fd5b50565b600081359050613a5d81613a37565b92915050565b600074ffffffffffffffffffffffffffffffffffffffffff82169050919050565b613a8d81613a63565b8114613a9857600080fd5b50565b600073ffffffffffffffffffffffffffffffffffffffff82169050919050565b6000613ac682613a9b565b9050919050565b600081359050613adc81613a84565b613ae581613abb565b905092915050565b600080600080600060808688031215613b0957613b08613992565b5b6000613b17888289016139bd565b955050602086013567ffffffffffffffff811115613b3857613b37613997565b5b613b44888289016139e1565b94509450506040613b5788828901613a4e565b9250506060613b6888828901613acd565b9150509295509295909350565b600080fd5b600060808284031215613b9057613b8f613b75565b5b81905092915050565b60008060408385031215613bb057613baf613992565b5b600083013567ffffffffffffffff811115613bce57613bcd613997565b5b613bda85828601613b7a565b9250506020613beb858286016139bd565b9150509250929050565b600060ff82169050919050565b613c0b81613bf5565b8114613c1657600080fd5b50565b600081359050613c2881613c02565b92915050565b600060208284031215613c4457613c43613992565b5b6000613c5284828501613c19565b91505092915050565b600060208284031215613c7157613c70613992565b5b6000613c7f84828501613a4e565b91505092915050565b600060208284031215613c9e57613c9d613992565b5b6000613cac848285016139bd565b91505092915050565b600081519050919050565b600082825260208201905092915050565b60005b83811015613cef578082015181840152602081019050613cd4565b83811115613cfe576000848401525b50505050565b6000601f19601f8301169050919050565b6000613d2082613cb5565b613d2a8185613cc0565b9350613d3a818560208601613cd1565b613d4381613d04565b840191505092915050565b613d578161399c565b82525050565b613d6681613abb565b82525050565b60006080820190508181036000830152613d868187613d15565b9050613d956020830186613d4e565b613da26040830185613d4e565b613daf6060830184613d5d565b95945050505050565b6000602082019050613dcd6000830184613d5d565b92915050565b7f4e487b7100000000000000000000000000000000000000000000000000000000600052604160045260246000fd5b613e0b82613d04565b810181811067ffffffffffffffff82111715613e2a57613e29613dd3565b5b80604052505050565b6000613e3d613988565b9050613e498282613e02565b919050565b600067ffffffffffffffff821115613e6957613e68613dd3565b5b602082029050602081019050919050565b6000613e8d613e8884613e4e565b613e33565b90508083825260208201905060208402830185811115613eb057613eaf6139dc565b5b835b81811015613ed95780613ec58882613acd565b845260208401935050602081019050613eb2565b5050509392505050565b600082601f830112613ef857613ef76139d2565b5b8135613f08848260208601613e7a565b91505092915050565b60008083601f840112613f2757613f266139d2565b5b8235905067ffffffffffffffff811115613f4457613f436139d7565b5b602083019150836020820283011115613f6057613f5f6139dc565b5b9250929050565b600080600060408486031215613f8057613f7f613992565b5b600084013567ffffffffffffffff811115613f9e57613f9d613997565b5b613faa86828701613ee3565b935050602084013567ffffffffffffffff811115613fcb57613fca613997565b5b613fd786828701613f11565b92509250509250925092565b600081519050919050565b600082825260208201905092915050565b6000819050602082019050919050565b61401881613954565b82525050565b600061402a838361400f565b60208301905092915050565b6000602082019050919050565b600061404e82613fe3565b6140588185613fee565b935061406383613fff565b8060005b8381101561409457815161407b888261401e565b975061408683614036565b925050600181019050614067565b5085935050505092915050565b600060208201905081810360008301526140bb8184614043565b905092915050565b60008115159050919050565b6140d8816140c3565b82525050565b60006020820190506140f360008301846140cf565b92915050565b60008083601f84011261410f5761410e6139d2565b5b8235905067ffffffffffffffff81111561412c5761412b6139d7565b5b602083019150836001820283011115614148576141476139dc565b5b9250929050565b60008083601f840112614165576141646139d2565b5b8235905067ffffffffffffffff811115614182576141816139d7565b5b60208301915083602082028301111561419e5761419d6139dc565b5b9250929050565b60008060008060008060008060a0898b0312156141c5576141c4613992565b5b60006141d38b828c016139bd565b985050602089013567ffffffffffffffff8111156141f4576141f3613997565b5b6142008b828c016140f9565b9750975050604089013567ffffffffffffffff81111561422357614222613997565b5b61422f8b828c0161414f565b9550955050606089013567ffffffffffffffff81111561425257614251613997565b5b61425e8b828c0161414f565b935093505060806142718b828c016139bd565b9150509295985092959890939650565b60008060006040848603121561429a57614299613992565b5b60006142a886828701613acd565b935050602084013567ffffffffffffffff8111156142c9576142c8613997565b5b6142d5868287016139e1565b92509250509250925092565b60006020820190506142f66000830184613d4e565b92915050565b60006020828403121561431257614311613992565b5b600061432084828501613acd565b91505092915050565b60008060008060006080868803121561434557614344613992565b5b600061435388828901613acd565b955050602086013567ffffffffffffffff81111561437457614373613997565b5b614380888289016139e1565b9450945050604061439388828901613a4e565b92505060606143a488828901613a4e565b9150509295509295909350565b600081519050919050565b600082825260208201905092915050565b6000819050602082019050919050565b6143e681613abb565b82525050565b600082825260208201905092915050565b600061440882613cb5565b61441281856143ec565b9350614422818560208601613cd1565b61442b81613d04565b840191505092915050565b600060e08301600083015161444e60008601826143dd565b50602083015161446160208601826143dd565b506040830151614474604086018261400f565b506060830151614487606086018261400f565b50608083015161449a608086018261400f565b5060a083015184820360a08601526144b282826143fd565b91505060c083015184820360c08601526144cc82826143fd565b9150508091505092915050565b60006144e58383614436565b905092915050565b6000602082019050919050565b6000614505826143b1565b61450f81856143bc565b935083602082028501614521856143cd565b8060005b8581101561455d578484038952815161453e85826144d9565b9450614549836144ed565b925060208a01995050600181019050614525565b50829750879550505050505092915050565b6000602082019050818103600083015261458981846144fa565b905092915050565b6000806000606084860312156145aa576145a9613992565b5b60006145b8868287016139bd565b93505060206145c986828701613acd565b92505060406145da86828701613a4e565b9150509250925092565b6145ed81613bf5565b82525050565b600060208201905061460860008301846145e4565b92915050565b6000806020838503121561462557614624613992565b5b600083013567ffffffffffffffff81111561464357614642613997565b5b61464f858286016139e1565b92509250509250929050565b60008060008060008060c0878903121561467857614677613992565b5b600061468689828a01613acd565b965050602061469789828a01613acd565b95505060406146a889828a01613acd565b94505060606146b989828a01613acd565b93505060806146ca89828a01613acd565b92505060a06146db89828a01613acd565b9150509295509295509295565b7f4272696467654f75743a70617573656400000000000000000000000000000000600082015250565b600061471e601083613cc0565b9150614729826146e8565b602082019050919050565b6000602082019050818103600083015261474d81614711565b9050919050565b7f6e6f207065726d697373696f6e00000000000000000000000000000000000000600082015250565b600061478a600d83613cc0565b915061479582614754565b602082019050919050565b600060208201905081810360008301526147b98161477d565b9050919050565b7f737761702070616972206e6f7420666f756e6400000000000000000000000000600082015250565b60006147f6601383613cc0565b9150614801826147c0565b602082019050919050565b60006020820190508181036000830152614825816147e9565b9050919050565b7f696e76616c696420616d6f756e74000000000000000000000000000000000000600082015250565b6000614862600e83613cc0565b915061486d8261482c565b602082019050919050565b6000602082019050818103600083015261489181614855565b9050919050565b60006060820190506148ad6000830186613d4e565b6148ba6020830185613d5d565b6148c7604083018461395e565b949350505050565b600082825260208201905092915050565b82818337600083830152505050565b60006148fb83856148cf565b93506149088385846148e0565b61491183613d04565b840190509392505050565b61492581613954565b82525050565b61493481613abb565b82525050565b600060608201905081810360008301526149558186886148ef565b9050614964602083018561491c565b614971604083018461492b565b95945050505050565b600081519050614989816139a6565b92915050565b6000602082840312156149a5576149a4613992565b5b60006149b38482850161497a565b91505092915050565b6149c58161399c565b82525050565b60006080820190506149e060008301876149bc565b6149ed602083018661492b565b6149fa604083018561491c565b614a0760608301846149bc565b95945050505050565b7f616c726561647920636c61696d65640000000000000000000000000000000000600082015250565b6000614a46600f83613cc0565b9150614a5182614a10565b602082019050919050565b60006020820190508181036000830152614a7581614a39565b9050919050565b7f6465706f736974206e6f7420656e6f7567680000000000000000000000000000600082015250565b6000614ab2601283613cc0565b9150614abd82614a7c565b602082019050919050565b60006020820190508181036000830152614ae181614aa5565b9050919050565b600081905092915050565b50565b6000614b03600083614ae8565b9150614b0e82614af3565b600082019050919050565b6000614b2482614af6565b9150819050919050565b7f6661696c65640000000000000000000000000000000000000000000000000000600082015250565b6000614b64600683613cc0565b9150614b6f82614b2e565b602082019050919050565b60006020820190508181036000830152614b9381614b57565b9050919050565b6000606082019050614baf6000830186613d5d565b614bbc6020830185613d5d565b614bc9604083018461395e565b949350505050565b7f4e487b7100000000000000000000000000000000000000000000000000000000600052602260045260246000fd5b60006002820490506001821680614c1857607f821691505b60208210811415614c2c57614c2b614bd1565b5b50919050565b60008190508160005260206000209050919050565b60008154614c5481614c00565b614c5e81866148cf565b94506001821660008114614c795760018114614c8b57614cbe565b60ff1983168652602086019350614cbe565b614c9485614c32565b60005b83811015614cb657815481890152600182019150602081019050614c97565b808801955050505b50505092915050565b6000604082019050614cdc600083018561492b565b8181036020830152614cee8184614c47565b90509392505050565b6000604082019050614d0c6000830185613d4e565b614d196020830184613d5d565b9392505050565b614d29816140c3565b8114614d3457600080fd5b50565b600081519050614d4681614d20565b92915050565b600060208284031215614d6257614d61613992565b5b6000614d7084828501614d37565b91505092915050565b7f696e76616c696420696e70757400000000000000000000000000000000000000600082015250565b6000614daf600d83613cc0565b9150614dba82614d79565b602082019050919050565b60006020820190508181036000830152614dde81614da2565b9050919050565b7f746f6b656e206c69737420657863656564000000000000000000000000000000600082015250565b6000614e1b601183613cc0565b9150614e2682614de5565b602082019050919050565b60006020820190508181036000830152614e4a81614e0e565b9050919050565b600080fd5b600080fd5b600080fd5b60008083356001602003843603038112614e7d57614e7c614e51565b5b80840192508235915067ffffffffffffffff821115614e9f57614e9e614e56565b5b602083019250600182023603831315614ebb57614eba614e5b565b5b509250929050565b6000604082019050614ed8600083018661492b565b8181036020830152614eeb8184866148ef565b9050949350505050565b7f74617267657420746f6b656e20616c7265616479206578697374000000000000600082015250565b6000614f2b601a83613cc0565b9150614f3682614ef5565b602082019050919050565b60006020820190508181036000830152614f5a81614f1e565b9050919050565b6000604082019050614f766000830185613d4e565b614f83602083018461395e565b9392505050565b6000614f968385614ae8565b9350614fa38385846148e0565b82840190509392505050565b6000614fbc828486614f8a565b91508190509392505050565b600067ffffffffffffffff82169050919050565b614fe581614fc8565b8114614ff057600080fd5b50565b60008135905061500281614fdc565b92915050565b60006020828403121561501e5761501d613992565b5b600061502c84828501614ff3565b91505092915050565b7f696e76616c6964207377617020726174696f0000000000000000000000000000600082015250565b600061506b601283613cc0565b915061507682615035565b602082019050919050565b6000602082019050818103600083015261509a8161505e565b9050919050565b600080fd5b600080fd5b600080fd5b600067ffffffffffffffff8211156150cb576150ca613dd3565b5b6150d482613d04565b9050602081019050919050565b60006150f46150ef846150b0565b613e33565b9050828152602081018484840111156151105761510f6150ab565b5b61511b8482856148e0565b509392505050565b600082601f830112615138576151376139d2565b5b81356151488482602086016150e1565b91505092915050565b600060808284031215615167576151666150a1565b5b6151716080613e33565b9050600061518184828501613acd565b600083015250602082013567ffffffffffffffff8111156151a5576151a46150a6565b5b6151b184828501615123565b60208301525060406151c584828501614ff3565b60408301525060606151d984828501614ff3565b60608301525092915050565b60006151f13683615151565b9050919050565b60006152048385613cc0565b93506152118385846148e0565b61521a83613d04565b840190509392505050565b600060608201905061523a6000830187613d4e565b6152476020830186613d5d565b818103604083015261525a8184866151f8565b905095945050505050565b7f4272696467654f75743a6f6e6c7920666f722057616c6c65742063616c6c0000600082015250565b600061529b601e83613cc0565b91506152a682615265565b602082019050919050565b600060208201905081810360008301526152ca8161528e565b9050919050565b7f496e76616c696420696e7075742e000000000000000000000000000000000000600082015250565b6000615307600e83613cc0565b9150615312826152d1565b602082019050919050565b60006020820190508181036000830152615336816152fa565b9050919050565b7f4e487b7100000000000000000000000000000000000000000000000000000000600052603260045260246000fd5b7f4e487b7100000000000000000000000000000000000000000000000000000000600052601160045260246000fd5b60006153a682613954565b91507fffffffffffffffffffffffffffffffffffffffffffffffffffffffffffffffff8214156153d9576153d861536c565b5b600182019050919050565b600082825260208201905092915050565b600061540183856153e4565b935061540e8385846148e0565b61541783613d04565b840190509392505050565b600082825260208201905092915050565b600080fd5b60006154448385615422565b93507f07ffffffffffffffffffffffffffffffffffffffffffffffffffffffffffffff83111561547757615476615433565b5b6020830292506154888385846148e0565b82840190509392505050565b600060c0820190506154a9600083018c6149bc565b81810360208301526154bc818a8c6153f5565b905081810360408301526154d181888a615438565b905081810360608301526154e6818688615438565b90506154f560808301856149bc565b61550260a083018461492b565b9a9950505050505050505050565b60008151905061551f81613c02565b92915050565b60006020828403121561553b5761553a613992565b5b600061554984828501615510565b91505092915050565b61555b81613bf5565b82525050565b60006060820190506155766000830187615552565b6155836020830186615552565b81810360408301526155968184866153f5565b905095945050505050565b6000815190506155b081613a37565b92915050565b600080604083850312156155cd576155cc613992565b5b60006155db858286016155a1565b92505060206155ec8582860161497a565b9150509250929050565b7f616c7265616479207265636f7264656400000000000000000000000000000000600082015250565b600061562c601083613cc0565b9150615637826155f6565b602082019050919050565b6000602082019050818103600083015261565b8161561f565b9050919050565b600081519050919050565b600082825260208201905092915050565b6000819050602082019050919050565b6156978161399c565b82525050565b60006156a9838361568e565b60208301905092915050565b6000602082019050919050565b60006156cd82615662565b6156d7818561566d565b93506156e28361567e565b8060005b838110156157135781516156fa888261569d565b9750615705836156b5565b9250506001810190506156e6565b5085935050505092915050565b60006040820190506157356000830185613d4e565b818103602083015261574781846156c2565b90509392505050565b60006020828403121561576657615765613992565b5b6000615774848285016155a1565b91505092915050565b60006080820190506157926000830187613d4e565b61579f6020830186613d5d565b6157ac604083018561395e565b6157b96060830184613d4e565b95945050505050565b7f696e76616c6964206c696d697465722061646472657373000000000000000000600082015250565b60006157f8601783613cc0565b9150615803826157c2565b602082019050919050565b60006020820190508181036000830152615827816157eb565b9050919050565b7f496e76616c696420696e70757400000000000000000000000000000000000000600082015250565b6000615864600d83613cc0565b915061586f8261582e565b602082019050919050565b6000602082019050818103600083015261589381615857565b9050919050565b7f51756572792072616e6765206973206578636565646564000000000000000000600082015250565b60006158d0601783613cc0565b91506158db8261589a565b602082019050919050565b600060208201905081810360008301526158ff816158c3565b9050919050565b600081905092915050565b600061591d8385615906565b935061592a8385846148e0565b82840190509392505050565b6000615943828486615911565b91508190509392505050565b7f616c726561647920696e697469616c697a656400000000000000000000000000600082015250565b6000615985601383613cc0565b91506159908261594f565b602082019050919050565b600060208201905081810360008301526159b481615978565b9050919050565b7f4f776e61626c653a206e6577206f776e657220697320746865207a65726f206160008201527f6464726573730000000000000000000000000000000000000000000000000000602082015250565b6000615a17602683613cc0565b9150615a22826159bb565b604082019050919050565b60006020820190508181036000830152615a4681615a0a565b9050919050565b6000615a5882613954565b9150615a6383613954565b9250817fffffffffffffffffffffffffffffffffffffffffffffffffffffffffffffffff0483118215151615615a9c57615a9b61536c565b5b828202905092915050565b7f4e487b7100000000000000000000000000000000000000000000000000000000600052601260045260246000fd5b6000615ae182613954565b9150615aec83613954565b925082615afc57615afb615aa7565b5b828204905092915050565b6000615b1282613954565b9150615b1d83613954565b925082821015615b3057615b2f61536c565b5b828203905092915050565b6000604082019050615b506000830185613d5d565b615b5d602083018461395e565b9392505050565b6000615b6f82613954565b9150615b7a83613954565b9250827fffffffffffffffffffffffffffffffffffffffffffffffffffffffffffffffff03821115615baf57615bae61536c565b5b828201905092915050565b7f4f776e61626c653a2063616c6c6572206973206e6f7420746865206f776e6572600082015250565b6000615bf0602083613cc0565b9150615bfb82615bba565b602082019050919050565b60006020820190508181036000830152615c1f81615be3565b9050919050565b7f74617267657420746f6b656e206e6f7420657869737400000000000000000000600082015250565b6000615c5c601683613cc0565b9150615c6782615c26565b602082019050919050565b60006020820190508181036000830152615c8b81615c4f565b9050919050565b7f696e76616c696420746f6b656e00000000000000000000000000000000000000600082015250565b6000615cc8600d83613cc0565b9150615cd382615c92565b602082019050919050565b60006020820190508181036000830152615cf781615cbb565b9050919050565b7f5361666545524332303a204552433230206f7065726174696f6e20646964206e60008201527f6f74207375636365656400000000000000000000000000000000000000000000602082015250565b6000615d5a602a83613cc0565b9150615d6582615cfe565b604082019050919050565b60006020820190508181036000830152615d8981615d4d565b9050919050565b7f416464726573733a20696e73756666696369656e742062616c616e636520666f60008201527f722063616c6c0000000000000000000000000000000000000000000000000000602082015250565b6000615dec602683613cc0565b9150615df782615d90565b604082019050919050565b60006020820190508181036000830152615e1b81615ddf565b9050919050565b600081519050919050565b6000615e3882615e22565b615e428185614ae8565b9350615e52818560208601613cd1565b80840191505092915050565b6000615e6a8284615e2d565b915081905092915050565b7f416464726573733a2063616c6c20746f206e6f6e2d636f6e7472616374000000600082015250565b6000615eab601d83613cc0565b9150615eb682615e75565b602082019050919050565b60006020820190508181036000830152615eda81615e9e565b9050919050565b60006020820190508181036000830152615efb8184613d15565b90509291505056fea26474726f6e58221220e5570d7abb100c5d6d1192890be5025c4a2ac76059fa99729bd78d54961c997864736f6c634300080b0033",
  "deployedBytecode": "0x608060405234801561001057600080fd5b50d3801561001d57600080fd5b50d2801561002a57600080fd5b506004361061022b5760003560e01c80637a29084c1161013f578063a82f2e26116100c7578063cc2a9a5b11610096578063cc2a9a5b146105e5578063d954863c14610601578063f2fde38b1461061d578063f8c9596e14610639578063fff2ee7a146106575761022b565b8063a82f2e2614610571578063b187bd261461058f578063b67b7163146105ad578063c6d62982146105c95761022b565b80638da5cb5b1161010e5780638da5cb5b146104cd57806394bd77d8146104eb5780639d76ea5814610507578063a6c5fcc014610525578063a6fb97d1146105555761022b565b80637a29084c146104595780638256ce4d146104755780638456cb59146104935780638a0bb6f91461049d5761022b565b80632ec98edd116101c25780634c038c45116101915780634c038c45146103b557806368591baa146103e5578063715018a61461040157806371d0c5ca1461040b57806374b87f671461043b5761022b565b80632ec98edd1461032b57806337ce7549146103495780633f19efbe146103675780634b8feb4f146103975761022b565b8063166d8752116101fe578063166d8752146102a25780631ef3755d146102be5780632c3daef6146102c85780632d0fc6b4146102f85761022b565b806301be7b9e1461023057806303b1ccdb1461024e5780630dd59d451461026a57806315e2bd9814610286575b600080fd5b610238610675565b604051610245919061396d565b60405180910390f35b61026860048036038101906102639190613aed565b61067b565b005b610284600480360381019061027f9190613b99565b6112e0565b005b6102a0600480360381019061029b9190613c2e565b611884565b005b6102bc60048036038101906102b79190613c5b565b611978565b005b6102c6611a62565b005b6102e260048036038101906102dd9190613c88565b611b0f565b6040516102ef919061396d565b60405180910390f35b610312600480360381019061030d9190613c88565b611b2c565b6040516103229493929190613d6c565b60405180910390f35b610333611c4c565b6040516103409190613db8565b60405180910390f35b610351611c72565b60405161035e919061396d565b60405180910390f35b610381600480360381019061037c9190613f67565b611c77565b60405161038e91906140a1565b60405180910390f35b61039f611e29565b6040516103ac9190613db8565b60405180910390f35b6103cf60048036038101906103ca9190613c88565b611e4f565b6040516103dc91906140de565b60405180910390f35b6103ff60048036038101906103fa91906141a5565b611e71565b005b6104096121b8565b005b61042560048036038101906104209190614281565b6121cc565b60405161043291906142e1565b60405180910390f35b61044361226b565b6040516104509190613db8565b60405180910390f35b610473600480360381019061046e91906142fc565b612291565b005b61047d61242f565b60405161048a9190613db8565b60405180910390f35b61049b612455565b005b6104b760048036038101906104b29190614329565b612502565b6040516104c4919061456f565b60405180910390f35b6104d5612921565b6040516104e29190613db8565b60405180910390f35b610505600480360381019061050091906142fc565b61294a565b005b61050f612a06565b60405161051c9190613db8565b60405180910390f35b61053f600480360381019061053a91906142fc565b612a2c565b60405161054c919061396d565b60405180910390f35b61056f600480360381019061056a9190614591565b612a44565b005b610579612b64565b60405161058691906145f3565b60405180910390f35b610597612b77565b6040516105a491906140de565b60405180910390f35b6105c760048036038101906105c2919061460e565b612b8a565b005b6105e360048036038101906105de91906142fc565b612c57565b005b6105ff60048036038101906105fa919061465b565b612d9b565b005b61061b60048036038101906106169190614591565b612fc2565b005b610637600480360381019061063291906142fc565b613054565b005b6106416130d8565b60405161064e9190613db8565b60405180910390f35b61065f6130fe565b60405161066c919061396d565b60405180910390f35b60055481565b600660009054906101000a900460ff16156106cb576040517f08c379a00000000000000000000000000000000000000000000000000000000081526004016106c290614734565b60405180910390fd5b8073ffffffffffffffffffffffffffffffffffffffff163373ffffffffffffffffffffffffffffffffffffffff1614610739576040517f08c379a0000000000000000000000000000000000000000000000000000000008152600401610730906147a0565b60405180910390fd5b6000600b60008781526020019081526020016000206002015490506000801b81141561079a576040517f08c379a00000000000000000000000000000000000000000000000000000000081526004016107919061480c565b60405180910390fd5b600083116107dd576040517f08c379a00000000000000000000000000000000000000000000000000000000081526004016107d490614878565b60405180910390fd5b6000600b6000888152602001908152602001600020905060006108658260030160020160009054906101000a900467ffffffffffffffff1667ffffffffffffffff166108578460030160020160089054906101000a900467ffffffffffffffff1667ffffffffffffffff168861310390919063ffffffff16565b61311990919063ffffffff16565b9050601360009054906101000a900473ffffffffffffffffffffffffffffffffffffffff1673ffffffffffffffffffffffffffffffffffffffff166331980b8489600660019054906101000a900473ffffffffffffffffffffffffffffffffffffffff16846040518463ffffffff1660e01b81526004016108e893929190614898565b600060405180830381600087803b15801561090257600080fd5b505af1158015610916573d6000803e3d6000fd5b50505050601360009054906101000a900473ffffffffffffffffffffffffffffffffffffffff1673ffffffffffffffffffffffffffffffffffffffff166370a5348989600660019054906101000a900473ffffffffffffffffffffffffffffffffffffffff16846040518463ffffffff1660e01b815260040161099b93929190614898565b600060405180830381600087803b1580156109b557600080fd5b505af11580156109c9573d6000803e3d6000fd5b50505050600073__$540f7dee2e18b9f92ba0e182056c79bb36$__63cb2b48a5898989896040518563ffffffff1660e01b8152600401610a0c949392919061493a565b602060405180830381865af4158015610a29573d6000803e3d6000fd5b505050506040513d601f19601f82011682018060405250810190610a4d919061498f565b90506000610a7b6001600d60008581526020019081526020016000206001015461312f90919063ffffffff16565b905073__$540f7dee2e18b9f92ba0e182056c79bb36$__630521317b86600260009054906101000a900473ffffffffffffffffffffffffffffffffffffffff1684866040518563ffffffff1660e01b8152600401610adc94939291906149cb565b60006040518083038186803b158015610af457600080fd5b505af4158015610b08573d6000803e3d6000fd5b505050506000600d60008481526020019081526020016000209050600073ffffffffffffffffffffffffffffffffffffffff168160000160009054906101000a900473ffffffffffffffffffffffffffffffffffffffff1673ffffffffffffffffffffffffffffffffffffffff1614610bb6576040517f08c379a0000000000000000000000000000000000000000000000000000000008152600401610bad90614a5c565b60405180910390fd5b868160000160006101000a81548173ffffffffffffffffffffffffffffffffffffffff021916908373ffffffffffffffffffffffffffffffffffffffff160217905550601260008c815260200190815260200160002054841115610c4f576040517f08c379a0000000000000000000000000000000000000000000000000000000008152600401610c4690614ac8565b60405180910390fd5b610c7584601260008e81526020019081526020016000205461312f90919063ffffffff16565b601260008d815260200190815260200160002081905550600660019054906101000a900473ffffffffffffffffffffffffffffffffffffffff1673ffffffffffffffffffffffffffffffffffffffff168560030160000160009054906101000a900473ffffffffffffffffffffffffffffffffffffffff1673ffffffffffffffffffffffffffffffffffffffff161415610e4857600660019054906101000a900473ffffffffffffffffffffffffffffffffffffffff1673ffffffffffffffffffffffffffffffffffffffff16632e1a7d4d856040518263ffffffff1660e01b8152600401610d64919061396d565b600060405180830381600087803b158015610d7e57600080fd5b505af1158015610d92573d6000803e3d6000fd5b5050505060008773ffffffffffffffffffffffffffffffffffffffff1685604051610dbc90614b19565b60006040518083038185875af1925050503d8060008114610df9576040519150601f19603f3d011682016040523d82523d6000602084013e610dfe565b606091505b5050905080610e42576040517f08c379a0000000000000000000000000000000000000000000000000000000008152600401610e3990614b7a565b60405180910390fd5b50610e9b565b610e9a87858760030160000160009054906101000a900473ffffffffffffffffffffffffffffffffffffffff1673ffffffffffffffffffffffffffffffffffffffff166131459092919063ffffffff16565b5b838160020160008760030160000160009054906101000a900473ffffffffffffffffffffffffffffffffffffffff1673ffffffffffffffffffffffffffffffffffffffff1673ffffffffffffffffffffffffffffffffffffffff168152602001908152602001600020819055507fb0c1e4d18ea737b756410ab0296768c15a87c12eeb368f360ecc5be61a11b4db878660030160000160009054906101000a900473ffffffffffffffffffffffffffffffffffffffff1686604051610f6293929190614b9a565b60405180910390a1600073__$540f7dee2e18b9f92ba0e182056c79bb36$__63629ef33b8760030160000160009054906101000a900473ffffffffffffffffffffffffffffffffffffffff16886003016001016040518363ffffffff1660e01b8152600401610fd2929190614cc7565b602060405180830381865af4158015610fef573d6000803e3d6000fd5b505050506040513d601f19601f82011682018060405250810190611013919061498f565b905061103c6001600f6000848152602001908152602001600020546131cb90919063ffffffff16565b600f6000838152602001908152602001600020819055506000600f60008381526020019081526020016000205490506040518060e001604052808860030160000160009054906101000a900473ffffffffffffffffffffffffffffffffffffffff1673ffffffffffffffffffffffffffffffffffffffff1681526020018a73ffffffffffffffffffffffffffffffffffffffff1681526020018b81526020014381526020014281526020018860030160010180546110f990614c00565b80601f016020809104026020016040519081016040528092919081815260200182805461112590614c00565b80156111725780601f1061114757610100808354040283529160200191611172565b820191906000526020600020905b81548152906001019060200180831161115557829003601f168201915b505050505081526020018d8d8080601f016020809104026020016040519081016040528093929190818152602001838380828437600081840152601f19601f82011690508083019250505050505050815250600e6000848152602001908152602001600020600083815260200190815260200160002060008201518160000160006101000a81548173ffffffffffffffffffffffffffffffffffffffff021916908373ffffffffffffffffffffffffffffffffffffffff16021790555060208201518160010160006101000a81548173ffffffffffffffffffffffffffffffffffffffff021916908373ffffffffffffffffffffffffffffffffffffffff16021790555060408201518160020155606082015181600301556080820151816004015560a08201518160050190805190602001906112b0929190613848565b5060c08201518160060190805190602001906112cd929190613848565b5090505050505050505050505050505050565b600360009054906101000a900473ffffffffffffffffffffffffffffffffffffffff1673ffffffffffffffffffffffffffffffffffffffff16639a96679e82336040518363ffffffff1660e01b815260040161133d929190614cf7565b602060405180830381865afa15801561135a573d6000803e3d6000fd5b505050506040513d601f19601f8201168201806040525081019061137e9190614d4c565b6113bd576040517f08c379a00000000000000000000000000000000000000000000000000000000081526004016113b4906147a0565b60405180910390fd5b600073ffffffffffffffffffffffffffffffffffffffff168260000160208101906113e891906142fc565b73ffffffffffffffffffffffffffffffffffffffff16141561143f576040517f08c379a000000000000000000000000000000000000000000000000000000000815260040161143690614dc5565b60405180910390fd5b60c861144b60096131e1565b1061148b576040517f08c379a000000000000000000000000000000000000000000000000000000000815260040161148290614e31565b60405180910390fd5b600073__$540f7dee2e18b9f92ba0e182056c79bb36$__63629ef33b8460000160208101906114ba91906142fc565b8580602001906114ca9190614e60565b6040518463ffffffff1660e01b81526004016114e893929190614ec3565b602060405180830381865af4158015611505573d6000803e3d6000fd5b505050506040513d601f19601f82011682018060405250810190611529919061498f565b905061153f8160096131f690919063ffffffff16565b1561157f576040517f08c379a000000000000000000000000000000000000000000000000000000000815260040161157690614f41565b60405180910390fd5b6000600260009054906101000a900473ffffffffffffffffffffffffffffffffffffffff1673ffffffffffffffffffffffffffffffffffffffff16632a99732a846005546040518363ffffffff1660e01b81526004016115e0929190614f61565b6020604051808303816000875af11580156115ff573d6000803e3d6000fd5b505050506040513d601f19601f82011682018060405250810190611623919061498f565b905060008036604051611637929190614faf565b6040518091039020905060008560400160208101906116569190615008565b67ffffffffffffffff161180156116895750600085606001602081019061167d9190615008565b67ffffffffffffffff16115b6116c8576040517f08c379a00000000000000000000000000000000000000000000000000000000081526004016116bf90615081565b60405180910390fd5b6040518060800160405280828152602001858152602001838152602001866116ef906151e5565b815250600b600083815260200190815260200160002060008201518160000155602082015181600101556040820151816002015560608201518160030160008201518160000160006101000a81548173ffffffffffffffffffffffffffffffffffffffff021916908373ffffffffffffffffffffffffffffffffffffffff160217905550602082015181600101908051906020019061178f929190613848565b5060408201518160020160006101000a81548167ffffffffffffffff021916908367ffffffffffffffff16021790555060608201518160020160086101000a81548167ffffffffffffffff021916908367ffffffffffffffff160217905550505090505061180783600961320d90919063ffffffff16565b5080600c6000858152602001908152602001600020819055507f909c724b9d08d0463115fc7fa6d2c8e51e6eafa867725be497bdb9a53a6cac4f8186600001602081019061185591906142fc565b8780602001906118659190614e60565b6040516118759493929190615225565b60405180910390a15050505050565b600860009054906101000a900473ffffffffffffffffffffffffffffffffffffffff1673ffffffffffffffffffffffffffffffffffffffff163373ffffffffffffffffffffffffffffffffffffffff1614611914576040517f08c379a000000000000000000000000000000000000000000000000000000000815260040161190b906152b1565b60405180910390fd5b60008160ff161161195a576040517f08c379a00000000000000000000000000000000000000000000000000000000081526004016119519061531d565b60405180910390fd5b80601360146101000a81548160ff021916908360ff16021790555050565b600860009054906101000a900473ffffffffffffffffffffffffffffffffffffffff1673ffffffffffffffffffffffffffffffffffffffff163373ffffffffffffffffffffffffffffffffffffffff1614611a08576040517f08c379a00000000000000000000000000000000000000000000000000000000081526004016119ff906152b1565b60405180910390fd5b600081118015611a19575060148111155b611a58576040517f08c379a0000000000000000000000000000000000000000000000000000000008152600401611a4f90614dc5565b60405180910390fd5b8060058190555050565b600460009054906101000a900473ffffffffffffffffffffffffffffffffffffffff1673ffffffffffffffffffffffffffffffffffffffff163373ffffffffffffffffffffffffffffffffffffffff1614611af2576040517f08c379a0000000000000000000000000000000000000000000000000000000008152600401611ae9906147a0565b60405180910390fd5b6000600660006101000a81548160ff021916908315150217905550565b600060126000838152602001908152602001600020549050919050565b60606000806000600b60008681526020019081526020016000206003016001018054611b5790614c00565b80601f0160208091040260200160405190810160405280929190818152602001828054611b8390614c00565b8015611bd05780601f10611ba557610100808354040283529160200191611bd0565b820191906000526020600020905b815481529060010190602001808311611bb357829003601f168201915b50505050509350600b6000868152602001908152602001600020600101549250600b6000868152602001908152602001600020600201549150600b600086815260200190815260200160002060030160000160009054906101000a900473ffffffffffffffffffffffffffffffffffffffff1690509193509193565b600760009054906101000a900473ffffffffffffffffffffffffffffffffffffffff1681565b606481565b606082829050845114611cbf576040517f08c379a0000000000000000000000000000000000000000000000000000000008152600401611cb690614dc5565b60405180910390fd5b6000845167ffffffffffffffff811115611cdc57611cdb613dd3565b5b604051908082528060200260200182016040528015611d0a5781602001602082028036833780820191505090505b50905060005b8551811015611e1d57600073__$540f7dee2e18b9f92ba0e182056c79bb36$__63629ef33b888481518110611d4857611d4761533d565b5b6020026020010151888886818110611d6357611d6261533d565b5b9050602002810190611d759190614e60565b6040518463ffffffff1660e01b8152600401611d9393929190614ec3565b602060405180830381865af4158015611db0573d6000803e3d6000fd5b505050506040513d601f19601f82011682018060405250810190611dd4919061498f565b9050600f600082815260200190815260200160002054838381518110611dfd57611dfc61533d565b5b602002602001018181525050508080611e159061539b565b915050611d10565b50809150509392505050565b600860009054906101000a900473ffffffffffffffffffffffffffffffffffffffff1681565b600080600d600084815260200190815260200160002060010154119050919050565b6000600b60008a81526020019081526020016000209050600073__$540f7dee2e18b9f92ba0e182056c79bb36$__63e38556d483600101548b8b8b8b8b8b8b600360009054906101000a900473ffffffffffffffffffffffffffffffffffffffff166040518a63ffffffff1660e01b8152600401611ef799989796959493929190615494565b602060405180830381865af4158015611f14573d6000803e3d6000fd5b505050506040513d601f19601f82011682018060405250810190611f389190615525565b905060008073__$540f7dee2e18b9f92ba0e182056c79bb36$__6389ec174e84601360149054906101000a900460ff168e8e6040518563ffffffff1660e01b8152600401611f899493929190615561565b6040805180830381865af4158015611fa5573d6000803e3d6000fd5b505050506040513d601f19601f82011682018060405250810190611fc991906155b6565b915091506000600167ffffffffffffffff811115611fea57611fe9613dd3565b5b6040519080825280602002602001820160405280156120185781602001602082028036833780820191505090505b50905081816000815181106120305761202f61533d565b5b6020026020010181815250506000600d60008481526020019081526020016000206001015414612095576040517f08c379a000000000000000000000000000000000000000000000000000000000815260040161208c90615642565b60405180910390fd5b6000600260009054906101000a900473ffffffffffffffffffffffffffffffffffffffff1673ffffffffffffffffffffffffffffffffffffffff16637d9778368760020154846040518363ffffffff1660e01b81526004016120f8929190615720565b6020604051808303816000875af1158015612117573d6000803e3d6000fd5b505050506040513d601f19601f8201168201806040525081019061213b9190615750565b90506121516001826131cb90919063ffffffff16565b600d6000858152602001908152602001600020600101819055507f6319bf84e3d2c97dd1991c07818c14950ceb6f48ce6d85f063be3c60905ea1b98e3386866040516121a0949392919061577d565b60405180910390a15050505050505050505050505050565b6121c0613224565b6121ca60006132a2565b565b60008073__$540f7dee2e18b9f92ba0e182056c79bb36$__63629ef33b8686866040518463ffffffff1660e01b815260040161220a93929190614ec3565b602060405180830381865af4158015612227573d6000803e3d6000fd5b505050506040513d601f19601f8201168201806040525081019061224b919061498f565b9050600c6000828152602001908152602001600020549150509392505050565b601360009054906101000a900473ffffffffffffffffffffffffffffffffffffffff1681565b600860009054906101000a900473ffffffffffffffffffffffffffffffffffffffff1673ffffffffffffffffffffffffffffffffffffffff163373ffffffffffffffffffffffffffffffffffffffff1614612321576040517f08c379a0000000000000000000000000000000000000000000000000000000008152600401612318906152b1565b60405180910390fd5b600073ffffffffffffffffffffffffffffffffffffffff16601360009054906101000a900473ffffffffffffffffffffffffffffffffffffffff1673ffffffffffffffffffffffffffffffffffffffff161480156123ac5750600073ffffffffffffffffffffffffffffffffffffffff168173ffffffffffffffffffffffffffffffffffffffff1614155b6123eb576040517f08c379a00000000000000000000000000000000000000000000000000000000081526004016123e29061580e565b60405180910390fd5b80601360006101000a81548173ffffffffffffffffffffffffffffffffffffffff021916908373ffffffffffffffffffffffffffffffffffffffff16021790555050565b600460009054906101000a900473ffffffffffffffffffffffffffffffffffffffff1681565b600460009054906101000a900473ffffffffffffffffffffffffffffffffffffffff1673ffffffffffffffffffffffffffffffffffffffff163373ffffffffffffffffffffffffffffffffffffffff16146124e5576040517f08c379a00000000000000000000000000000000000000000000000000000000081526004016124dc906147a0565b60405180910390fd5b6001600660006101000a81548160ff021916908315150217905550565b6060600073__$540f7dee2e18b9f92ba0e182056c79bb36$__63629ef33b8888886040518463ffffffff1660e01b815260040161254193929190614ec3565b602060405180830381865af415801561255e573d6000803e3d6000fd5b505050506040513d601f19601f82011682018060405250810190612582919061498f565b9050600f60008281526020019081526020016000205483111580156125a75750600084115b6125e6576040517f08c379a00000000000000000000000000000000000000000000000000000000081526004016125dd9061587a565b60405180910390fd5b600061260e6001612600878761312f90919063ffffffff16565b6131cb90919063ffffffff16565b90506064811115612654576040517f08c379a000000000000000000000000000000000000000000000000000000000815260040161264b906158e6565b60405180910390fd5b8067ffffffffffffffff81111561266e5761266d613dd3565b5b6040519080825280602002602001820160405280156126a757816020015b6126946138ce565b81526020019060019003908161268c5790505b50925060005b8181101561291557600e600084815260200190815260200160002060006126dd88846131cb90919063ffffffff16565b81526020019081526020016000206040518060e00160405290816000820160009054906101000a900473ffffffffffffffffffffffffffffffffffffffff1673ffffffffffffffffffffffffffffffffffffffff1673ffffffffffffffffffffffffffffffffffffffff1681526020016001820160009054906101000a900473ffffffffffffffffffffffffffffffffffffffff1673ffffffffffffffffffffffffffffffffffffffff1673ffffffffffffffffffffffffffffffffffffffff1681526020016002820154815260200160038201548152602001600482015481526020016005820180546127d090614c00565b80601f01602080910402602001604051908101604052809291908181526020018280546127fc90614c00565b80156128495780601f1061281e57610100808354040283529160200191612849565b820191906000526020600020905b81548152906001019060200180831161282c57829003601f168201915b5050505050815260200160068201805461286290614c00565b80601f016020809104026020016040519081016040528092919081815260200182805461288e90614c00565b80156128db5780601f106128b0576101008083540402835291602001916128db565b820191906000526020600020905b8154815290600101906020018083116128be57829003601f168201915b5050505050815250508482815181106128f7576128f661533d565b5b6020026020010181905250808061290d9061539b565b9150506126ad565b50505095945050505050565b60008060009054906101000a900473ffffffffffffffffffffffffffffffffffffffff16905090565b612952613224565b600073ffffffffffffffffffffffffffffffffffffffff168173ffffffffffffffffffffffffffffffffffffffff1614156129c2576040517f08c379a00000000000000000000000000000000000000000000000000000000081526004016129b990614dc5565b60405180910390fd5b80600860006101000a81548173ffffffffffffffffffffffffffffffffffffffff021916908373ffffffffffffffffffffffffffffffffffffffff16021790555050565b600660019054906101000a900473ffffffffffffffffffffffffffffffffffffffff1681565b60116020528060005260406000206000915090505481565b600460009054906101000a900473ffffffffffffffffffffffffffffffffffffffff1673ffffffffffffffffffffffffffffffffffffffff163373ffffffffffffffffffffffffffffffffffffffff1614612ad4576040517f08c379a0000000000000000000000000000000000000000000000000000000008152600401612acb906147a0565b60405180910390fd5b612ade8284613366565b6000600c6000858152602001908152602001600020549050612b1c82601260008481526020019081526020016000205461312f90919063ffffffff16565b6012600083815260200190815260200160002081905550612b5e33838573ffffffffffffffffffffffffffffffffffffffff166131459092919063ffffffff16565b50505050565b601360149054906101000a900460ff1681565b600660009054906101000a900460ff1681565b600760009054906101000a900473ffffffffffffffffffffffffffffffffffffffff1673ffffffffffffffffffffffffffffffffffffffff163373ffffffffffffffffffffffffffffffffffffffff1614612c1a576040517f08c379a0000000000000000000000000000000000000000000000000000000008152600401612c11906147a0565b60405180910390fd5b600160108383604051612c2e929190615936565b908152602001604051809103902060006101000a81548160ff0219169083151502179055505050565b600860009054906101000a900473ffffffffffffffffffffffffffffffffffffffff1673ffffffffffffffffffffffffffffffffffffffff163373ffffffffffffffffffffffffffffffffffffffff1614612ce7576040517f08c379a0000000000000000000000000000000000000000000000000000000008152600401612cde906152b1565b60405180910390fd5b600073ffffffffffffffffffffffffffffffffffffffff168173ffffffffffffffffffffffffffffffffffffffff161415612d57576040517f08c379a0000000000000000000000000000000000000000000000000000000008152600401612d4e9061587a565b60405180910390fd5b80600760006101000a81548173ffffffffffffffffffffffffffffffffffffffff021916908373ffffffffffffffffffffffffffffffffffffffff16021790555050565b612da3613224565b600073ffffffffffffffffffffffffffffffffffffffff16600260009054906101000a900473ffffffffffffffffffffffffffffffffffffffff1673ffffffffffffffffffffffffffffffffffffffff1614612e34576040517f08c379a0000000000000000000000000000000000000000000000000000000008152600401612e2b9061599b565b60405180910390fd5b85600260006101000a81548173ffffffffffffffffffffffffffffffffffffffff021916908373ffffffffffffffffffffffffffffffffffffffff16021790555084600360006101000a81548173ffffffffffffffffffffffffffffffffffffffff021916908373ffffffffffffffffffffffffffffffffffffffff16021790555083600460006101000a81548173ffffffffffffffffffffffffffffffffffffffff021916908373ffffffffffffffffffffffffffffffffffffffff16021790555082600660016101000a81548173ffffffffffffffffffffffffffffffffffffffff021916908373ffffffffffffffffffffffffffffffffffffffff16021790555081600760006101000a81548173ffffffffffffffffffffffffffffffffffffffff021916908373ffffffffffffffffffffffffffffffffffffffff16021790555080600860006101000a81548173ffffffffffffffffffffffffffffffffffffffff021916908373ffffffffffffffffffffffffffffffffffffffff160217905550505050505050565b612fcc8284613366565b612ff93330838573ffffffffffffffffffffffffffffffffffffffff1661347d909392919063ffffffff16565b6000600c60008581526020019081526020016000205490506130378260126000848152602001908152602001600020546131cb90919063ffffffff16565b601260008381526020019081526020016000208190555050505050565b61305c613224565b600073ffffffffffffffffffffffffffffffffffffffff168173ffffffffffffffffffffffffffffffffffffffff1614156130cc576040517f08c379a00000000000000000000000000000000000000000000000000000000081526004016130c390615a2d565b60405180910390fd5b6130d5816132a2565b50565b600360009054906101000a900473ffffffffffffffffffffffffffffffffffffffff1681565b60c881565b600081836131119190615a4d565b905092915050565b600081836131279190615ad6565b905092915050565b6000818361313d9190615b07565b905092915050565b6131c68363a9059cbb60e01b8484604051602401613164929190615b3b565b604051602081830303815290604052907bffffffffffffffffffffffffffffffffffffffffffffffffffffffff19166020820180517bffffffffffffffffffffffffffffffffffffffffffffffffffffffff8381831617835250505050613506565b505050565b600081836131d99190615b64565b905092915050565b60006131ef826000016135ce565b9050919050565b600061320583600001836135df565b905092915050565b600061321c8360000183613602565b905092915050565b61322c613672565b73ffffffffffffffffffffffffffffffffffffffff1661324a612921565b73ffffffffffffffffffffffffffffffffffffffff16146132a0576040517f08c379a000000000000000000000000000000000000000000000000000000000815260040161329790615c06565b60405180910390fd5b565b60008060009054906101000a900473ffffffffffffffffffffffffffffffffffffffff169050816000806101000a81548173ffffffffffffffffffffffffffffffffffffffff021916908373ffffffffffffffffffffffffffffffffffffffff1602179055508173ffffffffffffffffffffffffffffffffffffffff168173ffffffffffffffffffffffffffffffffffffffff167f8be0079c531659141344cd1fd0a4f28419497f9722a3daafe3b4186f6b6457e060405160405180910390a35050565b61337a8160096131f690919063ffffffff16565b6133b9576040517f08c379a00000000000000000000000000000000000000000000000000000000081526004016133b090615c72565b60405180910390fd5b6000600c60008381526020019081526020016000205490508273ffffffffffffffffffffffffffffffffffffffff16600b600083815260200190815260200160002060030160000160009054906101000a900473ffffffffffffffffffffffffffffffffffffffff1673ffffffffffffffffffffffffffffffffffffffff1614613478576040517f08c379a000000000000000000000000000000000000000000000000000000000815260040161346f90615cde565b60405180910390fd5b505050565b613500846323b872dd60e01b85858560405160240161349e93929190614b9a565b604051602081830303815290604052907bffffffffffffffffffffffffffffffffffffffffffffffffffffffff19166020820180517bffffffffffffffffffffffffffffffffffffffffffffffffffffffff8381831617835250505050613506565b50505050565b6000613568826040518060400160405280602081526020017f5361666545524332303a206c6f772d6c6576656c2063616c6c206661696c65648152508573ffffffffffffffffffffffffffffffffffffffff1661367a9092919063ffffffff16565b905060008151148061358a5750808060200190518101906135899190614d4c565b5b6135c9576040517f08c379a00000000000000000000000000000000000000000000000000000000081526004016135c090615d70565b60405180910390fd5b505050565b600081600001805490509050919050565b600080836001016000848152602001908152602001600020541415905092915050565b600061360e83836135df565b61366757826000018290806001815401808255809150506001900390600052602060002001600090919091909150558260000180549050836001016000848152602001908152602001600020819055506001905061366c565b600090505b92915050565b600033905090565b60606136898484600085613692565b90509392505050565b6060824710156136d7576040517f08c379a00000000000000000000000000000000000000000000000000000000081526004016136ce90615e02565b60405180910390fd5b6000808673ffffffffffffffffffffffffffffffffffffffff1685876040516137009190615e5e565b60006040518083038185875af1925050503d806000811461373d576040519150601f19603f3d011682016040523d82523d6000602084013e613742565b606091505b50915091506137538783838761375f565b92505050949350505050565b606083156137c2576000835114156137ba5761377a856137d5565b6137b9576040517f08c379a00000000000000000000000000000000000000000000000000000000081526004016137b090615ec1565b60405180910390fd5b5b8290506137cd565b6137cc83836137f8565b5b949350505050565b6000808273ffffffffffffffffffffffffffffffffffffffff163b119050919050565b60008251111561380b5781518083602001fd5b806040517f08c379a000000000000000000000000000000000000000000000000000000000815260040161383f9190615ee1565b60405180910390fd5b82805461385490614c00565b90600052602060002090601f01602090048101928261387657600085556138bd565b82601f1061388f57805160ff19168380011785556138bd565b828001600101855582156138bd579182015b828111156138bc5782518255916020019190600101906138a1565b5b5090506138ca9190613937565b5090565b6040518060e00160405280600073ffffffffffffffffffffffffffffffffffffffff168152602001600073ffffffffffffffffffffffffffffffffffffffff16815260200160008152602001600081526020016000815260200160608152602001606081525090565b5b80821115613950576000816000905550600101613938565b5090565b6000819050919050565b61396781613954565b82525050565b6000602082019050613982600083018461395e565b92915050565b6000604051905090565b600080fd5b600080fd5b6000819050919050565b6139af8161399c565b81146139ba57600080fd5b50565b6000813590506139cc816139a6565b92915050565b600080fd5b600080fd5b600080fd5b60008083601f8401126139f7576139f66139d2565b5b8235905067ffffffffffffffff811115613a1457613a136139d7565b5b602083019150836001820283011115613a3057613a2f6139dc565b5b9250929050565b613a4081613954565b8114613a4b57600080fd5b50565b600081359050613a5d81613a37565b92915050565b600074ffffffffffffffffffffffffffffffffffffffffff82169050919050565b613a8d81613a63565b8114613a9857600080fd5b50565b600073ffffffffffffffffffffffffffffffffffffffff82169050919050565b6000613ac682613a9b565b9050919050565b600081359050613adc81613a84565b613ae581613abb565b905092915050565b600080600080600060808688031215613b0957613b08613992565b5b6000613b17888289016139bd565b955050602086013567ffffffffffffffff811115613b3857613b37613997565b5b613b44888289016139e1565b94509450506040613b5788828901613a4e565b9250506060613b6888828901613acd565b9150509295509295909350565b600080fd5b600060808284031215613b9057613b8f613b75565b5b81905092915050565b60008060408385031215613bb057613baf613992565b5b600083013567ffffffffffffffff811115613bce57613bcd613997565b5b613bda85828601613b7a565b9250506020613beb858286016139bd565b9150509250929050565b600060ff82169050919050565b613c0b81613bf5565b8114613c1657600080fd5b50565b600081359050613c2881613c02565b92915050565b600060208284031215613c4457613c43613992565b5b6000613c5284828501613c19565b91505092915050565b600060208284031215613c7157613c70613992565b5b6000613c7f84828501613a4e565b91505092915050565b600060208284031215613c9e57613c9d613992565b5b6000613cac848285016139bd565b91505092915050565b600081519050919050565b600082825260208201905092915050565b60005b83811015613cef578082015181840152602081019050613cd4565b83811115613cfe576000848401525b50505050565b6000601f19601f8301169050919050565b6000613d2082613cb5565b613d2a8185613cc0565b9350613d3a818560208601613cd1565b613d4381613d04565b840191505092915050565b613d578161399c565b82525050565b613d6681613abb565b82525050565b60006080820190508181036000830152613d868187613d15565b9050613d956020830186613d4e565b613da26040830185613d4e565b613daf6060830184613d5d565b95945050505050565b6000602082019050613dcd6000830184613d5d565b92915050565b7f4e487b7100000000000000000000000000000000000000000000000000000000600052604160045260246000fd5b613e0b82613d04565b810181811067ffffffffffffffff82111715613e2a57613e29613dd3565b5b80604052505050565b6000613e3d613988565b9050613e498282613e02565b919050565b600067ffffffffffffffff821115613e6957613e68613dd3565b5b602082029050602081019050919050565b6000613e8d613e8884613e4e565b613e33565b90508083825260208201905060208402830185811115613eb057613eaf6139dc565b5b835b81811015613ed95780613ec58882613acd565b845260208401935050602081019050613eb2565b5050509392505050565b600082601f830112613ef857613ef76139d2565b5b8135613f08848260208601613e7a565b91505092915050565b60008083601f840112613f2757613f266139d2565b5b8235905067ffffffffffffffff811115613f4457613f436139d7565b5b602083019150836020820283011115613f6057613f5f6139dc565b5b9250929050565b600080600060408486031215613f8057613f7f613992565b5b600084013567ffffffffffffffff811115613f9e57613f9d613997565b5b613faa86828701613ee3565b935050602084013567ffffffffffffffff811115613fcb57613fca613997565b5b613fd786828701613f11565b92509250509250925092565b600081519050919050565b600082825260208201905092915050565b6000819050602082019050919050565b61401881613954565b82525050565b600061402a838361400f565b60208301905092915050565b6000602082019050919050565b600061404e82613fe3565b6140588185613fee565b935061406383613fff565b8060005b8381101561409457815161407b888261401e565b975061408683614036565b925050600181019050614067565b5085935050505092915050565b600060208201905081810360008301526140bb8184614043565b905092915050565b60008115159050919050565b6140d8816140c3565b82525050565b60006020820190506140f360008301846140cf565b92915050565b60008083601f84011261410f5761410e6139d2565b5b8235905067ffffffffffffffff81111561412c5761412b6139d7565b5b602083019150836001820283011115614148576141476139dc565b5b9250929050565b60008083601f840112614165576141646139d2565b5b8235905067ffffffffffffffff811115614182576141816139d7565b5b60208301915083602082028301111561419e5761419d6139dc565b5b9250929050565b60008060008060008060008060a0898b0312156141c5576141c4613992565b5b60006141d38b828c016139bd565b985050602089013567ffffffffffffffff8111156141f4576141f3613997565b5b6142008b828c016140f9565b9750975050604089013567ffffffffffffffff81111561422357614222613997565b5b61422f8b828c0161414f565b9550955050606089013567ffffffffffffffff81111561425257614251613997565b5b61425e8b828c0161414f565b935093505060806142718b828c016139bd565b9150509295985092959890939650565b60008060006040848603121561429a57614299613992565b5b60006142a886828701613acd565b935050602084013567ffffffffffffffff8111156142c9576142c8613997565b5b6142d5868287016139e1565b92509250509250925092565b60006020820190506142f66000830184613d4e565b92915050565b60006020828403121561431257614311613992565b5b600061432084828501613acd565b91505092915050565b60008060008060006080868803121561434557614344613992565b5b600061435388828901613acd565b955050602086013567ffffffffffffffff81111561437457614373613997565b5b614380888289016139e1565b9450945050604061439388828901613a4e565b92505060606143a488828901613a4e565b9150509295509295909350565b600081519050919050565b600082825260208201905092915050565b6000819050602082019050919050565b6143e681613abb565b82525050565b600082825260208201905092915050565b600061440882613cb5565b61441281856143ec565b9350614422818560208601613cd1565b61442b81613d04565b840191505092915050565b600060e08301600083015161444e60008601826143dd565b50602083015161446160208601826143dd565b506040830151614474604086018261400f565b506060830151614487606086018261400f565b50608083015161449a608086018261400f565b5060a083015184820360a08601526144b282826143fd565b91505060c083015184820360c08601526144cc82826143fd565b9150508091505092915050565b60006144e58383614436565b905092915050565b6000602082019050919050565b6000614505826143b1565b61450f81856143bc565b935083602082028501614521856143cd565b8060005b8581101561455d578484038952815161453e85826144d9565b9450614549836144ed565b925060208a01995050600181019050614525565b50829750879550505050505092915050565b6000602082019050818103600083015261458981846144fa565b905092915050565b6000806000606084860312156145aa576145a9613992565b5b60006145b8868287016139bd565b93505060206145c986828701613acd565b92505060406145da86828701613a4e565b9150509250925092565b6145ed81613bf5565b82525050565b600060208201905061460860008301846145e4565b92915050565b6000806020838503121561462557614624613992565b5b600083013567ffffffffffffffff81111561464357614642613997565b5b61464f858286016139e1565b92509250509250929050565b60008060008060008060c0878903121561467857614677613992565b5b600061468689828a01613acd565b965050602061469789828a01613acd565b95505060406146a889828a01613acd565b94505060606146b989828a01613acd565b93505060806146ca89828a01613acd565b92505060a06146db89828a01613acd565b9150509295509295509295565b7f4272696467654f75743a70617573656400000000000000000000000000000000600082015250565b600061471e601083613cc0565b9150614729826146e8565b602082019050919050565b6000602082019050818103600083015261474d81614711565b9050919050565b7f6e6f207065726d697373696f6e00000000000000000000000000000000000000600082015250565b600061478a600d83613cc0565b915061479582614754565b602082019050919050565b600060208201905081810360008301526147b98161477d565b9050919050565b7f737761702070616972206e6f7420666f756e6400000000000000000000000000600082015250565b60006147f6601383613cc0565b9150614801826147c0565b602082019050919050565b60006020820190508181036000830152614825816147e9565b9050919050565b7f696e76616c696420616d6f756e74000000000000000000000000000000000000600082015250565b6000614862600e83613cc0565b915061486d8261482c565b602082019050919050565b6000602082019050818103600083015261489181614855565b9050919050565b60006060820190506148ad6000830186613d4e565b6148ba6020830185613d5d565b6148c7604083018461395e565b949350505050565b600082825260208201905092915050565b82818337600083830152505050565b60006148fb83856148cf565b93506149088385846148e0565b61491183613d04565b840190509392505050565b61492581613954565b82525050565b61493481613abb565b82525050565b600060608201905081810360008301526149558186886148ef565b9050614964602083018561491c565b614971604083018461492b565b95945050505050565b600081519050614989816139a6565b92915050565b6000602082840312156149a5576149a4613992565b5b60006149b38482850161497a565b91505092915050565b6149c58161399c565b82525050565b60006080820190506149e060008301876149bc565b6149ed602083018661492b565b6149fa604083018561491c565b614a0760608301846149bc565b95945050505050565b7f616c726561647920636c61696d65640000000000000000000000000000000000600082015250565b6000614a46600f83613cc0565b9150614a5182614a10565b602082019050919050565b60006020820190508181036000830152614a7581614a39565b9050919050565b7f6465706f736974206e6f7420656e6f7567680000000000000000000000000000600082015250565b6000614ab2601283613cc0565b9150614abd82614a7c565b602082019050919050565b60006020820190508181036000830152614ae181614aa5565b9050919050565b600081905092915050565b50565b6000614b03600083614ae8565b9150614b0e82614af3565b600082019050919050565b6000614b2482614af6565b9150819050919050565b7f6661696c65640000000000000000000000000000000000000000000000000000600082015250565b6000614b64600683613cc0565b9150614b6f82614b2e565b602082019050919050565b60006020820190508181036000830152614b9381614b57565b9050919050565b6000606082019050614baf6000830186613d5d565b614bbc6020830185613d5d565b614bc9604083018461395e565b949350505050565b7f4e487b7100000000000000000000000000000000000000000000000000000000600052602260045260246000fd5b60006002820490506001821680614c1857607f821691505b60208210811415614c2c57614c2b614bd1565b5b50919050565b60008190508160005260206000209050919050565b60008154614c5481614c00565b614c5e81866148cf565b94506001821660008114614c795760018114614c8b57614cbe565b60ff1983168652602086019350614cbe565b614c9485614c32565b60005b83811015614cb657815481890152600182019150602081019050614c97565b808801955050505b50505092915050565b6000604082019050614cdc600083018561492b565b8181036020830152614cee8184614c47565b90509392505050565b6000604082019050614d0c6000830185613d4e565b614d196020830184613d5d565b9392505050565b614d29816140c3565b8114614d3457600080fd5b50565b600081519050614d4681614d20565b92915050565b600060208284031215614d6257614d61613992565b5b6000614d7084828501614d37565b91505092915050565b7f696e76616c696420696e70757400000000000000000000000000000000000000600082015250565b6000614daf600d83613cc0565b9150614dba82614d79565b602082019050919050565b60006020820190508181036000830152614dde81614da2565b9050919050565b7f746f6b656e206c69737420657863656564000000000000000000000000000000600082015250565b6000614e1b601183613cc0565b9150614e2682614de5565b602082019050919050565b60006020820190508181036000830152614e4a81614e0e565b9050919050565b600080fd5b600080fd5b600080fd5b60008083356001602003843603038112614e7d57614e7c614e51565b5b80840192508235915067ffffffffffffffff821115614e9f57614e9e614e56565b5b602083019250600182023603831315614ebb57614eba614e5b565b5b509250929050565b6000604082019050614ed8600083018661492b565b8181036020830152614eeb8184866148ef565b9050949350505050565b7f74617267657420746f6b656e20616c7265616479206578697374000000000000600082015250565b6000614f2b601a83613cc0565b9150614f3682614ef5565b602082019050919050565b60006020820190508181036000830152614f5a81614f1e565b9050919050565b6000604082019050614f766000830185613d4e565b614f83602083018461395e565b9392505050565b6000614f968385614ae8565b9350614fa38385846148e0565b82840190509392505050565b6000614fbc828486614f8a565b91508190509392505050565b600067ffffffffffffffff82169050919050565b614fe581614fc8565b8114614ff057600080fd5b50565b60008135905061500281614fdc565b92915050565b60006020828403121561501e5761501d613992565b5b600061502c84828501614ff3565b91505092915050565b7f696e76616c6964207377617020726174696f0000000000000000000000000000600082015250565b600061506b601283613cc0565b915061507682615035565b602082019050919050565b6000602082019050818103600083015261509a8161505e565b9050919050565b600080fd5b600080fd5b600080fd5b600067ffffffffffffffff8211156150cb576150ca613dd3565b5b6150d482613d04565b9050602081019050919050565b60006150f46150ef846150b0565b613e33565b9050828152602081018484840111156151105761510f6150ab565b5b61511b8482856148e0565b509392505050565b600082601f830112615138576151376139d2565b5b81356151488482602086016150e1565b91505092915050565b600060808284031215615167576151666150a1565b5b6151716080613e33565b9050600061518184828501613acd565b600083015250602082013567ffffffffffffffff8111156151a5576151a46150a6565b5b6151b184828501615123565b60208301525060406151c584828501614ff3565b60408301525060606151d984828501614ff3565b60608301525092915050565b60006151f13683615151565b9050919050565b60006152048385613cc0565b93506152118385846148e0565b61521a83613d04565b840190509392505050565b600060608201905061523a6000830187613d4e565b6152476020830186613d5d565b818103604083015261525a8184866151f8565b905095945050505050565b7f4272696467654f75743a6f6e6c7920666f722057616c6c65742063616c6c0000600082015250565b600061529b601e83613cc0565b91506152a682615265565b602082019050919050565b600060208201905081810360008301526152ca8161528e565b9050919050565b7f496e76616c696420696e7075742e000000000000000000000000000000000000600082015250565b6000615307600e83613cc0565b9150615312826152d1565b602082019050919050565b60006020820190508181036000830152615336816152fa565b9050919050565b7f4e487b7100000000000000000000000000000000000000000000000000000000600052603260045260246000fd5b7f4e487b7100000000000000000000000000000000000000000000000000000000600052601160045260246000fd5b60006153a682613954565b91507fffffffffffffffffffffffffffffffffffffffffffffffffffffffffffffffff8214156153d9576153d861536c565b5b600182019050919050565b600082825260208201905092915050565b600061540183856153e4565b935061540e8385846148e0565b61541783613d04565b840190509392505050565b600082825260208201905092915050565b600080fd5b60006154448385615422565b93507f07ffffffffffffffffffffffffffffffffffffffffffffffffffffffffffffff83111561547757615476615433565b5b6020830292506154888385846148e0565b82840190509392505050565b600060c0820190506154a9600083018c6149bc565b81810360208301526154bc818a8c6153f5565b905081810360408301526154d181888a615438565b905081810360608301526154e6818688615438565b90506154f560808301856149bc565b61550260a083018461492b565b9a9950505050505050505050565b60008151905061551f81613c02565b92915050565b60006020828403121561553b5761553a613992565b5b600061554984828501615510565b91505092915050565b61555b81613bf5565b82525050565b60006060820190506155766000830187615552565b6155836020830186615552565b81810360408301526155968184866153f5565b905095945050505050565b6000815190506155b081613a37565b92915050565b600080604083850312156155cd576155cc613992565b5b60006155db858286016155a1565b92505060206155ec8582860161497a565b9150509250929050565b7f616c7265616479207265636f7264656400000000000000000000000000000000600082015250565b600061562c601083613cc0565b9150615637826155f6565b602082019050919050565b6000602082019050818103600083015261565b8161561f565b9050919050565b600081519050919050565b600082825260208201905092915050565b6000819050602082019050919050565b6156978161399c565b82525050565b60006156a9838361568e565b60208301905092915050565b6000602082019050919050565b60006156cd82615662565b6156d7818561566d565b93506156e28361567e565b8060005b838110156157135781516156fa888261569d565b9750615705836156b5565b9250506001810190506156e6565b5085935050505092915050565b60006040820190506157356000830185613d4e565b818103602083015261574781846156c2565b90509392505050565b60006020828403121561576657615765613992565b5b6000615774848285016155a1565b91505092915050565b60006080820190506157926000830187613d4e565b61579f6020830186613d5d565b6157ac604083018561395e565b6157b96060830184613d4e565b95945050505050565b7f696e76616c6964206c696d697465722061646472657373000000000000000000600082015250565b60006157f8601783613cc0565b9150615803826157c2565b602082019050919050565b60006020820190508181036000830152615827816157eb565b9050919050565b7f496e76616c696420696e70757400000000000000000000000000000000000000600082015250565b6000615864600d83613cc0565b915061586f8261582e565b602082019050919050565b6000602082019050818103600083015261589381615857565b9050919050565b7f51756572792072616e6765206973206578636565646564000000000000000000600082015250565b60006158d0601783613cc0565b91506158db8261589a565b602082019050919050565b600060208201905081810360008301526158ff816158c3565b9050919050565b600081905092915050565b600061591d8385615906565b935061592a8385846148e0565b82840190509392505050565b6000615943828486615911565b91508190509392505050565b7f616c726561647920696e697469616c697a656400000000000000000000000000600082015250565b6000615985601383613cc0565b91506159908261594f565b602082019050919050565b600060208201905081810360008301526159b481615978565b9050919050565b7f4f776e61626c653a206e6577206f776e657220697320746865207a65726f206160008201527f6464726573730000000000000000000000000000000000000000000000000000602082015250565b6000615a17602683613cc0565b9150615a22826159bb565b604082019050919050565b60006020820190508181036000830152615a4681615a0a565b9050919050565b6000615a5882613954565b9150615a6383613954565b9250817fffffffffffffffffffffffffffffffffffffffffffffffffffffffffffffffff0483118215151615615a9c57615a9b61536c565b5b828202905092915050565b7f4e487b7100000000000000000000000000000000000000000000000000000000600052601260045260246000fd5b6000615ae182613954565b9150615aec83613954565b925082615afc57615afb615aa7565b5b828204905092915050565b6000615b1282613954565b9150615b1d83613954565b925082821015615b3057615b2f61536c565b5b828203905092915050565b6000604082019050615b506000830185613d5d565b615b5d602083018461395e565b9392505050565b6000615b6f82613954565b9150615b7a83613954565b9250827fffffffffffffffffffffffffffffffffffffffffffffffffffffffffffffffff03821115615baf57615bae61536c565b5b828201905092915050565b7f4f776e61626c653a2063616c6c6572206973206e6f7420746865206f776e6572600082015250565b6000615bf0602083613cc0565b9150615bfb82615bba565b602082019050919050565b60006020820190508181036000830152615c1f81615be3565b9050919050565b7f74617267657420746f6b656e206e6f7420657869737400000000000000000000600082015250565b6000615c5c601683613cc0565b9150615c6782615c26565b602082019050919050565b60006020820190508181036000830152615c8b81615c4f565b9050919050565b7f696e76616c696420746f6b656e00000000000000000000000000000000000000600082015250565b6000615cc8600d83613cc0565b9150615cd382615c92565b602082019050919050565b60006020820190508181036000830152615cf781615cbb565b9050919050565b7f5361666545524332303a204552433230206f7065726174696f6e20646964206e60008201527f6f74207375636365656400000000000000000000000000000000000000000000602082015250565b6000615d5a602a83613cc0565b9150615d6582615cfe565b604082019050919050565b60006020820190508181036000830152615d8981615d4d565b9050919050565b7f416464726573733a20696e73756666696369656e742062616c616e636520666f60008201527f722063616c6c0000000000000000000000000000000000000000000000000000602082015250565b6000615dec602683613cc0565b9150615df782615d90565b604082019050919050565b60006020820190508181036000830152615e1b81615ddf565b9050919050565b600081519050919050565b6000615e3882615e22565b615e428185614ae8565b9350615e52818560208601613cd1565b80840191505092915050565b6000615e6a8284615e2d565b915081905092915050565b7f416464726573733a2063616c6c20746f206e6f6e2d636f6e7472616374000000600082015250565b6000615eab601d83613cc0565b9150615eb682615e75565b602082019050919050565b60006020820190508181036000830152615eda81615e9e565b9050919050565b60006020820190508181036000830152615efb8184613d15565b90509291505056fea26474726f6e58221220e5570d7abb100c5d6d1192890be5025c4a2ac76059fa99729bd78d54961c997864736f6c634300080b0033",
  "source": "// SPDX-License-Identifier: MIT\nimport \"./interfaces/MerkleTreeInterface.sol\";\nimport \"./interfaces/RegimentInterface.sol\";\nimport \"./interfaces/NativeTokenInterface.sol\";\nimport \"@openzeppelin/contracts/utils/math/SafeMath.sol\";\nimport \"@openzeppelin/contracts/utils/Strings.sol\";\nimport \"@openzeppelin/contracts/utils/structs/EnumerableSet.sol\";\nimport \"@openzeppelin/contracts/token/ERC20/IERC20.sol\";\nimport \"@openzeppelin/contracts/token/ERC20/utils/SafeERC20.sol\";\nimport \"@openzeppelin/contracts/utils/cryptography/ECDSA.sol\";\nimport \"./Proxy.sol\";\nimport \"./libraries/BridgeOutLibrary.sol\";\nimport \"./interfaces/LimiterInterface.sol\";\n\npragma solidity ^0.8.11;\n\ncontract BridgeOutImplementationV1 is ProxyStorage {\n    using SafeMath for uint256;\n    using SafeERC20 for IERC20;\n    using EnumerableSet for EnumerableSet.Bytes32Set;\n    using EnumerableSet for EnumerableSet.AddressSet;\n\n    address private merkleTree;\n    address public regiment;\n    address public bridgeIn;\n    uint256 public defaultMerkleTreeDepth = 3;\n    uint256 public constant MaxQueryRange = 100;\n    uint256 public constant MaxTokenKeyCount = 200;\n    bool public isPaused;\n    address public tokenAddress;\n    address public approveController;\n    address public multiSigWallet;\n    EnumerableSet.Bytes32Set private targetTokenList;\n\n    mapping(bytes32 => SwapInfo) internal swapInfos;\n    mapping(bytes32 => bytes32) internal tokenKeyToSwapIdMap;\n    mapping(bytes32 => SwapAmounts) internal ledger;\n    mapping(bytes32 => mapping(uint256 => ReceivedReceipt))\n        internal receivedReceiptsMap;\n    mapping(bytes32 => uint256) internal receivedReceiptIndex;\n    mapping(string => bool) internal receiptApproveMap;\n    mapping(address => uint256) public tokenAmountLimit;\n    mapping(bytes32 => uint256) internal tokenDepositAmount;\n    address public limiter;\n    uint8 public signatureThreshold;\n\n    struct ReceivedReceipt {\n        address asset; // ERC20 Token Address\n        address targetAddress; // User address in eth\n        uint256 amount; // Locking amount\n        uint256 blockHeight;\n        uint256 blockTime;\n        string fromChainId;\n        string receiptId;\n    }\n    struct SwapTargetToken {\n        address token;\n        string fromChainId;\n        uint64 originShare;\n        uint64 targetShare;\n    }\n    struct SwapInfo {\n        bytes32 swapId;\n        bytes32 regimentId;\n        bytes32 spaceId;\n        SwapTargetToken targetToken;\n    }\n    struct SwapAmounts {\n        address receiver;\n        uint256 leafNodeIndex;\n        mapping(address => uint256) receivedAmounts;\n    }\n\n    event SwapPairAdded(bytes32 swapId, address token, string chainId);\n    event TokenSwapEvent(address receiveAddress, address token, uint256 amount);\n    event NewTransmission(\n        bytes32 swapId,\n        address transmiter,\n        uint256 receiptIndex,\n        bytes32 receiptHash\n    );\n\n    modifier onlyBridgeInContract() {\n        require(msg.sender == bridgeIn, \"no permission\");\n        _;\n    }\n    modifier onlyWallet() {\n        require(msg.sender == multiSigWallet, \"BridgeOut:only for Wallet call\");\n        _;\n    }\n\n    function initialize(\n        address _merkleTree,\n        address _regiment,\n        address _bridgeIn,\n        address _tokenAddress,\n        address _approveController,\n        address _multiSigWallet\n    ) external onlyOwner {\n        require(merkleTree == address(0), \"already initialized\");\n        merkleTree = _merkleTree;\n        regiment = _regiment;\n        bridgeIn = _bridgeIn;\n        tokenAddress = _tokenAddress;\n        approveController = _approveController;\n        multiSigWallet = _multiSigWallet;\n    }\n\n    function pause() external onlyBridgeInContract {\n        isPaused = true;\n    }\n\n    function restart() public onlyBridgeInContract {\n        isPaused = false;\n    }\n\n    function setDefaultMerkleTreeDepth(\n        uint256 _defaultMerkleTreeDepth\n    ) external onlyWallet {\n        require(\n            _defaultMerkleTreeDepth > 0 && _defaultMerkleTreeDepth <= 20,\n            \"invalid input\"\n        );\n        defaultMerkleTreeDepth = _defaultMerkleTreeDepth;\n    }\n\n    function setLimiter(address _limiter) external onlyWallet {\n        require(\n            limiter == address(0) && _limiter != address(0),\n            \"invalid limiter address\"\n        );\n        limiter = _limiter;\n    }\n\n    function setSignatureThreshold(uint8 _signatureThreshold) external onlyWallet {\n        require(_signatureThreshold > 0,\"Invalid input.\");\n        signatureThreshold = _signatureThreshold;\n    }\n\n    function changeMultiSignWallet(address _multiSigWallet) external onlyOwner {\n        require(_multiSigWallet != address(0), \"invalid input\");\n        multiSigWallet = _multiSigWallet;\n    }\n\n    //Swap\n    function createSwap(\n        SwapTargetToken calldata targetToken,\n        bytes32 regimentId\n    ) external {\n        require(\n            IRegiment(regiment).IsRegimentManager(regimentId, msg.sender),\n            \"no permission\"\n        );\n        require(targetToken.token != address(0), \"invalid input\");\n        require(\n            targetTokenList.length() < MaxTokenKeyCount,\n            \"token list exceed\"\n        );\n        bytes32 tokenKey = BridgeOutLibrary.generateTokenKey(\n            targetToken.token,\n            targetToken.fromChainId\n        );\n        require(\n            !targetTokenList.contains(tokenKey),\n            \"target token already exist\"\n        );\n        bytes32 spaceId = IMerkleTree(merkleTree).createSpace(\n            regimentId,\n            defaultMerkleTreeDepth\n        );\n        bytes32 swapId = keccak256(msg.data);\n        require(\n            targetToken.originShare > 0 && targetToken.targetShare > 0,\n            \"invalid swap ratio\"\n        );\n        swapInfos[swapId] = SwapInfo(swapId, regimentId, spaceId, targetToken);\n        targetTokenList.add(tokenKey);\n        tokenKeyToSwapIdMap[tokenKey] = swapId;\n\n        emit SwapPairAdded(swapId, targetToken.token, targetToken.fromChainId);\n    }\n\n    function deposit(bytes32 tokenKey, address token, uint256 amount) external {\n        check(token, tokenKey);\n        IERC20(token).safeTransferFrom(\n            address(msg.sender),\n            address(this),\n            amount\n        );\n        bytes32 swapId = tokenKeyToSwapIdMap[tokenKey];\n        tokenDepositAmount[swapId] = tokenDepositAmount[swapId].add(amount);\n    }\n\n    function withdraw(\n        bytes32 tokenKey,\n        address token,\n        uint256 amount\n    ) external onlyBridgeInContract {\n        check(token, tokenKey);\n        bytes32 swapId = tokenKeyToSwapIdMap[tokenKey];\n        tokenDepositAmount[swapId] = tokenDepositAmount[swapId].sub(amount);\n        IERC20(token).safeTransfer(address(msg.sender), amount);\n    }\n\n    function check(address token, bytes32 tokenKey) private view {\n        require(targetTokenList.contains(tokenKey), \"target token not exist\");\n        bytes32 swapId = tokenKeyToSwapIdMap[tokenKey];\n        require(swapInfos[swapId].targetToken.token == token, \"invalid token\");\n    }\n\n    function swapToken(\n        bytes32 swapId,\n        string calldata receiptId,\n        uint256 amount,\n        address receiverAddress\n    ) external {\n        require(!isPaused, \"BridgeOut:paused\");\n        require(msg.sender == receiverAddress, \"no permission\");\n        bytes32 spaceId = swapInfos[swapId].spaceId;\n        require(spaceId != bytes32(0), \"swap pair not found\");\n        require(amount > 0, \"invalid amount\");\n        \n        SwapInfo storage swapInfo = swapInfos[swapId];\n        uint256 targetTokenAmount = amount\n            .mul(swapInfo.targetToken.targetShare)\n            .div(swapInfo.targetToken.originShare);\n\n        ILimiter(limiter).consumeDailyLimit(swapId, tokenAddress, targetTokenAmount);\n        ILimiter(limiter).consumeTokenBucket(swapId, tokenAddress, targetTokenAmount);\n\n        bytes32 leafHash = BridgeOutLibrary.computeLeafHash(\n            receiptId,\n            amount,\n            receiverAddress\n        );\n        uint256 leafNodeIndex = ledger[leafHash].leafNodeIndex.sub(1);\n        BridgeOutLibrary.verifyMerkleTree(\n            spaceId,\n            merkleTree,\n            leafNodeIndex,\n            leafHash\n        );\n\n        SwapAmounts storage swapAmouts = ledger[leafHash];\n        require(swapAmouts.receiver == address(0), \"already claimed\");\n        swapAmouts.receiver = receiverAddress;\n        \n        require(\n            targetTokenAmount <= tokenDepositAmount[swapId],\n            \"deposit not enough\"\n        );\n        tokenDepositAmount[swapId] = tokenDepositAmount[swapId].sub(\n            targetTokenAmount\n        );\n        if (swapInfo.targetToken.token == tokenAddress) {\n            INativeToken(tokenAddress).withdraw(targetTokenAmount);\n            (bool success, ) = payable(receiverAddress).call{\n                value: targetTokenAmount\n            }(\"\");\n            require(success, \"failed\");\n        } else {\n            IERC20(swapInfo.targetToken.token).safeTransfer(\n                receiverAddress,\n                targetTokenAmount\n            );\n        }\n        swapAmouts.receivedAmounts[\n            swapInfo.targetToken.token\n        ] = targetTokenAmount;\n        emit TokenSwapEvent(\n            receiverAddress,\n            swapInfo.targetToken.token,\n            targetTokenAmount\n        );\n\n        bytes32 tokenKey = BridgeOutLibrary.generateTokenKey(\n            swapInfo.targetToken.token,\n            swapInfo.targetToken.fromChainId\n        );\n        receivedReceiptIndex[tokenKey] = receivedReceiptIndex[tokenKey].add(1);\n        uint256 receiptIndex = receivedReceiptIndex[tokenKey];\n        receivedReceiptsMap[tokenKey][receiptIndex] = ReceivedReceipt(\n            swapInfo.targetToken.token,\n            receiverAddress,\n            amount,\n            block.number,\n            block.timestamp,\n            swapInfo.targetToken.fromChainId,\n            receiptId\n        );\n    }\n\n    function transmit(\n        bytes32 swapHashId,\n        bytes calldata _report,\n        bytes32[] calldata _rs, // observer signatures->r\n        bytes32[] calldata _ss, //observer signatures->s\n        bytes32 _rawVs // signatures->v (Each 1 byte is combined into a 32-byte binder, which means that the maximum number of observer signatures is 32.)\n    ) external {\n        SwapInfo storage swapInfo = swapInfos[swapHashId];\n        uint8 signersCount = BridgeOutLibrary.verifySignature(\n                swapInfo.regimentId,\n                _report,\n                _rs,\n                _ss,\n                _rawVs,\n                regiment\n            );\n        (uint256 receiptIndex, bytes32 receiptHash) = \n            BridgeOutLibrary.checkSignersThresholdAndDecodeReport(signersCount, signatureThreshold, _report);\n        bytes32[] memory leafNodes = new bytes32[](1);\n        leafNodes[0] = receiptHash;\n        require(ledger[receiptHash].leafNodeIndex == 0, \"already recorded\");\n        uint256 index = IMerkleTree(merkleTree).recordMerkleTree(\n            swapInfo.spaceId,\n            leafNodes\n        );\n        ledger[receiptHash].leafNodeIndex = index.add(1);\n        emit NewTransmission(swapHashId, msg.sender, receiptIndex, receiptHash);\n    }\n\n    function isReceiptRecorded(bytes32 receiptHash) public view returns (bool) {\n        return ledger[receiptHash].leafNodeIndex > 0;\n    }\n\n    function getReceiveReceiptIndex(\n        address[] memory tokens,\n        string[] calldata fromChainIds\n    ) external view returns (uint256[] memory) {\n        require(tokens.length == fromChainIds.length, \"invalid input\");\n        uint256[] memory indexs = new uint256[](tokens.length);\n        for (uint256 i = 0; i < tokens.length; i++) {\n            bytes32 tokenKey = BridgeOutLibrary.generateTokenKey(\n                tokens[i],\n                fromChainIds[i]\n            );\n            indexs[i] = receivedReceiptIndex[tokenKey];\n        }\n        return indexs;\n    }\n\n    function getSwapId(\n        address token,\n        string calldata fromChainId\n    ) public view returns (bytes32) {\n        bytes32 tokenKey = BridgeOutLibrary.generateTokenKey(\n            token,\n            fromChainId\n        );\n        return tokenKeyToSwapIdMap[tokenKey];\n    }\n\n    function getReceivedReceiptInfos(\n        address token,\n        string calldata fromChainId,\n        uint256 fromIndex,\n        uint256 endIndex\n    ) public view returns (ReceivedReceipt[] memory _receipts) {\n        bytes32 tokenKey = BridgeOutLibrary.generateTokenKey(\n            token,\n            fromChainId\n        );\n        require(\n            endIndex <= receivedReceiptIndex[tokenKey] && fromIndex > 0,\n            \"Invalid input\"\n        );\n        uint256 length = endIndex.sub(fromIndex).add(1);\n        require(length <= MaxQueryRange, \"Query range is exceeded\");\n        _receipts = new ReceivedReceipt[](length);\n        for (uint256 i = 0; i < length; i++) {\n            _receipts[i] = receivedReceiptsMap[tokenKey][i.add(fromIndex)];\n        }\n\n        return _receipts;\n    }\n\n    function getDepositAmount(bytes32 swapId) public view returns (uint256) {\n        return tokenDepositAmount[swapId];\n    }\n\n    function getSwapInfo(\n        bytes32 swapId\n    )\n        external\n        view\n        returns (\n            string memory fromChainId,\n            bytes32 regimentId,\n            bytes32 spaceId,\n            address token\n        )\n    {\n        fromChainId = swapInfos[swapId].targetToken.fromChainId;\n        regimentId = swapInfos[swapId].regimentId;\n        spaceId = swapInfos[swapId].spaceId;\n        token = swapInfos[swapId].targetToken.token;\n    }\n\n    function approve(string calldata receiptId) external {\n        require(msg.sender == approveController, \"no permission\");\n        receiptApproveMap[receiptId] = true;\n    }\n\n    function changeApproveController(\n        address _approveController\n    ) external onlyWallet {\n        require(_approveController != address(0), \"Invalid input\");\n        approveController = _approveController;\n    }\n}\n",
  "sourcePath": "/Users/jasonlu/Project/ebridge-contracts.ethereum/contracts/BridgeOutImplementationV1.sol",
  "compiler": {
    "name": "solc",
    "version": "0.8.11+commit.b01f3284.mod.Emscripten.clang"
  },
  "schemaVersion": "2.0.1",
  "updatedAt": "2024-01-25T02:24:44.962Z"
}