{
  "contractName": "BridgeInImplementation",
  "abi": [
    {
      "anonymous": false,
      "inputs": [
        {
          "indexed": false,
          "internalType": "string",
          "name": "receiptId",
          "type": "string"
        },
        {
          "indexed": false,
          "internalType": "address",
          "name": "asset",
          "type": "address"
        },
        {
          "indexed": false,
          "internalType": "address",
          "name": "owner",
          "type": "address"
        },
        {
          "indexed": false,
          "internalType": "uint256",
          "name": "amount",
          "type": "uint256"
        }
      ],
      "name": "NewReceipt",
      "type": "event"
    },
    {
      "anonymous": false,
      "inputs": [
        {
          "indexed": true,
          "internalType": "address",
          "name": "previousOwner",
          "type": "address"
        },
        {
          "indexed": true,
          "internalType": "address",
          "name": "newOwner",
          "type": "address"
        }
      ],
      "name": "OwnershipTransferred",
      "type": "event"
    },
    {
      "anonymous": false,
      "inputs": [
        {
          "indexed": false,
          "internalType": "address",
          "name": "token",
          "type": "address"
        },
        {
          "indexed": false,
          "internalType": "string",
          "name": "chainId",
          "type": "string"
        }
      ],
      "name": "TokenAdded",
      "type": "event"
    },
    {
      "anonymous": false,
      "inputs": [
        {
          "indexed": false,
          "internalType": "address",
          "name": "token",
          "type": "address"
        },
        {
          "indexed": false,
          "internalType": "string",
          "name": "chainId",
          "type": "string"
        }
      ],
      "name": "TokenRemoved",
      "type": "event"
    },
    {
      "inputs": [],
      "name": "MaxQueryRange",
      "outputs": [
        {
          "internalType": "uint256",
          "name": "",
          "type": "uint256"
        }
      ],
      "stateMutability": "view",
      "type": "function"
    },
    {
      "inputs": [],
      "name": "MaxTokenCount",
      "outputs": [
        {
          "internalType": "uint256",
          "name": "",
          "type": "uint256"
        }
      ],
      "stateMutability": "view",
      "type": "function"
    },
    {
      "inputs": [],
      "name": "MaxTokenCountPerAddOrRemove",
      "outputs": [
        {
          "internalType": "uint256",
          "name": "",
          "type": "uint256"
        }
      ],
      "stateMutability": "view",
      "type": "function"
    },
    {
      "inputs": [
        {
          "components": [
            {
              "internalType": "address",
              "name": "tokenAddress",
              "type": "address"
            },
            {
              "internalType": "string",
              "name": "chainId",
              "type": "string"
            }
          ],
          "internalType": "struct BridgeInImplementation.Token[]",
          "name": "tokens",
          "type": "tuple[]"
        }
      ],
      "name": "addToken",
      "outputs": [],
      "stateMutability": "nonpayable",
      "type": "function"
    },
    {
      "inputs": [],
      "name": "bridgeOut",
      "outputs": [
        {
          "internalType": "address",
          "name": "",
          "type": "address"
        }
      ],
      "stateMutability": "view",
      "type": "function"
    },
    {
      "inputs": [
        {
          "internalType": "address",
          "name": "_wallet",
          "type": "address"
        }
      ],
      "name": "changeMultiSignWallet",
      "outputs": [],
      "stateMutability": "nonpayable",
      "type": "function"
    },
    {
      "inputs": [
        {
          "internalType": "address",
          "name": "_pauseController",
          "type": "address"
        }
      ],
      "name": "changePauseController",
      "outputs": [],
      "stateMutability": "nonpayable",
      "type": "function"
    },
    {
      "inputs": [
        {
          "internalType": "string",
          "name": "targetChainId",
          "type": "string"
        },
        {
          "internalType": "string",
          "name": "targetAddress",
          "type": "string"
        }
      ],
      "name": "createNativeTokenReceipt",
      "outputs": [],
      "stateMutability": "payable",
      "type": "function"
    },
    {
      "inputs": [
        {
          "internalType": "address",
          "name": "token",
          "type": "address"
        },
        {
          "internalType": "uint256",
          "name": "amount",
          "type": "uint256"
        },
        {
          "internalType": "string",
          "name": "targetChainId",
          "type": "string"
        },
        {
          "internalType": "string",
          "name": "targetAddress",
          "type": "string"
        }
      ],
      "name": "createReceipt",
      "outputs": [],
      "stateMutability": "nonpayable",
      "type": "function"
    },
    {
      "inputs": [
        {
          "internalType": "bytes32",
          "name": "tokenKey",
          "type": "bytes32"
        },
        {
          "internalType": "address",
          "name": "token",
          "type": "address"
        },
        {
          "internalType": "uint256",
          "name": "amount",
          "type": "uint256"
        }
      ],
      "name": "deposit",
      "outputs": [],
      "stateMutability": "nonpayable",
      "type": "function"
    },
    {
      "inputs": [
        {
          "internalType": "bytes32",
          "name": "",
          "type": "bytes32"
        }
      ],
      "name": "depositAmount",
      "outputs": [
        {
          "internalType": "uint256",
          "name": "",
          "type": "uint256"
        }
      ],
      "stateMutability": "view",
      "type": "function"
    },
    {
      "inputs": [
        {
          "internalType": "address",
          "name": "user",
          "type": "address"
        },
        {
          "internalType": "address",
          "name": "token",
          "type": "address"
        },
        {
          "internalType": "string",
          "name": "targetChainId",
          "type": "string"
        }
      ],
      "name": "getMyReceipts",
      "outputs": [
        {
          "internalType": "string[]",
          "name": "receipt_ids",
          "type": "string[]"
        }
      ],
      "stateMutability": "view",
      "type": "function"
    },
    {
      "inputs": [
        {
          "internalType": "address[]",
          "name": "tokens",
          "type": "address[]"
        },
        {
          "internalType": "string[]",
          "name": "targetChainIds",
          "type": "string[]"
        }
      ],
      "name": "getSendReceiptIndex",
      "outputs": [
        {
          "internalType": "uint256[]",
          "name": "indexes",
          "type": "uint256[]"
        }
      ],
      "stateMutability": "view",
      "type": "function"
    },
    {
      "inputs": [
        {
          "internalType": "address",
          "name": "token",
          "type": "address"
        },
        {
          "internalType": "string",
          "name": "targetChainId",
          "type": "string"
        },
        {
          "internalType": "uint256",
          "name": "fromIndex",
          "type": "uint256"
        },
        {
          "internalType": "uint256",
          "name": "endIndex",
          "type": "uint256"
        }
      ],
      "name": "getSendReceiptInfos",
      "outputs": [
        {
          "components": [
            {
              "internalType": "address",
              "name": "asset",
              "type": "address"
            },
            {
              "internalType": "address",
              "name": "owner",
              "type": "address"
            },
            {
              "internalType": "uint256",
              "name": "amount",
              "type": "uint256"
            },
            {
              "internalType": "uint256",
              "name": "blockHeight",
              "type": "uint256"
            },
            {
              "internalType": "uint256",
              "name": "blockTime",
              "type": "uint256"
            },
            {
              "internalType": "string",
              "name": "targetChainId",
              "type": "string"
            },
            {
              "internalType": "string",
              "name": "targetAddress",
              "type": "string"
            },
            {
              "internalType": "string",
              "name": "receiptId",
              "type": "string"
            }
          ],
          "internalType": "struct BridgeInImplementation.Receipt[]",
          "name": "_receipts",
          "type": "tuple[]"
        }
      ],
      "stateMutability": "view",
      "type": "function"
    },
    {
      "inputs": [
        {
          "internalType": "address",
          "name": "token",
          "type": "address"
        },
        {
          "internalType": "string",
          "name": "chainId",
          "type": "string"
        }
      ],
      "name": "getTotalAmountInReceipts",
      "outputs": [
        {
          "internalType": "uint256",
          "name": "",
          "type": "uint256"
        }
      ],
      "stateMutability": "view",
      "type": "function"
    },
    {
      "inputs": [
        {
          "internalType": "address",
          "name": "_multiSigWallet",
          "type": "address"
        },
        {
          "internalType": "address",
          "name": "_tokenAddress",
          "type": "address"
        },
        {
          "internalType": "address",
          "name": "_pauseController",
          "type": "address"
        }
      ],
      "name": "initialize",
      "outputs": [],
      "stateMutability": "nonpayable",
      "type": "function"
    },
    {
      "inputs": [],
      "name": "isPaused",
      "outputs": [
        {
          "internalType": "bool",
          "name": "",
          "type": "bool"
        }
      ],
      "stateMutability": "view",
      "type": "function"
    },
    {
      "inputs": [
        {
          "internalType": "address",
          "name": "token",
          "type": "address"
        },
        {
          "internalType": "string",
          "name": "chainId",
          "type": "string"
        }
      ],
      "name": "isSupported",
      "outputs": [
        {
          "internalType": "bool",
          "name": "",
          "type": "bool"
        }
      ],
      "stateMutability": "view",
      "type": "function"
    },
    {
      "inputs": [],
      "name": "limiter",
      "outputs": [
        {
          "internalType": "address",
          "name": "",
          "type": "address"
        }
      ],
      "stateMutability": "view",
      "type": "function"
    },
    {
      "inputs": [],
      "name": "multiSigWallet",
      "outputs": [
        {
          "internalType": "address",
          "name": "",
          "type": "address"
        }
      ],
      "stateMutability": "view",
      "type": "function"
    },
    {
      "inputs": [],
      "name": "owner",
      "outputs": [
        {
          "internalType": "address",
          "name": "",
          "type": "address"
        }
      ],
      "stateMutability": "view",
      "type": "function"
    },
    {
      "inputs": [],
      "name": "pause",
      "outputs": [],
      "stateMutability": "nonpayable",
      "type": "function"
    },
    {
      "inputs": [],
      "name": "pauseController",
      "outputs": [
        {
          "internalType": "address",
          "name": "",
          "type": "address"
        }
      ],
      "stateMutability": "view",
      "type": "function"
    },
    {
      "inputs": [
        {
          "components": [
            {
              "internalType": "address",
              "name": "tokenAddress",
              "type": "address"
            },
            {
              "internalType": "string",
              "name": "chainId",
              "type": "string"
            }
          ],
          "internalType": "struct BridgeInImplementation.Token[]",
          "name": "tokens",
          "type": "tuple[]"
        }
      ],
      "name": "removeToken",
      "outputs": [],
      "stateMutability": "nonpayable",
      "type": "function"
    },
    {
      "inputs": [],
      "name": "renounceOwnership",
      "outputs": [],
      "stateMutability": "nonpayable",
      "type": "function"
    },
    {
      "inputs": [],
      "name": "restart",
      "outputs": [],
      "stateMutability": "nonpayable",
      "type": "function"
    },
    {
      "inputs": [
        {
          "internalType": "address",
          "name": "_bridgeOut",
          "type": "address"
        }
      ],
      "name": "setBridgeOut",
      "outputs": [],
      "stateMutability": "nonpayable",
      "type": "function"
    },
    {
      "inputs": [
        {
          "internalType": "address",
          "name": "_limiter",
          "type": "address"
        }
      ],
      "name": "setLimiter",
      "outputs": [],
      "stateMutability": "nonpayable",
      "type": "function"
    },
    {
      "inputs": [],
      "name": "tokenAddress",
      "outputs": [
        {
          "internalType": "address",
          "name": "",
          "type": "address"
        }
      ],
      "stateMutability": "view",
      "type": "function"
    },
    {
      "inputs": [
        {
          "internalType": "address",
          "name": "newOwner",
          "type": "address"
        }
      ],
      "name": "transferOwnership",
      "outputs": [],
      "stateMutability": "nonpayable",
      "type": "function"
    },
    {
      "inputs": [
        {
          "internalType": "bytes32",
          "name": "tokenKey",
          "type": "bytes32"
        },
        {
          "internalType": "address",
          "name": "token",
          "type": "address"
        },
        {
          "internalType": "uint256",
          "name": "amount",
          "type": "uint256"
        },
        {
          "internalType": "address",
          "name": "receiverAddress",
          "type": "address"
        }
      ],
      "name": "withdraw",
      "outputs": [],
      "stateMutability": "nonpayable",
      "type": "function"
    }
  ],
  "bytecode": "0x60806040523480156200001157600080fd5b50d380156200001f57600080fd5b50d280156200002d57600080fd5b506200004e620000426200005460201b60201c565b6200005c60201b60201c565b62000120565b600033905090565b60008060009054906101000a900473ffffffffffffffffffffffffffffffffffffffff169050816000806101000a81548173ffffffffffffffffffffffffffffffffffffffff021916908373ffffffffffffffffffffffffffffffffffffffff1602179055508173ffffffffffffffffffffffffffffffffffffffff168173ffffffffffffffffffffffffffffffffffffffff167f8be0079c531659141344cd1fd0a4f28419497f9722a3daafe3b4186f6b6457e060405160405180910390a35050565b61614e80620001306000396000f3fe6080604052600436106101d85760003560e01c806385d2e7cf11610102578063b259ca6511610095578063d96c397611610064578063d96c397614610919578063e469640a1461095e578063f2fde38b146109a1578063fa56902e146109e4576101d8565b8063b259ca651461080b578063bbd0acac1461084e578063c0c53b8b14610893578063d954863c146108d6576101d8565b806394bd77d8116100d157806394bd77d8146106e757806398cf2dcd1461072a5780639d76ea5814610781578063b187bd26146107c6576101d8565b806385d2e7cf146105ec5780638da5cb5b1461060857806390b658aa1461064d57806390efb3d814610690576101d8565b806368284a9c1161017a57806374b87f671161014957806374b87f67146104dc5780637a29084c1461052157806381020a34146105645780638456cb59146105bb576101d8565b806368284a9c146103ce5780636da3dbbd146104115780636df71f6614610468578063715018a6146104ab576101d8565b806337ce7549116101b657806337ce7549146102a8578063407d83d9146102ed5780634b8feb4f1461034457806360b4778914610389576101d8565b806301fecab6146101dd5780631ef3755d146102345780632b41513b14610265575b600080fd5b3480156101e957600080fd5b50d380156101f657600080fd5b50d2801561020357600080fd5b5061021e6004803603810190610219919061401f565b610a29565b60405161022b9190614065565b60405180910390f35b34801561024057600080fd5b50d3801561024d57600080fd5b50d2801561025a57600080fd5b50610263610a41565b005b34801561027157600080fd5b50d3801561027e57600080fd5b50d2801561028b57600080fd5b506102a660048036038101906102a1919061410a565b610bc6565b005b3480156102b457600080fd5b50d380156102c157600080fd5b50d280156102ce57600080fd5b506102d7610d0a565b6040516102e49190614065565b60405180910390f35b3480156102f957600080fd5b50d3801561030657600080fd5b50d2801561031357600080fd5b5061032e6004803603810190610329919061419c565b610d0f565b60405161033b9190614217565b60405180910390f35b34801561035057600080fd5b50d3801561035d57600080fd5b50d2801561036a57600080fd5b50610373610dae565b6040516103809190614241565b60405180910390f35b34801561039557600080fd5b50d380156103a257600080fd5b50d280156103af57600080fd5b506103b8610dd4565b6040516103c59190614241565b60405180910390f35b3480156103da57600080fd5b50d380156103e757600080fd5b50d280156103f457600080fd5b5061040f600480360381019061040a9190614288565b610dfa565b005b34801561041d57600080fd5b50d3801561042a57600080fd5b50d2801561043757600080fd5b50610452600480360381019061044d9190614494565b610faa565b60405161045f91906145ce565b60405180910390f35b34801561047457600080fd5b50d3801561048157600080fd5b50d2801561048e57600080fd5b506104a960048036038101906104a4919061410a565b61115c565b005b3480156104b757600080fd5b50d380156104c457600080fd5b50d280156104d157600080fd5b506104da6112fa565b005b3480156104e857600080fd5b50d380156104f557600080fd5b50d2801561050257600080fd5b5061050b61130e565b6040516105189190614241565b60405180910390f35b34801561052d57600080fd5b50d3801561053a57600080fd5b50d2801561054757600080fd5b50610562600480360381019061055d919061410a565b611334565b005b34801561057057600080fd5b50d3801561057d57600080fd5b50d2801561058a57600080fd5b506105a560048036038101906105a091906145f0565b6114d2565b6040516105b291906147ae565b60405180910390f35b3480156105c757600080fd5b50d380156105d457600080fd5b50d280156105e157600080fd5b506105ea61172a565b005b610606600480360381019061060191906147d0565b6118a9565b005b34801561061457600080fd5b50d3801561062157600080fd5b50d2801561062e57600080fd5b50610637611a4f565b6040516106449190614241565b60405180910390f35b34801561065957600080fd5b50d3801561066657600080fd5b50d2801561067357600080fd5b5061068e600480360381019061068991906148a7565b611a78565b005b34801561069c57600080fd5b50d380156106a957600080fd5b50d280156106b657600080fd5b506106d160048036038101906106cc91906149a9565b611d69565b6040516106de9190614065565b60405180910390f35b3480156106f357600080fd5b50d3801561070057600080fd5b50d2801561070d57600080fd5b506107286004803603810190610723919061410a565b611e05565b005b34801561073657600080fd5b50d3801561074357600080fd5b50d2801561075057600080fd5b5061076b60048036038101906107669190614a05565b611ec1565b6040516107789190614c1c565b60405180910390f35b34801561078d57600080fd5b50d3801561079a57600080fd5b50d280156107a757600080fd5b506107b06123a2565b6040516107bd9190614241565b60405180910390f35b3480156107d257600080fd5b50d380156107df57600080fd5b50d280156107ec57600080fd5b506107f56123c8565b6040516108029190614217565b60405180910390f35b34801561081757600080fd5b50d3801561082457600080fd5b50d2801561083157600080fd5b5061084c600480360381019061084791906148a7565b6123db565b005b34801561085a57600080fd5b50d3801561086757600080fd5b50d2801561087457600080fd5b5061087d6126e3565b60405161088a9190614065565b60405180910390f35b34801561089f57600080fd5b50d380156108ac57600080fd5b50d280156108b957600080fd5b506108d460048036038101906108cf9190614c3e565b6126e8565b005b3480156108e257600080fd5b50d380156108ef57600080fd5b50d280156108fc57600080fd5b5061091760048036038101906109129190614c91565b612849565b005b34801561092557600080fd5b50d3801561093257600080fd5b50d2801561093f57600080fd5b506109486129e9565b6040516109559190614241565b60405180910390f35b34801561096a57600080fd5b50d3801561097757600080fd5b50d2801561098457600080fd5b5061099f600480360381019061099a9190614ce4565b612a0f565b005b3480156109ad57600080fd5b50d380156109ba57600080fd5b50d280156109c757600080fd5b506109e260048036038101906109dd919061410a565b612afb565b005b3480156109f057600080fd5b50d380156109fd57600080fd5b50d28015610a0a57600080fd5b50610a13612b7f565b604051610a209190614065565b60405180910390f35b600d6020528060005260406000206000915090505481565b600360009054906101000a900473ffffffffffffffffffffffffffffffffffffffff1673ffffffffffffffffffffffffffffffffffffffff163373ffffffffffffffffffffffffffffffffffffffff1614610ad1576040517f08c379a0000000000000000000000000000000000000000000000000000000008152600401610ac890614de8565b60405180910390fd5b60011515600560149054906101000a900460ff16151514610b27576040517f08c379a0000000000000000000000000000000000000000000000000000000008152600401610b1e90614e54565b60405180910390fd5b6000600560146101000a81548160ff021916908315150217905550600260009054906101000a900473ffffffffffffffffffffffffffffffffffffffff1673ffffffffffffffffffffffffffffffffffffffff16631ef3755d6040518163ffffffff1660e01b8152600401600060405180830381600087803b158015610bac57600080fd5b505af1158015610bc0573d6000803e3d6000fd5b50505050565b600360009054906101000a900473ffffffffffffffffffffffffffffffffffffffff1673ffffffffffffffffffffffffffffffffffffffff163373ffffffffffffffffffffffffffffffffffffffff1614610c56576040517f08c379a0000000000000000000000000000000000000000000000000000000008152600401610c4d90614de8565b60405180910390fd5b600073ffffffffffffffffffffffffffffffffffffffff168173ffffffffffffffffffffffffffffffffffffffff161415610cc6576040517f08c379a0000000000000000000000000000000000000000000000000000000008152600401610cbd90614ec0565b60405180910390fd5b80600560006101000a81548173ffffffffffffffffffffffffffffffffffffffff021916908373ffffffffffffffffffffffffffffffffffffffff16021790555050565b606481565b60008073__BridgeInLibrary_______________________63446f95b48686866040518463ffffffff1660e01b8152600401610d4d93929190614f2d565b602060405180830381865af4158015610d6a573d6000803e3d6000fd5b505050506040513d601f19601f82011682018060405250810190610d8e9190614f74565b9050610da4816006612b8490919063ffffffff16565b9150509392505050565b600360009054906101000a900473ffffffffffffffffffffffffffffffffffffffff1681565b600560009054906101000a900473ffffffffffffffffffffffffffffffffffffffff1681565b610e02612b9b565b610e16846006612b8490919063ffffffff16565b610e55576040517f08c379a0000000000000000000000000000000000000000000000000000000008152600401610e4c90614fed565b60405180910390fd5b81600d6000868152602001908152602001600020541015610eab576040517f08c379a0000000000000000000000000000000000000000000000000000000008152600401610ea290615059565b60405180910390fd5b610ed182600d600087815260200190815260200160002054612c1990919063ffffffff16565b600d600086815260200190815260200160002081905550600260009054906101000a900473ffffffffffffffffffffffffffffffffffffffff1673ffffffffffffffffffffffffffffffffffffffff1663a6fb97d18585856040518463ffffffff1660e01b8152600401610f4793929190615088565b600060405180830381600087803b158015610f6157600080fd5b505af1158015610f75573d6000803e3d6000fd5b50505050610fa481838573ffffffffffffffffffffffffffffffffffffffff16612c2f9092919063ffffffff16565b50505050565b606082829050845114610ff2576040517f08c379a0000000000000000000000000000000000000000000000000000000008152600401610fe990615131565b60405180910390fd5b835167ffffffffffffffff81111561100d5761100c614300565b5b60405190808252806020026020018201604052801561103b5781602001602082028036833780820191505090505b50905060005b845181101561115457600073__BridgeInLibrary_______________________63446f95b487848151811061107957611078615151565b5b602002602001015187878681811061109457611093615151565b5b90506020028101906110a6919061518f565b6040518463ffffffff1660e01b81526004016110c493929190614f2d565b602060405180830381865af41580156110e1573d6000803e3d6000fd5b505050506040513d601f19601f820116820180604052508101906111059190614f74565b90506000600960008381526020019081526020016000205490508084848151811061113357611132615151565b5b6020026020010181815250505050808061114c90615221565b915050611041565b509392505050565b600360009054906101000a900473ffffffffffffffffffffffffffffffffffffffff1673ffffffffffffffffffffffffffffffffffffffff163373ffffffffffffffffffffffffffffffffffffffff16146111ec576040517f08c379a00000000000000000000000000000000000000000000000000000000081526004016111e390614de8565b60405180910390fd5b600073ffffffffffffffffffffffffffffffffffffffff16600260009054906101000a900473ffffffffffffffffffffffffffffffffffffffff1673ffffffffffffffffffffffffffffffffffffffff161480156112775750600073ffffffffffffffffffffffffffffffffffffffff168173ffffffffffffffffffffffffffffffffffffffff1614155b6112b6576040517f08c379a00000000000000000000000000000000000000000000000000000000081526004016112ad906152b6565b60405180910390fd5b80600260006101000a81548173ffffffffffffffffffffffffffffffffffffffff021916908373ffffffffffffffffffffffffffffffffffffffff16021790555050565b611302612b9b565b61130c6000612cb5565b565b600e60009054906101000a900473ffffffffffffffffffffffffffffffffffffffff1681565b600360009054906101000a900473ffffffffffffffffffffffffffffffffffffffff1673ffffffffffffffffffffffffffffffffffffffff163373ffffffffffffffffffffffffffffffffffffffff16146113c4576040517f08c379a00000000000000000000000000000000000000000000000000000000081526004016113bb90614de8565b60405180910390fd5b600073ffffffffffffffffffffffffffffffffffffffff16600e60009054906101000a900473ffffffffffffffffffffffffffffffffffffffff1673ffffffffffffffffffffffffffffffffffffffff1614801561144f5750600073ffffffffffffffffffffffffffffffffffffffff168173ffffffffffffffffffffffffffffffffffffffff1614155b61148e576040517f08c379a000000000000000000000000000000000000000000000000000000000815260040161148590615322565b60405180910390fd5b80600e60006101000a81548173ffffffffffffffffffffffffffffffffffffffff021916908373ffffffffffffffffffffffffffffffffffffffff16021790555050565b6060600073__BridgeInLibrary_______________________63446f95b48686866040518463ffffffff1660e01b815260040161151193929190614f2d565b602060405180830381865af415801561152e573d6000803e3d6000fd5b505050506040513d601f19601f820116820180604052508101906115529190614f74565b90506000600c60008873ffffffffffffffffffffffffffffffffffffffff1673ffffffffffffffffffffffffffffffffffffffff16815260200190815260200160002060008381526020019081526020016000205490508067ffffffffffffffff8111156115c3576115c2614300565b5b6040519080825280602002602001820160405280156115f657816020015b60608152602001906001900390816115e15790505b50925060005b8181101561171f57600b60008973ffffffffffffffffffffffffffffffffffffffff1673ffffffffffffffffffffffffffffffffffffffff16815260200190815260200160002060008481526020019081526020016000206000828152602001908152602001600020805461167090615371565b80601f016020809104026020016040519081016040528092919081815260200182805461169c90615371565b80156116e95780601f106116be576101008083540402835291602001916116e9565b820191906000526020600020905b8154815290600101906020018083116116cc57829003601f168201915b505050505084828151811061170157611700615151565b5b6020026020010181905250808061171790615221565b9150506115fc565b505050949350505050565b600560009054906101000a900473ffffffffffffffffffffffffffffffffffffffff1673ffffffffffffffffffffffffffffffffffffffff163373ffffffffffffffffffffffffffffffffffffffff16146117ba576040517f08c379a00000000000000000000000000000000000000000000000000000000081526004016117b190615415565b60405180910390fd5b600560149054906101000a900460ff161561180a576040517f08c379a000000000000000000000000000000000000000000000000000000000815260040161180190615481565b60405180910390fd5b6001600560146101000a81548160ff021916908315150217905550600260009054906101000a900473ffffffffffffffffffffffffffffffffffffffff1673ffffffffffffffffffffffffffffffffffffffff16638456cb596040518163ffffffff1660e01b8152600401600060405180830381600087803b15801561188f57600080fd5b505af11580156118a3573d6000803e3d6000fd5b50505050565b600560149054906101000a900460ff16156118f9576040517f08c379a00000000000000000000000000000000000000000000000000000000081526004016118f0906154ed565b60405180910390fd5b611927600460009054906101000a900473ffffffffffffffffffffffffffffffffffffffff16348686612d79565b600460009054906101000a900473ffffffffffffffffffffffffffffffffffffffff1673ffffffffffffffffffffffffffffffffffffffff1663d0e30db0346040518263ffffffff1660e01b81526004016000604051808303818588803b15801561199157600080fd5b505af11580156119a5573d6000803e3d6000fd5b5050505050611a19600260009054906101000a900473ffffffffffffffffffffffffffffffffffffffff1634600460009054906101000a900473ffffffffffffffffffffffffffffffffffffffff1673ffffffffffffffffffffffffffffffffffffffff16612ffc9092919063ffffffff16565b611a49600460009054906101000a900473ffffffffffffffffffffffffffffffffffffffff16348686868661314b565b50505050565b60008060009054906101000a900473ffffffffffffffffffffffffffffffffffffffff16905090565b600360009054906101000a900473ffffffffffffffffffffffffffffffffffffffff1673ffffffffffffffffffffffffffffffffffffffff163373ffffffffffffffffffffffffffffffffffffffff1614611b08576040517f08c379a0000000000000000000000000000000000000000000000000000000008152600401611aff90614de8565b60405180910390fd5b600a828290501115611b4f576040517f08c379a0000000000000000000000000000000000000000000000000000000008152600401611b4690615559565b60405180910390fd5b60005b82829050811015611d6457600073__BridgeInLibrary_______________________63446f95b4858585818110611b8c57611b8b615151565b5b9050602002810190611b9e9190615579565b6000016020810190611bb0919061410a565b868686818110611bc357611bc2615151565b5b9050602002810190611bd59190615579565b8060200190611be4919061518f565b6040518463ffffffff1660e01b8152600401611c0293929190614f2d565b602060405180830381865af4158015611c1f573d6000803e3d6000fd5b505050506040513d601f19601f82011682018060405250810190611c439190614f74565b9050611c59816006612b8490919063ffffffff16565b611c98576040517f08c379a0000000000000000000000000000000000000000000000000000000008152600401611c8f906155ed565b60405180910390fd5b611cac81600661375e90919063ffffffff16565b507f617a625823f687a1440db57ae598a2ba91f2c2d180bb2adc78e5fbfed162ca33848484818110611ce157611ce0615151565b5b9050602002810190611cf39190615579565b6000016020810190611d05919061410a565b858585818110611d1857611d17615151565b5b9050602002810190611d2a9190615579565b8060200190611d39919061518f565b604051611d489392919061563a565b60405180910390a1508080611d5c90615221565b915050611b52565b505050565b60008073__BridgeInLibrary_______________________63446f95b485856040518363ffffffff1660e01b8152600401611da59291906156a5565b602060405180830381865af4158015611dc2573d6000803e3d6000fd5b505050506040513d601f19601f82011682018060405250810190611de69190614f74565b9050600a60008281526020019081526020016000205491505092915050565b611e0d612b9b565b600073ffffffffffffffffffffffffffffffffffffffff168173ffffffffffffffffffffffffffffffffffffffff161415611e7d576040517f08c379a0000000000000000000000000000000000000000000000000000000008152600401611e7490614ec0565b60405180910390fd5b80600360006101000a81548173ffffffffffffffffffffffffffffffffffffffff021916908373ffffffffffffffffffffffffffffffffffffffff16021790555050565b6060600073__BridgeInLibrary_______________________63446f95b48888886040518463ffffffff1660e01b8152600401611f0093929190614f2d565b602060405180830381865af4158015611f1d573d6000803e3d6000fd5b505050506040513d601f19601f82011682018060405250810190611f419190614f74565b9050600060096000838152602001908152602001600020541415611f655750612399565b60096000828152602001908152602001600020548311158015611f885750600084115b8015611f945750828411155b611fd3576040517f08c379a0000000000000000000000000000000000000000000000000000000008152600401611fca90615721565b60405180910390fd5b6000611ffb6001611fed8787612c1990919063ffffffff16565b61377590919063ffffffff16565b90506064811115612041576040517f08c379a00000000000000000000000000000000000000000000000000000000081526004016120389061578d565b60405180910390fd5b8067ffffffffffffffff81111561205b5761205a614300565b5b60405190808252806020026020018201604052801561209457816020015b612081613ec1565b8152602001906001900390816120795790505b50925060005b81811015612395576008600084815260200190815260200160002060006120ca888461377590919063ffffffff16565b8152602001908152602001600020604051806101000160405290816000820160009054906101000a900473ffffffffffffffffffffffffffffffffffffffff1673ffffffffffffffffffffffffffffffffffffffff1673ffffffffffffffffffffffffffffffffffffffff1681526020016001820160009054906101000a900473ffffffffffffffffffffffffffffffffffffffff1673ffffffffffffffffffffffffffffffffffffffff1673ffffffffffffffffffffffffffffffffffffffff1681526020016002820154815260200160038201548152602001600482015481526020016005820180546121be90615371565b80601f01602080910402602001604051908101604052809291908181526020018280546121ea90615371565b80156122375780601f1061220c57610100808354040283529160200191612237565b820191906000526020600020905b81548152906001019060200180831161221a57829003601f168201915b5050505050815260200160068201805461225090615371565b80601f016020809104026020016040519081016040528092919081815260200182805461227c90615371565b80156122c95780601f1061229e576101008083540402835291602001916122c9565b820191906000526020600020905b8154815290600101906020018083116122ac57829003601f168201915b505050505081526020016007820180546122e290615371565b80601f016020809104026020016040519081016040528092919081815260200182805461230e90615371565b801561235b5780601f106123305761010080835404028352916020019161235b565b820191906000526020600020905b81548152906001019060200180831161233e57829003601f168201915b50505050508152505084828151811061237757612376615151565b5b6020026020010181905250808061238d90615221565b91505061209a565b5050505b95945050505050565b600460009054906101000a900473ffffffffffffffffffffffffffffffffffffffff1681565b600560149054906101000a900460ff1681565b600360009054906101000a900473ffffffffffffffffffffffffffffffffffffffff1673ffffffffffffffffffffffffffffffffffffffff163373ffffffffffffffffffffffffffffffffffffffff161461246b576040517f08c379a000000000000000000000000000000000000000000000000000000000815260040161246290614de8565b60405180910390fd5b60c8612477600661378b565b111580156124895750600a8282905011155b6124c8576040517f08c379a00000000000000000000000000000000000000000000000000000000081526004016124bf906157f9565b60405180910390fd5b60005b828290508110156126de57600073__BridgeInLibrary_______________________63446f95b485858581811061250557612504615151565b5b90506020028101906125179190615579565b6000016020810190612529919061410a565b86868681811061253c5761253b615151565b5b905060200281019061254e9190615579565b806020019061255d919061518f565b6040518463ffffffff1660e01b815260040161257b93929190614f2d565b602060405180830381865af4158015612598573d6000803e3d6000fd5b505050506040513d601f19601f820116820180604052508101906125bc9190614f74565b90506125d2816006612b8490919063ffffffff16565b15612612576040517f08c379a000000000000000000000000000000000000000000000000000000000815260040161260990615865565b60405180910390fd5b6126268160066137a090919063ffffffff16565b507f7afee0f1b802cc0f66c67890e26b4566251859cf2cd8de79b86aed7251d9756a84848481811061265b5761265a615151565b5b905060200281019061266d9190615579565b600001602081019061267f919061410a565b85858581811061269257612691615151565b5b90506020028101906126a49190615579565b80602001906126b3919061518f565b6040516126c29392919061563a565b60405180910390a15080806126d690615221565b9150506124cb565b505050565b600a81565b6126f0612b9b565b600073ffffffffffffffffffffffffffffffffffffffff16600360009054906101000a900473ffffffffffffffffffffffffffffffffffffffff1673ffffffffffffffffffffffffffffffffffffffff1614612781576040517f08c379a0000000000000000000000000000000000000000000000000000000008152600401612778906158d1565b60405180910390fd5b82600360006101000a81548173ffffffffffffffffffffffffffffffffffffffff021916908373ffffffffffffffffffffffffffffffffffffffff16021790555081600460006101000a81548173ffffffffffffffffffffffffffffffffffffffff021916908373ffffffffffffffffffffffffffffffffffffffff16021790555080600560006101000a81548173ffffffffffffffffffffffffffffffffffffffff021916908373ffffffffffffffffffffffffffffffffffffffff160217905550505050565b61285d836006612b8490919063ffffffff16565b61289c576040517f08c379a000000000000000000000000000000000000000000000000000000000815260040161289390614fed565b60405180910390fd5b6128c281600d60008681526020019081526020016000205461377590919063ffffffff16565b600d6000858152602001908152602001600020819055506129063330838573ffffffffffffffffffffffffffffffffffffffff166137b7909392919063ffffffff16565b612953600260009054906101000a900473ffffffffffffffffffffffffffffffffffffffff16828473ffffffffffffffffffffffffffffffffffffffff16612ffc9092919063ffffffff16565b600260009054906101000a900473ffffffffffffffffffffffffffffffffffffffff1673ffffffffffffffffffffffffffffffffffffffff1663d954863c8484846040518463ffffffff1660e01b81526004016129b293929190615088565b600060405180830381600087803b1580156129cc57600080fd5b505af11580156129e0573d6000803e3d6000fd5b50505050505050565b600260009054906101000a900473ffffffffffffffffffffffffffffffffffffffff1681565b600560149054906101000a900460ff1615612a5f576040517f08c379a0000000000000000000000000000000000000000000000000000000008152600401612a56906154ed565b60405180910390fd5b612a6b86868686612d79565b612a983330878973ffffffffffffffffffffffffffffffffffffffff166137b7909392919063ffffffff16565b612ae5600260009054906101000a900473ffffffffffffffffffffffffffffffffffffffff16868873ffffffffffffffffffffffffffffffffffffffff16612ffc9092919063ffffffff16565b612af386868686868661314b565b505050505050565b612b03612b9b565b600073ffffffffffffffffffffffffffffffffffffffff168173ffffffffffffffffffffffffffffffffffffffff161415612b73576040517f08c379a0000000000000000000000000000000000000000000000000000000008152600401612b6a90615963565b60405180910390fd5b612b7c81612cb5565b50565b60c881565b6000612b938360000183613840565b905092915050565b612ba3613863565b73ffffffffffffffffffffffffffffffffffffffff16612bc1611a4f565b73ffffffffffffffffffffffffffffffffffffffff1614612c17576040517f08c379a0000000000000000000000000000000000000000000000000000000008152600401612c0e906159cf565b60405180910390fd5b565b60008183612c2791906159ef565b905092915050565b612cb08363a9059cbb60e01b8484604051602401612c4e929190615a23565b604051602081830303815290604052907bffffffffffffffffffffffffffffffffffffffffffffffffffffffff19166020820180517bffffffffffffffffffffffffffffffffffffffffffffffffffffffff838183161783525050505061386b565b505050565b60008060009054906101000a900473ffffffffffffffffffffffffffffffffffffffff169050816000806101000a81548173ffffffffffffffffffffffffffffffffffffffff021916908373ffffffffffffffffffffffffffffffffffffffff1602179055508173ffffffffffffffffffffffffffffffffffffffff168173ffffffffffffffffffffffffffffffffffffffff167f8be0079c531659141344cd1fd0a4f28419497f9722a3daafe3b4186f6b6457e060405160405180910390a35050565b600073__BridgeInLibrary_______________________63446f95b48685856040518463ffffffff1660e01b8152600401612db693929190614f2d565b602060405180830381865af4158015612dd3573d6000803e3d6000fd5b505050506040513d601f19601f82011682018060405250810190612df79190614f74565b9050612e0d816006612b8490919063ffffffff16565b612e4c576040517f08c379a0000000000000000000000000000000000000000000000000000000008152600401612e4390615abe565b60405180910390fd5b60008411612e8f576040517f08c379a0000000000000000000000000000000000000000000000000000000008152600401612e8690615b2a565b60405180910390fd5b600e60009054906101000a900473ffffffffffffffffffffffffffffffffffffffff1673ffffffffffffffffffffffffffffffffffffffff166331980b8482600460009054906101000a900473ffffffffffffffffffffffffffffffffffffffff16876040518463ffffffff1660e01b8152600401612f1093929190615088565b600060405180830381600087803b158015612f2a57600080fd5b505af1158015612f3e573d6000803e3d6000fd5b50505050600e60009054906101000a900473ffffffffffffffffffffffffffffffffffffffff1673ffffffffffffffffffffffffffffffffffffffff166370a5348982600460009054906101000a900473ffffffffffffffffffffffffffffffffffffffff16876040518463ffffffff1660e01b8152600401612fc393929190615088565b600060405180830381600087803b158015612fdd57600080fd5b505af1158015612ff1573d6000803e3d6000fd5b505050505050505050565b6000811480613086575060008373ffffffffffffffffffffffffffffffffffffffff1663dd62ed3e30856040518363ffffffff1660e01b8152600401613043929190615b4a565b602060405180830381865afa158015613060573d6000803e3d6000fd5b505050506040513d601f19601f820116820180604052508101906130849190615b88565b145b6130c5576040517f08c379a00000000000000000000000000000000000000000000000000000000081526004016130bc90615c27565b60405180910390fd5b6131468363095ea7b360e01b84846040516024016130e4929190615a23565b604051602081830303815290604052907bffffffffffffffffffffffffffffffffffffffffffffffffffffffff19166020820180517bffffffffffffffffffffffffffffffffffffffffffffffffffffffff838183161783525050505061386b565b505050565b600073__BridgeInLibrary_______________________63446f95b48887876040518463ffffffff1660e01b815260040161318893929190614f2d565b602060405180830381865af41580156131a5573d6000803e3d6000fd5b505050506040513d601f19601f820116820180604052508101906131c99190614f74565b9050600260009054906101000a900473ffffffffffffffffffffffffffffffffffffffff1673ffffffffffffffffffffffffffffffffffffffff1663d954863c8289896040518463ffffffff1660e01b815260040161322a93929190615088565b600060405180830381600087803b15801561324457600080fd5b505af1158015613258573d6000803e3d6000fd5b505050506132836001600960008481526020019081526020016000205461377590919063ffffffff16565b6009600083815260200190815260200160002081905550600060096000838152602001908152602001600020549050600073__BridgeInLibrary_______________________63f453e662846132d885613933565b6040518363ffffffff1660e01b81526004016132f5929190615c56565b600060405180830381865af4158015613312573d6000803e3d6000fd5b505050506040513d6000823e3d601f19601f8201168201806040525081019061333b9190615cf6565b90506040518061010001604052808a73ffffffffffffffffffffffffffffffffffffffff1681526020013373ffffffffffffffffffffffffffffffffffffffff16815260200189815260200143815260200142815260200188888080601f016020809104026020016040519081016040528093929190818152602001838380828437600081840152601f19601f82011690508083019250505050505050815260200186868080601f016020809104026020016040519081016040528093929190818152602001838380828437600081840152601f19601f8201169050808301925050505050505081526020018281525060086000858152602001908152602001600020600084815260200190815260200160002060008201518160000160006101000a81548173ffffffffffffffffffffffffffffffffffffffff021916908373ffffffffffffffffffffffffffffffffffffffff16021790555060208201518160010160006101000a81548173ffffffffffffffffffffffffffffffffffffffff021916908373ffffffffffffffffffffffffffffffffffffffff16021790555060408201518160020155606082015181600301556080820151816004015560a0820151816005019080519060200190613517929190613f32565b5060c0820151816006019080519060200190613534929190613f32565b5060e0820151816007019080519060200190613551929190613f32565b5090505061357b88600a60008681526020019081526020016000205461377590919063ffffffff16565b600a6000858152602001908152602001600020819055506000600c60003373ffffffffffffffffffffffffffffffffffffffff1673ffffffffffffffffffffffffffffffffffffffff168152602001908152602001600020600085815260200190815260200160002054905061364b6001600c60003373ffffffffffffffffffffffffffffffffffffffff1673ffffffffffffffffffffffffffffffffffffffff16815260200190815260200160002060008781526020019081526020016000205461377590919063ffffffff16565b600c60003373ffffffffffffffffffffffffffffffffffffffff1673ffffffffffffffffffffffffffffffffffffffff16815260200190815260200160002060008681526020019081526020016000208190555081600b60003373ffffffffffffffffffffffffffffffffffffffff1673ffffffffffffffffffffffffffffffffffffffff168152602001908152602001600020600086815260200190815260200160002060008381526020019081526020016000209080519060200190613714929190613f32565b507f50ca3994210a330ab9ce981c2856cfdcec3e63e889ae3cea5202478d40dff2d5828b338c60405161374a9493929190615d78565b60405180910390a150505050505050505050565b600061376d8360000183613a0b565b905092915050565b600081836137839190615dc4565b905092915050565b600061379982600001613b1f565b9050919050565b60006137af8360000183613b30565b905092915050565b61383a846323b872dd60e01b8585856040516024016137d893929190615e1a565b604051602081830303815290604052907bffffffffffffffffffffffffffffffffffffffffffffffffffffffff19166020820180517bffffffffffffffffffffffffffffffffffffffffffffffffffffffff838183161783525050505061386b565b50505050565b600080836001016000848152602001908152602001600020541415905092915050565b600033905090565b60006138cd826040518060400160405280602081526020017f5361666545524332303a206c6f772d6c6576656c2063616c6c206661696c65648152508573ffffffffffffffffffffffffffffffffffffffff16613ba09092919063ffffffff16565b90506000815114806138ef5750808060200190518101906138ee9190615e7d565b5b61392e576040517f08c379a000000000000000000000000000000000000000000000000000000000815260040161392590615f1c565b60405180910390fd5b505050565b60606000600161394284613bb8565b01905060008167ffffffffffffffff81111561396157613960614300565b5b6040519080825280601f01601f1916602001820160405280156139935781602001600182028036833780820191505090505b509050600082602001820190505b600115613a00578080600190039150507f3031323334353637383961626364656600000000000000000000000000000000600a86061a8153600a85816139ea576139e9615f3c565b5b04945060008514156139fb57613a00565b6139a1565b819350505050919050565b60008083600101600084815260200190815260200160002054905060008114613b13576000600182613a3d91906159ef565b9050600060018660000180549050613a5591906159ef565b9050818114613ac4576000866000018281548110613a7657613a75615151565b5b9060005260206000200154905080876000018481548110613a9a57613a99615151565b5b90600052602060002001819055508387600101600083815260200190815260200160002081905550505b85600001805480613ad857613ad7615f6b565b5b600190038181906000526020600020016000905590558560010160008681526020019081526020016000206000905560019350505050613b19565b60009150505b92915050565b600081600001805490509050919050565b6000613b3c8383613840565b613b95578260000182908060018154018082558091505060019003906000526020600020016000909190919091505582600001805490508360010160008481526020019081526020016000208190555060019050613b9a565b600090505b92915050565b6060613baf8484600085613d0b565b90509392505050565b600080600090507a184f03e93ff9f4daa797ed6e38ed64bf6a1f0100000000000000008310613c16577a184f03e93ff9f4daa797ed6e38ed64bf6a1f0100000000000000008381613c0c57613c0b615f3c565b5b0492506040810190505b6d04ee2d6d415b85acef81000000008310613c53576d04ee2d6d415b85acef81000000008381613c4957613c48615f3c565b5b0492506020810190505b662386f26fc100008310613c8257662386f26fc100008381613c7857613c77615f3c565b5b0492506010810190505b6305f5e1008310613cab576305f5e1008381613ca157613ca0615f3c565b5b0492506008810190505b6127108310613cd0576127108381613cc657613cc5615f3c565b5b0492506004810190505b60648310613cf35760648381613ce957613ce8615f3c565b5b0492506002810190505b600a8310613d02576001810190505b80915050919050565b606082471015613d50576040517f08c379a0000000000000000000000000000000000000000000000000000000008152600401613d479061600c565b60405180910390fd5b6000808673ffffffffffffffffffffffffffffffffffffffff168587604051613d799190616073565b60006040518083038185875af1925050503d8060008114613db6576040519150601f19603f3d011682016040523d82523d6000602084013e613dbb565b606091505b5091509150613dcc87838387613dd8565b92505050949350505050565b60608315613e3b57600083511415613e3357613df385613e4e565b613e32576040517f08c379a0000000000000000000000000000000000000000000000000000000008152600401613e29906160d6565b60405180910390fd5b5b829050613e46565b613e458383613e71565b5b949350505050565b6000808273ffffffffffffffffffffffffffffffffffffffff163b119050919050565b600082511115613e845781518083602001fd5b806040517f08c379a0000000000000000000000000000000000000000000000000000000008152600401613eb891906160f6565b60405180910390fd5b604051806101000160405280600073ffffffffffffffffffffffffffffffffffffffff168152602001600073ffffffffffffffffffffffffffffffffffffffff1681526020016000815260200160008152602001600081526020016060815260200160608152602001606081525090565b828054613f3e90615371565b90600052602060002090601f016020900481019282613f605760008555613fa7565b82601f10613f7957805160ff1916838001178555613fa7565b82800160010185558215613fa7579182015b82811115613fa6578251825591602001919060010190613f8b565b5b509050613fb49190613fb8565b5090565b5b80821115613fd1576000816000905550600101613fb9565b5090565b6000604051905090565b600080fd5b600080fd5b6000819050919050565b613ffc81613fe9565b811461400757600080fd5b50565b60008135905061401981613ff3565b92915050565b60006020828403121561403557614034613fdf565b5b60006140438482850161400a565b91505092915050565b6000819050919050565b61405f8161404c565b82525050565b600060208201905061407a6000830184614056565b92915050565b600074ffffffffffffffffffffffffffffffffffffffffff82169050919050565b6140aa81614080565b81146140b557600080fd5b50565b600073ffffffffffffffffffffffffffffffffffffffff82169050919050565b60006140e3826140b8565b9050919050565b6000813590506140f9816140a1565b614102816140d8565b905092915050565b6000602082840312156141205761411f613fdf565b5b600061412e848285016140ea565b91505092915050565b600080fd5b600080fd5b600080fd5b60008083601f84011261415c5761415b614137565b5b8235905067ffffffffffffffff8111156141795761417861413c565b5b60208301915083600182028301111561419557614194614141565b5b9250929050565b6000806000604084860312156141b5576141b4613fdf565b5b60006141c3868287016140ea565b935050602084013567ffffffffffffffff8111156141e4576141e3613fe4565b5b6141f086828701614146565b92509250509250925092565b60008115159050919050565b614211816141fc565b82525050565b600060208201905061422c6000830184614208565b92915050565b61423b816140d8565b82525050565b60006020820190506142566000830184614232565b92915050565b6142658161404c565b811461427057600080fd5b50565b6000813590506142828161425c565b92915050565b600080600080608085870312156142a2576142a1613fdf565b5b60006142b08782880161400a565b94505060206142c1878288016140ea565b93505060406142d287828801614273565b92505060606142e3878288016140ea565b91505092959194509250565b6000601f19601f8301169050919050565b7f4e487b7100000000000000000000000000000000000000000000000000000000600052604160045260246000fd5b614338826142ef565b810181811067ffffffffffffffff8211171561435757614356614300565b5b80604052505050565b600061436a613fd5565b9050614376828261432f565b919050565b600067ffffffffffffffff82111561439657614395614300565b5b602082029050602081019050919050565b60006143ba6143b58461437b565b614360565b905080838252602082019050602084028301858111156143dd576143dc614141565b5b835b8181101561440657806143f288826140ea565b8452602084019350506020810190506143df565b5050509392505050565b600082601f83011261442557614424614137565b5b81356144358482602086016143a7565b91505092915050565b60008083601f84011261445457614453614137565b5b8235905067ffffffffffffffff8111156144715761447061413c565b5b60208301915083602082028301111561448d5761448c614141565b5b9250929050565b6000806000604084860312156144ad576144ac613fdf565b5b600084013567ffffffffffffffff8111156144cb576144ca613fe4565b5b6144d786828701614410565b935050602084013567ffffffffffffffff8111156144f8576144f7613fe4565b5b6145048682870161443e565b92509250509250925092565b600081519050919050565b600082825260208201905092915050565b6000819050602082019050919050565b6145458161404c565b82525050565b6000614557838361453c565b60208301905092915050565b6000602082019050919050565b600061457b82614510565b614585818561451b565b93506145908361452c565b8060005b838110156145c15781516145a8888261454b565b97506145b383614563565b925050600181019050614594565b5085935050505092915050565b600060208201905081810360008301526145e88184614570565b905092915050565b6000806000806060858703121561460a57614609613fdf565b5b6000614618878288016140ea565b9450506020614629878288016140ea565b935050604085013567ffffffffffffffff81111561464a57614649613fe4565b5b61465687828801614146565b925092505092959194509250565b600081519050919050565b600082825260208201905092915050565b6000819050602082019050919050565b600081519050919050565b600082825260208201905092915050565b60005b838110156146ca5780820151818401526020810190506146af565b838111156146d9576000848401525b50505050565b60006146ea82614690565b6146f4818561469b565b93506147048185602086016146ac565b61470d816142ef565b840191505092915050565b600061472483836146df565b905092915050565b6000602082019050919050565b600061474482614664565b61474e818561466f565b93508360208202850161476085614680565b8060005b8581101561479c578484038952815161477d8582614718565b94506147888361472c565b925060208a01995050600181019050614764565b50829750879550505050505092915050565b600060208201905081810360008301526147c88184614739565b905092915050565b600080600080604085870312156147ea576147e9613fdf565b5b600085013567ffffffffffffffff81111561480857614807613fe4565b5b61481487828801614146565b9450945050602085013567ffffffffffffffff81111561483757614836613fe4565b5b61484387828801614146565b925092505092959194509250565b60008083601f84011261486757614866614137565b5b8235905067ffffffffffffffff8111156148845761488361413c565b5b6020830191508360208202830111156148a05761489f614141565b5b9250929050565b600080602083850312156148be576148bd613fdf565b5b600083013567ffffffffffffffff8111156148dc576148db613fe4565b5b6148e885828601614851565b92509250509250929050565b600080fd5b600067ffffffffffffffff82111561491457614913614300565b5b61491d826142ef565b9050602081019050919050565b82818337600083830152505050565b600061494c614947846148f9565b614360565b905082815260208101848484011115614968576149676148f4565b5b61497384828561492a565b509392505050565b600082601f8301126149905761498f614137565b5b81356149a0848260208601614939565b91505092915050565b600080604083850312156149c0576149bf613fdf565b5b60006149ce858286016140ea565b925050602083013567ffffffffffffffff8111156149ef576149ee613fe4565b5b6149fb8582860161497b565b9150509250929050565b600080600080600060808688031215614a2157614a20613fdf565b5b6000614a2f888289016140ea565b955050602086013567ffffffffffffffff811115614a5057614a4f613fe4565b5b614a5c88828901614146565b94509450506040614a6f88828901614273565b9250506060614a8088828901614273565b9150509295509295909350565b600081519050919050565b600082825260208201905092915050565b6000819050602082019050919050565b614ac2816140d8565b82525050565b600061010083016000830151614ae16000860182614ab9565b506020830151614af46020860182614ab9565b506040830151614b07604086018261453c565b506060830151614b1a606086018261453c565b506080830151614b2d608086018261453c565b5060a083015184820360a0860152614b4582826146df565b91505060c083015184820360c0860152614b5f82826146df565b91505060e083015184820360e0860152614b7982826146df565b9150508091505092915050565b6000614b928383614ac8565b905092915050565b6000602082019050919050565b6000614bb282614a8d565b614bbc8185614a98565b935083602082028501614bce85614aa9565b8060005b85811015614c0a5784840389528151614beb8582614b86565b9450614bf683614b9a565b925060208a01995050600181019050614bd2565b50829750879550505050505092915050565b60006020820190508181036000830152614c368184614ba7565b905092915050565b600080600060608486031215614c5757614c56613fdf565b5b6000614c65868287016140ea565b9350506020614c76868287016140ea565b9250506040614c87868287016140ea565b9150509250925092565b600080600060608486031215614caa57614ca9613fdf565b5b6000614cb88682870161400a565b9350506020614cc9868287016140ea565b9250506040614cda86828701614273565b9150509250925092565b60008060008060008060808789031215614d0157614d00613fdf565b5b6000614d0f89828a016140ea565b9650506020614d2089828a01614273565b955050604087013567ffffffffffffffff811115614d4157614d40613fe4565b5b614d4d89828a01614146565b9450945050606087013567ffffffffffffffff811115614d7057614d6f613fe4565b5b614d7c89828a01614146565b92509250509295509295509295565b600082825260208201905092915050565b7f427269646765496e3a6f6e6c7920666f722057616c6c65742063616c6c000000600082015250565b6000614dd2601d83614d8b565b9150614ddd82614d9c565b602082019050919050565b60006020820190508181036000830152614e0181614dc5565b9050919050565b7f6e6f742070617573656400000000000000000000000000000000000000000000600082015250565b6000614e3e600a83614d8b565b9150614e4982614e08565b602082019050919050565b60006020820190508181036000830152614e6d81614e31565b9050919050565b7f696e76616c696420696e70757400000000000000000000000000000000000000600082015250565b6000614eaa600d83614d8b565b9150614eb582614e74565b602082019050919050565b60006020820190508181036000830152614ed981614e9d565b9050919050565b614ee9816140d8565b82525050565b600082825260208201905092915050565b6000614f0c8385614eef565b9350614f1983858461492a565b614f22836142ef565b840190509392505050565b6000604082019050614f426000830186614ee0565b8181036020830152614f55818486614f00565b9050949350505050565b600081519050614f6e81613ff3565b92915050565b600060208284031215614f8a57614f89613fdf565b5b6000614f9884828501614f5f565b91505092915050565b7f6e6f7420737570706f7274000000000000000000000000000000000000000000600082015250565b6000614fd7600b83614d8b565b9150614fe282614fa1565b602082019050919050565b6000602082019050818103600083015261500681614fca565b9050919050565b7f6465706f736974206e6f7420656e6f7567680000000000000000000000000000600082015250565b6000615043601283614d8b565b915061504e8261500d565b602082019050919050565b6000602082019050818103600083015261507281615036565b9050919050565b61508281613fe9565b82525050565b600060608201905061509d6000830186615079565b6150aa6020830185614232565b6150b76040830184614056565b949350505050565b7f496e76616c696420746f6b656e732f746172676574436861696e49647320696e60008201527f7075740000000000000000000000000000000000000000000000000000000000602082015250565b600061511b602383614d8b565b9150615126826150bf565b604082019050919050565b6000602082019050818103600083015261514a8161510e565b9050919050565b7f4e487b7100000000000000000000000000000000000000000000000000000000600052603260045260246000fd5b600080fd5b600080fd5b600080fd5b600080833560016020038436030381126151ac576151ab615180565b5b80840192508235915067ffffffffffffffff8211156151ce576151cd615185565b5b6020830192506001820236038313156151ea576151e961518a565b5b509250929050565b7f4e487b7100000000000000000000000000000000000000000000000000000000600052601160045260246000fd5b600061522c8261404c565b91507fffffffffffffffffffffffffffffffffffffffffffffffffffffffffffffffff82141561525f5761525e6151f2565b5b600182019050919050565b7f696e76616c696420627269646765206f75742061646472657373000000000000600082015250565b60006152a0601a83614d8b565b91506152ab8261526a565b602082019050919050565b600060208201905081810360008301526152cf81615293565b9050919050565b7f696e76616c6964206c696d697465722061646472657373000000000000000000600082015250565b600061530c601783614d8b565b9150615317826152d6565b602082019050919050565b6000602082019050818103600083015261533b816152ff565b9050919050565b7f4e487b7100000000000000000000000000000000000000000000000000000000600052602260045260246000fd5b6000600282049050600182168061538957607f821691505b6020821081141561539d5761539c615342565b5b50919050565b7f4272696765496e3a6f6e6c7920666f7220706175736520636f6e74726f6c6c6560008201527f7200000000000000000000000000000000000000000000000000000000000000602082015250565b60006153ff602183614d8b565b915061540a826153a3565b604082019050919050565b6000602082019050818103600083015261542e816153f2565b9050919050565b7f616c726561647920706175736564000000000000000000000000000000000000600082015250565b600061546b600e83614d8b565b915061547682615435565b602082019050919050565b6000602082019050818103600083015261549a8161545e565b9050919050565b7f4272696765496e3a706175736564000000000000000000000000000000000000600082015250565b60006154d7600e83614d8b565b91506154e2826154a1565b602082019050919050565b60006020820190508181036000830152615506816154ca565b9050919050565b7f696e70757420746f6b656e20636f756e74206578636565640000000000000000600082015250565b6000615543601883614d8b565b915061554e8261550d565b602082019050919050565b6000602082019050818103600083015261557281615536565b9050919050565b60008235600160400383360303811261559557615594615180565b5b80830191505092915050565b7f746f6b656e4b6579206e6f742065786973740000000000000000000000000000600082015250565b60006155d7601283614d8b565b91506155e2826155a1565b602082019050919050565b60006020820190508181036000830152615606816155ca565b9050919050565b60006156198385614d8b565b935061562683858461492a565b61562f836142ef565b840190509392505050565b600060408201905061564f6000830186614232565b818103602083015261566281848661560d565b9050949350505050565b600061567782614690565b6156818185614eef565b93506156918185602086016146ac565b61569a816142ef565b840191505092915050565b60006040820190506156ba6000830185614ee0565b81810360208301526156cc818461566c565b90509392505050565b7f496e76616c696420696e70757400000000000000000000000000000000000000600082015250565b600061570b600d83614d8b565b9150615716826156d5565b602082019050919050565b6000602082019050818103600083015261573a816156fe565b9050919050565b7f51756572792072616e6765206973206578636565646564000000000000000000600082015250565b6000615777601783614d8b565b915061578282615741565b602082019050919050565b600060208201905081810360008301526157a68161576a565b9050919050565b7f746f6b656e20636f756e74206578636565640000000000000000000000000000600082015250565b60006157e3601283614d8b565b91506157ee826157ad565b602082019050919050565b60006020820190508181036000830152615812816157d6565b9050919050565b7f746f6b656e4b657920616c726561647920616464656400000000000000000000600082015250565b600061584f601683614d8b565b915061585a82615819565b602082019050919050565b6000602082019050818103600083015261587e81615842565b9050919050565b7f4272696765496e3a616c726561647920696e697469616c697a65640000000000600082015250565b60006158bb601b83614d8b565b91506158c682615885565b602082019050919050565b600060208201905081810360008301526158ea816158ae565b9050919050565b7f4f776e61626c653a206e6577206f776e657220697320746865207a65726f206160008201527f6464726573730000000000000000000000000000000000000000000000000000602082015250565b600061594d602683614d8b565b9150615958826158f1565b604082019050919050565b6000602082019050818103600083015261597c81615940565b9050919050565b7f4f776e61626c653a2063616c6c6572206973206e6f7420746865206f776e6572600082015250565b60006159b9602083614d8b565b91506159c482615983565b602082019050919050565b600060208201905081810360008301526159e8816159ac565b9050919050565b60006159fa8261404c565b9150615a058361404c565b925082821015615a1857615a176151f2565b5b828203905092915050565b6000604082019050615a386000830185614232565b615a456020830184614056565b9392505050565b7f546f6b656e206973206e6f7420737570706f727420696e20746861742063686160008201527f696e000000000000000000000000000000000000000000000000000000000000602082015250565b6000615aa8602283614d8b565b9150615ab382615a4c565b604082019050919050565b60006020820190508181036000830152615ad781615a9b565b9050919050565b7f696e76616c696420616d6f756e74000000000000000000000000000000000000600082015250565b6000615b14600e83614d8b565b9150615b1f82615ade565b602082019050919050565b60006020820190508181036000830152615b4381615b07565b9050919050565b6000604082019050615b5f6000830185614232565b615b6c6020830184614232565b9392505050565b600081519050615b828161425c565b92915050565b600060208284031215615b9e57615b9d613fdf565b5b6000615bac84828501615b73565b91505092915050565b7f5361666545524332303a20617070726f76652066726f6d206e6f6e2d7a65726f60008201527f20746f206e6f6e2d7a65726f20616c6c6f77616e636500000000000000000000602082015250565b6000615c11603683614d8b565b9150615c1c82615bb5565b604082019050919050565b60006020820190508181036000830152615c4081615c04565b9050919050565b615c5081613fe9565b82525050565b6000604082019050615c6b6000830185615c47565b8181036020830152615c7d818461566c565b90509392505050565b6000615c99615c94846148f9565b614360565b905082815260208101848484011115615cb557615cb46148f4565b5b615cc08482856146ac565b509392505050565b600082601f830112615cdd57615cdc614137565b5b8151615ced848260208601615c86565b91505092915050565b600060208284031215615d0c57615d0b613fdf565b5b600082015167ffffffffffffffff811115615d2a57615d29613fe4565b5b615d3684828501615cc8565b91505092915050565b6000615d4a82614690565b615d548185614d8b565b9350615d648185602086016146ac565b615d6d816142ef565b840191505092915050565b60006080820190508181036000830152615d928187615d3f565b9050615da16020830186614232565b615dae6040830185614232565b615dbb6060830184614056565b95945050505050565b6000615dcf8261404c565b9150615dda8361404c565b9250827fffffffffffffffffffffffffffffffffffffffffffffffffffffffffffffffff03821115615e0f57615e0e6151f2565b5b828201905092915050565b6000606082019050615e2f6000830186614232565b615e3c6020830185614232565b615e496040830184614056565b949350505050565b615e5a816141fc565b8114615e6557600080fd5b50565b600081519050615e7781615e51565b92915050565b600060208284031215615e9357615e92613fdf565b5b6000615ea184828501615e68565b91505092915050565b7f5361666545524332303a204552433230206f7065726174696f6e20646964206e60008201527f6f74207375636365656400000000000000000000000000000000000000000000602082015250565b6000615f06602a83614d8b565b9150615f1182615eaa565b604082019050919050565b60006020820190508181036000830152615f3581615ef9565b9050919050565b7f4e487b7100000000000000000000000000000000000000000000000000000000600052601260045260246000fd5b7f4e487b7100000000000000000000000000000000000000000000000000000000600052603160045260246000fd5b7f416464726573733a20696e73756666696369656e742062616c616e636520666f60008201527f722063616c6c0000000000000000000000000000000000000000000000000000602082015250565b6000615ff6602683614d8b565b915061600182615f9a565b604082019050919050565b6000602082019050818103600083015261602581615fe9565b9050919050565b600081519050919050565b600081905092915050565b600061604d8261602c565b6160578185616037565b93506160678185602086016146ac565b80840191505092915050565b600061607f8284616042565b915081905092915050565b7f416464726573733a2063616c6c20746f206e6f6e2d636f6e7472616374000000600082015250565b60006160c0601d83614d8b565b91506160cb8261608a565b602082019050919050565b600060208201905081810360008301526160ef816160b3565b9050919050565b600060208201905081810360008301526161108184615d3f565b90509291505056fea26474726f6e58221220aa402497e1769b8501807d21d44838034ffe3f24e2072ae4391ebcfc5a63090464736f6c634300080b0033",
  "deployedBytecode": "0x6080604052600436106101d85760003560e01c806385d2e7cf11610102578063b259ca6511610095578063d96c397611610064578063d96c397614610919578063e469640a1461095e578063f2fde38b146109a1578063fa56902e146109e4576101d8565b8063b259ca651461080b578063bbd0acac1461084e578063c0c53b8b14610893578063d954863c146108d6576101d8565b806394bd77d8116100d157806394bd77d8146106e757806398cf2dcd1461072a5780639d76ea5814610781578063b187bd26146107c6576101d8565b806385d2e7cf146105ec5780638da5cb5b1461060857806390b658aa1461064d57806390efb3d814610690576101d8565b806368284a9c1161017a57806374b87f671161014957806374b87f67146104dc5780637a29084c1461052157806381020a34146105645780638456cb59146105bb576101d8565b806368284a9c146103ce5780636da3dbbd146104115780636df71f6614610468578063715018a6146104ab576101d8565b806337ce7549116101b657806337ce7549146102a8578063407d83d9146102ed5780634b8feb4f1461034457806360b4778914610389576101d8565b806301fecab6146101dd5780631ef3755d146102345780632b41513b14610265575b600080fd5b3480156101e957600080fd5b50d380156101f657600080fd5b50d2801561020357600080fd5b5061021e6004803603810190610219919061401f565b610a29565b60405161022b9190614065565b60405180910390f35b34801561024057600080fd5b50d3801561024d57600080fd5b50d2801561025a57600080fd5b50610263610a41565b005b34801561027157600080fd5b50d3801561027e57600080fd5b50d2801561028b57600080fd5b506102a660048036038101906102a1919061410a565b610bc6565b005b3480156102b457600080fd5b50d380156102c157600080fd5b50d280156102ce57600080fd5b506102d7610d0a565b6040516102e49190614065565b60405180910390f35b3480156102f957600080fd5b50d3801561030657600080fd5b50d2801561031357600080fd5b5061032e6004803603810190610329919061419c565b610d0f565b60405161033b9190614217565b60405180910390f35b34801561035057600080fd5b50d3801561035d57600080fd5b50d2801561036a57600080fd5b50610373610dae565b6040516103809190614241565b60405180910390f35b34801561039557600080fd5b50d380156103a257600080fd5b50d280156103af57600080fd5b506103b8610dd4565b6040516103c59190614241565b60405180910390f35b3480156103da57600080fd5b50d380156103e757600080fd5b50d280156103f457600080fd5b5061040f600480360381019061040a9190614288565b610dfa565b005b34801561041d57600080fd5b50d3801561042a57600080fd5b50d2801561043757600080fd5b50610452600480360381019061044d9190614494565b610faa565b60405161045f91906145ce565b60405180910390f35b34801561047457600080fd5b50d3801561048157600080fd5b50d2801561048e57600080fd5b506104a960048036038101906104a4919061410a565b61115c565b005b3480156104b757600080fd5b50d380156104c457600080fd5b50d280156104d157600080fd5b506104da6112fa565b005b3480156104e857600080fd5b50d380156104f557600080fd5b50d2801561050257600080fd5b5061050b61130e565b6040516105189190614241565b60405180910390f35b34801561052d57600080fd5b50d3801561053a57600080fd5b50d2801561054757600080fd5b50610562600480360381019061055d919061410a565b611334565b005b34801561057057600080fd5b50d3801561057d57600080fd5b50d2801561058a57600080fd5b506105a560048036038101906105a091906145f0565b6114d2565b6040516105b291906147ae565b60405180910390f35b3480156105c757600080fd5b50d380156105d457600080fd5b50d280156105e157600080fd5b506105ea61172a565b005b610606600480360381019061060191906147d0565b6118a9565b005b34801561061457600080fd5b50d3801561062157600080fd5b50d2801561062e57600080fd5b50610637611a4f565b6040516106449190614241565b60405180910390f35b34801561065957600080fd5b50d3801561066657600080fd5b50d2801561067357600080fd5b5061068e600480360381019061068991906148a7565b611a78565b005b34801561069c57600080fd5b50d380156106a957600080fd5b50d280156106b657600080fd5b506106d160048036038101906106cc91906149a9565b611d69565b6040516106de9190614065565b60405180910390f35b3480156106f357600080fd5b50d3801561070057600080fd5b50d2801561070d57600080fd5b506107286004803603810190610723919061410a565b611e05565b005b34801561073657600080fd5b50d3801561074357600080fd5b50d2801561075057600080fd5b5061076b60048036038101906107669190614a05565b611ec1565b6040516107789190614c1c565b60405180910390f35b34801561078d57600080fd5b50d3801561079a57600080fd5b50d280156107a757600080fd5b506107b06123a2565b6040516107bd9190614241565b60405180910390f35b3480156107d257600080fd5b50d380156107df57600080fd5b50d280156107ec57600080fd5b506107f56123c8565b6040516108029190614217565b60405180910390f35b34801561081757600080fd5b50d3801561082457600080fd5b50d2801561083157600080fd5b5061084c600480360381019061084791906148a7565b6123db565b005b34801561085a57600080fd5b50d3801561086757600080fd5b50d2801561087457600080fd5b5061087d6126e3565b60405161088a9190614065565b60405180910390f35b34801561089f57600080fd5b50d380156108ac57600080fd5b50d280156108b957600080fd5b506108d460048036038101906108cf9190614c3e565b6126e8565b005b3480156108e257600080fd5b50d380156108ef57600080fd5b50d280156108fc57600080fd5b5061091760048036038101906109129190614c91565b612849565b005b34801561092557600080fd5b50d3801561093257600080fd5b50d2801561093f57600080fd5b506109486129e9565b6040516109559190614241565b60405180910390f35b34801561096a57600080fd5b50d3801561097757600080fd5b50d2801561098457600080fd5b5061099f600480360381019061099a9190614ce4565b612a0f565b005b3480156109ad57600080fd5b50d380156109ba57600080fd5b50d280156109c757600080fd5b506109e260048036038101906109dd919061410a565b612afb565b005b3480156109f057600080fd5b50d380156109fd57600080fd5b50d28015610a0a57600080fd5b50610a13612b7f565b604051610a209190614065565b60405180910390f35b600d6020528060005260406000206000915090505481565b600360009054906101000a900473ffffffffffffffffffffffffffffffffffffffff1673ffffffffffffffffffffffffffffffffffffffff163373ffffffffffffffffffffffffffffffffffffffff1614610ad1576040517f08c379a0000000000000000000000000000000000000000000000000000000008152600401610ac890614de8565b60405180910390fd5b60011515600560149054906101000a900460ff16151514610b27576040517f08c379a0000000000000000000000000000000000000000000000000000000008152600401610b1e90614e54565b60405180910390fd5b6000600560146101000a81548160ff021916908315150217905550600260009054906101000a900473ffffffffffffffffffffffffffffffffffffffff1673ffffffffffffffffffffffffffffffffffffffff16631ef3755d6040518163ffffffff1660e01b8152600401600060405180830381600087803b158015610bac57600080fd5b505af1158015610bc0573d6000803e3d6000fd5b50505050565b600360009054906101000a900473ffffffffffffffffffffffffffffffffffffffff1673ffffffffffffffffffffffffffffffffffffffff163373ffffffffffffffffffffffffffffffffffffffff1614610c56576040517f08c379a0000000000000000000000000000000000000000000000000000000008152600401610c4d90614de8565b60405180910390fd5b600073ffffffffffffffffffffffffffffffffffffffff168173ffffffffffffffffffffffffffffffffffffffff161415610cc6576040517f08c379a0000000000000000000000000000000000000000000000000000000008152600401610cbd90614ec0565b60405180910390fd5b80600560006101000a81548173ffffffffffffffffffffffffffffffffffffffff021916908373ffffffffffffffffffffffffffffffffffffffff16021790555050565b606481565b60008073__$626e42c3f3fdbda1180711fae0265f84c2$__63446f95b48686866040518463ffffffff1660e01b8152600401610d4d93929190614f2d565b602060405180830381865af4158015610d6a573d6000803e3d6000fd5b505050506040513d601f19601f82011682018060405250810190610d8e9190614f74565b9050610da4816006612b8490919063ffffffff16565b9150509392505050565b600360009054906101000a900473ffffffffffffffffffffffffffffffffffffffff1681565b600560009054906101000a900473ffffffffffffffffffffffffffffffffffffffff1681565b610e02612b9b565b610e16846006612b8490919063ffffffff16565b610e55576040517f08c379a0000000000000000000000000000000000000000000000000000000008152600401610e4c90614fed565b60405180910390fd5b81600d6000868152602001908152602001600020541015610eab576040517f08c379a0000000000000000000000000000000000000000000000000000000008152600401610ea290615059565b60405180910390fd5b610ed182600d600087815260200190815260200160002054612c1990919063ffffffff16565b600d600086815260200190815260200160002081905550600260009054906101000a900473ffffffffffffffffffffffffffffffffffffffff1673ffffffffffffffffffffffffffffffffffffffff1663a6fb97d18585856040518463ffffffff1660e01b8152600401610f4793929190615088565b600060405180830381600087803b158015610f6157600080fd5b505af1158015610f75573d6000803e3d6000fd5b50505050610fa481838573ffffffffffffffffffffffffffffffffffffffff16612c2f9092919063ffffffff16565b50505050565b606082829050845114610ff2576040517f08c379a0000000000000000000000000000000000000000000000000000000008152600401610fe990615131565b60405180910390fd5b835167ffffffffffffffff81111561100d5761100c614300565b5b60405190808252806020026020018201604052801561103b5781602001602082028036833780820191505090505b50905060005b845181101561115457600073__$626e42c3f3fdbda1180711fae0265f84c2$__63446f95b487848151811061107957611078615151565b5b602002602001015187878681811061109457611093615151565b5b90506020028101906110a6919061518f565b6040518463ffffffff1660e01b81526004016110c493929190614f2d565b602060405180830381865af41580156110e1573d6000803e3d6000fd5b505050506040513d601f19601f820116820180604052508101906111059190614f74565b90506000600960008381526020019081526020016000205490508084848151811061113357611132615151565b5b6020026020010181815250505050808061114c90615221565b915050611041565b509392505050565b600360009054906101000a900473ffffffffffffffffffffffffffffffffffffffff1673ffffffffffffffffffffffffffffffffffffffff163373ffffffffffffffffffffffffffffffffffffffff16146111ec576040517f08c379a00000000000000000000000000000000000000000000000000000000081526004016111e390614de8565b60405180910390fd5b600073ffffffffffffffffffffffffffffffffffffffff16600260009054906101000a900473ffffffffffffffffffffffffffffffffffffffff1673ffffffffffffffffffffffffffffffffffffffff161480156112775750600073ffffffffffffffffffffffffffffffffffffffff168173ffffffffffffffffffffffffffffffffffffffff1614155b6112b6576040517f08c379a00000000000000000000000000000000000000000000000000000000081526004016112ad906152b6565b60405180910390fd5b80600260006101000a81548173ffffffffffffffffffffffffffffffffffffffff021916908373ffffffffffffffffffffffffffffffffffffffff16021790555050565b611302612b9b565b61130c6000612cb5565b565b600e60009054906101000a900473ffffffffffffffffffffffffffffffffffffffff1681565b600360009054906101000a900473ffffffffffffffffffffffffffffffffffffffff1673ffffffffffffffffffffffffffffffffffffffff163373ffffffffffffffffffffffffffffffffffffffff16146113c4576040517f08c379a00000000000000000000000000000000000000000000000000000000081526004016113bb90614de8565b60405180910390fd5b600073ffffffffffffffffffffffffffffffffffffffff16600e60009054906101000a900473ffffffffffffffffffffffffffffffffffffffff1673ffffffffffffffffffffffffffffffffffffffff1614801561144f5750600073ffffffffffffffffffffffffffffffffffffffff168173ffffffffffffffffffffffffffffffffffffffff1614155b61148e576040517f08c379a000000000000000000000000000000000000000000000000000000000815260040161148590615322565b60405180910390fd5b80600e60006101000a81548173ffffffffffffffffffffffffffffffffffffffff021916908373ffffffffffffffffffffffffffffffffffffffff16021790555050565b6060600073__$626e42c3f3fdbda1180711fae0265f84c2$__63446f95b48686866040518463ffffffff1660e01b815260040161151193929190614f2d565b602060405180830381865af415801561152e573d6000803e3d6000fd5b505050506040513d601f19601f820116820180604052508101906115529190614f74565b90506000600c60008873ffffffffffffffffffffffffffffffffffffffff1673ffffffffffffffffffffffffffffffffffffffff16815260200190815260200160002060008381526020019081526020016000205490508067ffffffffffffffff8111156115c3576115c2614300565b5b6040519080825280602002602001820160405280156115f657816020015b60608152602001906001900390816115e15790505b50925060005b8181101561171f57600b60008973ffffffffffffffffffffffffffffffffffffffff1673ffffffffffffffffffffffffffffffffffffffff16815260200190815260200160002060008481526020019081526020016000206000828152602001908152602001600020805461167090615371565b80601f016020809104026020016040519081016040528092919081815260200182805461169c90615371565b80156116e95780601f106116be576101008083540402835291602001916116e9565b820191906000526020600020905b8154815290600101906020018083116116cc57829003601f168201915b505050505084828151811061170157611700615151565b5b6020026020010181905250808061171790615221565b9150506115fc565b505050949350505050565b600560009054906101000a900473ffffffffffffffffffffffffffffffffffffffff1673ffffffffffffffffffffffffffffffffffffffff163373ffffffffffffffffffffffffffffffffffffffff16146117ba576040517f08c379a00000000000000000000000000000000000000000000000000000000081526004016117b190615415565b60405180910390fd5b600560149054906101000a900460ff161561180a576040517f08c379a000000000000000000000000000000000000000000000000000000000815260040161180190615481565b60405180910390fd5b6001600560146101000a81548160ff021916908315150217905550600260009054906101000a900473ffffffffffffffffffffffffffffffffffffffff1673ffffffffffffffffffffffffffffffffffffffff16638456cb596040518163ffffffff1660e01b8152600401600060405180830381600087803b15801561188f57600080fd5b505af11580156118a3573d6000803e3d6000fd5b50505050565b600560149054906101000a900460ff16156118f9576040517f08c379a00000000000000000000000000000000000000000000000000000000081526004016118f0906154ed565b60405180910390fd5b611927600460009054906101000a900473ffffffffffffffffffffffffffffffffffffffff16348686612d79565b600460009054906101000a900473ffffffffffffffffffffffffffffffffffffffff1673ffffffffffffffffffffffffffffffffffffffff1663d0e30db0346040518263ffffffff1660e01b81526004016000604051808303818588803b15801561199157600080fd5b505af11580156119a5573d6000803e3d6000fd5b5050505050611a19600260009054906101000a900473ffffffffffffffffffffffffffffffffffffffff1634600460009054906101000a900473ffffffffffffffffffffffffffffffffffffffff1673ffffffffffffffffffffffffffffffffffffffff16612ffc9092919063ffffffff16565b611a49600460009054906101000a900473ffffffffffffffffffffffffffffffffffffffff16348686868661314b565b50505050565b60008060009054906101000a900473ffffffffffffffffffffffffffffffffffffffff16905090565b600360009054906101000a900473ffffffffffffffffffffffffffffffffffffffff1673ffffffffffffffffffffffffffffffffffffffff163373ffffffffffffffffffffffffffffffffffffffff1614611b08576040517f08c379a0000000000000000000000000000000000000000000000000000000008152600401611aff90614de8565b60405180910390fd5b600a828290501115611b4f576040517f08c379a0000000000000000000000000000000000000000000000000000000008152600401611b4690615559565b60405180910390fd5b60005b82829050811015611d6457600073__$626e42c3f3fdbda1180711fae0265f84c2$__63446f95b4858585818110611b8c57611b8b615151565b5b9050602002810190611b9e9190615579565b6000016020810190611bb0919061410a565b868686818110611bc357611bc2615151565b5b9050602002810190611bd59190615579565b8060200190611be4919061518f565b6040518463ffffffff1660e01b8152600401611c0293929190614f2d565b602060405180830381865af4158015611c1f573d6000803e3d6000fd5b505050506040513d601f19601f82011682018060405250810190611c439190614f74565b9050611c59816006612b8490919063ffffffff16565b611c98576040517f08c379a0000000000000000000000000000000000000000000000000000000008152600401611c8f906155ed565b60405180910390fd5b611cac81600661375e90919063ffffffff16565b507f617a625823f687a1440db57ae598a2ba91f2c2d180bb2adc78e5fbfed162ca33848484818110611ce157611ce0615151565b5b9050602002810190611cf39190615579565b6000016020810190611d05919061410a565b858585818110611d1857611d17615151565b5b9050602002810190611d2a9190615579565b8060200190611d39919061518f565b604051611d489392919061563a565b60405180910390a1508080611d5c90615221565b915050611b52565b505050565b60008073__$626e42c3f3fdbda1180711fae0265f84c2$__63446f95b485856040518363ffffffff1660e01b8152600401611da59291906156a5565b602060405180830381865af4158015611dc2573d6000803e3d6000fd5b505050506040513d601f19601f82011682018060405250810190611de69190614f74565b9050600a60008281526020019081526020016000205491505092915050565b611e0d612b9b565b600073ffffffffffffffffffffffffffffffffffffffff168173ffffffffffffffffffffffffffffffffffffffff161415611e7d576040517f08c379a0000000000000000000000000000000000000000000000000000000008152600401611e7490614ec0565b60405180910390fd5b80600360006101000a81548173ffffffffffffffffffffffffffffffffffffffff021916908373ffffffffffffffffffffffffffffffffffffffff16021790555050565b6060600073__$626e42c3f3fdbda1180711fae0265f84c2$__63446f95b48888886040518463ffffffff1660e01b8152600401611f0093929190614f2d565b602060405180830381865af4158015611f1d573d6000803e3d6000fd5b505050506040513d601f19601f82011682018060405250810190611f419190614f74565b9050600060096000838152602001908152602001600020541415611f655750612399565b60096000828152602001908152602001600020548311158015611f885750600084115b8015611f945750828411155b611fd3576040517f08c379a0000000000000000000000000000000000000000000000000000000008152600401611fca90615721565b60405180910390fd5b6000611ffb6001611fed8787612c1990919063ffffffff16565b61377590919063ffffffff16565b90506064811115612041576040517f08c379a00000000000000000000000000000000000000000000000000000000081526004016120389061578d565b60405180910390fd5b8067ffffffffffffffff81111561205b5761205a614300565b5b60405190808252806020026020018201604052801561209457816020015b612081613ec1565b8152602001906001900390816120795790505b50925060005b81811015612395576008600084815260200190815260200160002060006120ca888461377590919063ffffffff16565b8152602001908152602001600020604051806101000160405290816000820160009054906101000a900473ffffffffffffffffffffffffffffffffffffffff1673ffffffffffffffffffffffffffffffffffffffff1673ffffffffffffffffffffffffffffffffffffffff1681526020016001820160009054906101000a900473ffffffffffffffffffffffffffffffffffffffff1673ffffffffffffffffffffffffffffffffffffffff1673ffffffffffffffffffffffffffffffffffffffff1681526020016002820154815260200160038201548152602001600482015481526020016005820180546121be90615371565b80601f01602080910402602001604051908101604052809291908181526020018280546121ea90615371565b80156122375780601f1061220c57610100808354040283529160200191612237565b820191906000526020600020905b81548152906001019060200180831161221a57829003601f168201915b5050505050815260200160068201805461225090615371565b80601f016020809104026020016040519081016040528092919081815260200182805461227c90615371565b80156122c95780601f1061229e576101008083540402835291602001916122c9565b820191906000526020600020905b8154815290600101906020018083116122ac57829003601f168201915b505050505081526020016007820180546122e290615371565b80601f016020809104026020016040519081016040528092919081815260200182805461230e90615371565b801561235b5780601f106123305761010080835404028352916020019161235b565b820191906000526020600020905b81548152906001019060200180831161233e57829003601f168201915b50505050508152505084828151811061237757612376615151565b5b6020026020010181905250808061238d90615221565b91505061209a565b5050505b95945050505050565b600460009054906101000a900473ffffffffffffffffffffffffffffffffffffffff1681565b600560149054906101000a900460ff1681565b600360009054906101000a900473ffffffffffffffffffffffffffffffffffffffff1673ffffffffffffffffffffffffffffffffffffffff163373ffffffffffffffffffffffffffffffffffffffff161461246b576040517f08c379a000000000000000000000000000000000000000000000000000000000815260040161246290614de8565b60405180910390fd5b60c8612477600661378b565b111580156124895750600a8282905011155b6124c8576040517f08c379a00000000000000000000000000000000000000000000000000000000081526004016124bf906157f9565b60405180910390fd5b60005b828290508110156126de57600073__$626e42c3f3fdbda1180711fae0265f84c2$__63446f95b485858581811061250557612504615151565b5b90506020028101906125179190615579565b6000016020810190612529919061410a565b86868681811061253c5761253b615151565b5b905060200281019061254e9190615579565b806020019061255d919061518f565b6040518463ffffffff1660e01b815260040161257b93929190614f2d565b602060405180830381865af4158015612598573d6000803e3d6000fd5b505050506040513d601f19601f820116820180604052508101906125bc9190614f74565b90506125d2816006612b8490919063ffffffff16565b15612612576040517f08c379a000000000000000000000000000000000000000000000000000000000815260040161260990615865565b60405180910390fd5b6126268160066137a090919063ffffffff16565b507f7afee0f1b802cc0f66c67890e26b4566251859cf2cd8de79b86aed7251d9756a84848481811061265b5761265a615151565b5b905060200281019061266d9190615579565b600001602081019061267f919061410a565b85858581811061269257612691615151565b5b90506020028101906126a49190615579565b80602001906126b3919061518f565b6040516126c29392919061563a565b60405180910390a15080806126d690615221565b9150506124cb565b505050565b600a81565b6126f0612b9b565b600073ffffffffffffffffffffffffffffffffffffffff16600360009054906101000a900473ffffffffffffffffffffffffffffffffffffffff1673ffffffffffffffffffffffffffffffffffffffff1614612781576040517f08c379a0000000000000000000000000000000000000000000000000000000008152600401612778906158d1565b60405180910390fd5b82600360006101000a81548173ffffffffffffffffffffffffffffffffffffffff021916908373ffffffffffffffffffffffffffffffffffffffff16021790555081600460006101000a81548173ffffffffffffffffffffffffffffffffffffffff021916908373ffffffffffffffffffffffffffffffffffffffff16021790555080600560006101000a81548173ffffffffffffffffffffffffffffffffffffffff021916908373ffffffffffffffffffffffffffffffffffffffff160217905550505050565b61285d836006612b8490919063ffffffff16565b61289c576040517f08c379a000000000000000000000000000000000000000000000000000000000815260040161289390614fed565b60405180910390fd5b6128c281600d60008681526020019081526020016000205461377590919063ffffffff16565b600d6000858152602001908152602001600020819055506129063330838573ffffffffffffffffffffffffffffffffffffffff166137b7909392919063ffffffff16565b612953600260009054906101000a900473ffffffffffffffffffffffffffffffffffffffff16828473ffffffffffffffffffffffffffffffffffffffff16612ffc9092919063ffffffff16565b600260009054906101000a900473ffffffffffffffffffffffffffffffffffffffff1673ffffffffffffffffffffffffffffffffffffffff1663d954863c8484846040518463ffffffff1660e01b81526004016129b293929190615088565b600060405180830381600087803b1580156129cc57600080fd5b505af11580156129e0573d6000803e3d6000fd5b50505050505050565b600260009054906101000a900473ffffffffffffffffffffffffffffffffffffffff1681565b600560149054906101000a900460ff1615612a5f576040517f08c379a0000000000000000000000000000000000000000000000000000000008152600401612a56906154ed565b60405180910390fd5b612a6b86868686612d79565b612a983330878973ffffffffffffffffffffffffffffffffffffffff166137b7909392919063ffffffff16565b612ae5600260009054906101000a900473ffffffffffffffffffffffffffffffffffffffff16868873ffffffffffffffffffffffffffffffffffffffff16612ffc9092919063ffffffff16565b612af386868686868661314b565b505050505050565b612b03612b9b565b600073ffffffffffffffffffffffffffffffffffffffff168173ffffffffffffffffffffffffffffffffffffffff161415612b73576040517f08c379a0000000000000000000000000000000000000000000000000000000008152600401612b6a90615963565b60405180910390fd5b612b7c81612cb5565b50565b60c881565b6000612b938360000183613840565b905092915050565b612ba3613863565b73ffffffffffffffffffffffffffffffffffffffff16612bc1611a4f565b73ffffffffffffffffffffffffffffffffffffffff1614612c17576040517f08c379a0000000000000000000000000000000000000000000000000000000008152600401612c0e906159cf565b60405180910390fd5b565b60008183612c2791906159ef565b905092915050565b612cb08363a9059cbb60e01b8484604051602401612c4e929190615a23565b604051602081830303815290604052907bffffffffffffffffffffffffffffffffffffffffffffffffffffffff19166020820180517bffffffffffffffffffffffffffffffffffffffffffffffffffffffff838183161783525050505061386b565b505050565b60008060009054906101000a900473ffffffffffffffffffffffffffffffffffffffff169050816000806101000a81548173ffffffffffffffffffffffffffffffffffffffff021916908373ffffffffffffffffffffffffffffffffffffffff1602179055508173ffffffffffffffffffffffffffffffffffffffff168173ffffffffffffffffffffffffffffffffffffffff167f8be0079c531659141344cd1fd0a4f28419497f9722a3daafe3b4186f6b6457e060405160405180910390a35050565b600073__$626e42c3f3fdbda1180711fae0265f84c2$__63446f95b48685856040518463ffffffff1660e01b8152600401612db693929190614f2d565b602060405180830381865af4158015612dd3573d6000803e3d6000fd5b505050506040513d601f19601f82011682018060405250810190612df79190614f74565b9050612e0d816006612b8490919063ffffffff16565b612e4c576040517f08c379a0000000000000000000000000000000000000000000000000000000008152600401612e4390615abe565b60405180910390fd5b60008411612e8f576040517f08c379a0000000000000000000000000000000000000000000000000000000008152600401612e8690615b2a565b60405180910390fd5b600e60009054906101000a900473ffffffffffffffffffffffffffffffffffffffff1673ffffffffffffffffffffffffffffffffffffffff166331980b8482600460009054906101000a900473ffffffffffffffffffffffffffffffffffffffff16876040518463ffffffff1660e01b8152600401612f1093929190615088565b600060405180830381600087803b158015612f2a57600080fd5b505af1158015612f3e573d6000803e3d6000fd5b50505050600e60009054906101000a900473ffffffffffffffffffffffffffffffffffffffff1673ffffffffffffffffffffffffffffffffffffffff166370a5348982600460009054906101000a900473ffffffffffffffffffffffffffffffffffffffff16876040518463ffffffff1660e01b8152600401612fc393929190615088565b600060405180830381600087803b158015612fdd57600080fd5b505af1158015612ff1573d6000803e3d6000fd5b505050505050505050565b6000811480613086575060008373ffffffffffffffffffffffffffffffffffffffff1663dd62ed3e30856040518363ffffffff1660e01b8152600401613043929190615b4a565b602060405180830381865afa158015613060573d6000803e3d6000fd5b505050506040513d601f19601f820116820180604052508101906130849190615b88565b145b6130c5576040517f08c379a00000000000000000000000000000000000000000000000000000000081526004016130bc90615c27565b60405180910390fd5b6131468363095ea7b360e01b84846040516024016130e4929190615a23565b604051602081830303815290604052907bffffffffffffffffffffffffffffffffffffffffffffffffffffffff19166020820180517bffffffffffffffffffffffffffffffffffffffffffffffffffffffff838183161783525050505061386b565b505050565b600073__$626e42c3f3fdbda1180711fae0265f84c2$__63446f95b48887876040518463ffffffff1660e01b815260040161318893929190614f2d565b602060405180830381865af41580156131a5573d6000803e3d6000fd5b505050506040513d601f19601f820116820180604052508101906131c99190614f74565b9050600260009054906101000a900473ffffffffffffffffffffffffffffffffffffffff1673ffffffffffffffffffffffffffffffffffffffff1663d954863c8289896040518463ffffffff1660e01b815260040161322a93929190615088565b600060405180830381600087803b15801561324457600080fd5b505af1158015613258573d6000803e3d6000fd5b505050506132836001600960008481526020019081526020016000205461377590919063ffffffff16565b6009600083815260200190815260200160002081905550600060096000838152602001908152602001600020549050600073__$626e42c3f3fdbda1180711fae0265f84c2$__63f453e662846132d885613933565b6040518363ffffffff1660e01b81526004016132f5929190615c56565b600060405180830381865af4158015613312573d6000803e3d6000fd5b505050506040513d6000823e3d601f19601f8201168201806040525081019061333b9190615cf6565b90506040518061010001604052808a73ffffffffffffffffffffffffffffffffffffffff1681526020013373ffffffffffffffffffffffffffffffffffffffff16815260200189815260200143815260200142815260200188888080601f016020809104026020016040519081016040528093929190818152602001838380828437600081840152601f19601f82011690508083019250505050505050815260200186868080601f016020809104026020016040519081016040528093929190818152602001838380828437600081840152601f19601f8201169050808301925050505050505081526020018281525060086000858152602001908152602001600020600084815260200190815260200160002060008201518160000160006101000a81548173ffffffffffffffffffffffffffffffffffffffff021916908373ffffffffffffffffffffffffffffffffffffffff16021790555060208201518160010160006101000a81548173ffffffffffffffffffffffffffffffffffffffff021916908373ffffffffffffffffffffffffffffffffffffffff16021790555060408201518160020155606082015181600301556080820151816004015560a0820151816005019080519060200190613517929190613f32565b5060c0820151816006019080519060200190613534929190613f32565b5060e0820151816007019080519060200190613551929190613f32565b5090505061357b88600a60008681526020019081526020016000205461377590919063ffffffff16565b600a6000858152602001908152602001600020819055506000600c60003373ffffffffffffffffffffffffffffffffffffffff1673ffffffffffffffffffffffffffffffffffffffff168152602001908152602001600020600085815260200190815260200160002054905061364b6001600c60003373ffffffffffffffffffffffffffffffffffffffff1673ffffffffffffffffffffffffffffffffffffffff16815260200190815260200160002060008781526020019081526020016000205461377590919063ffffffff16565b600c60003373ffffffffffffffffffffffffffffffffffffffff1673ffffffffffffffffffffffffffffffffffffffff16815260200190815260200160002060008681526020019081526020016000208190555081600b60003373ffffffffffffffffffffffffffffffffffffffff1673ffffffffffffffffffffffffffffffffffffffff168152602001908152602001600020600086815260200190815260200160002060008381526020019081526020016000209080519060200190613714929190613f32565b507f50ca3994210a330ab9ce981c2856cfdcec3e63e889ae3cea5202478d40dff2d5828b338c60405161374a9493929190615d78565b60405180910390a150505050505050505050565b600061376d8360000183613a0b565b905092915050565b600081836137839190615dc4565b905092915050565b600061379982600001613b1f565b9050919050565b60006137af8360000183613b30565b905092915050565b61383a846323b872dd60e01b8585856040516024016137d893929190615e1a565b604051602081830303815290604052907bffffffffffffffffffffffffffffffffffffffffffffffffffffffff19166020820180517bffffffffffffffffffffffffffffffffffffffffffffffffffffffff838183161783525050505061386b565b50505050565b600080836001016000848152602001908152602001600020541415905092915050565b600033905090565b60006138cd826040518060400160405280602081526020017f5361666545524332303a206c6f772d6c6576656c2063616c6c206661696c65648152508573ffffffffffffffffffffffffffffffffffffffff16613ba09092919063ffffffff16565b90506000815114806138ef5750808060200190518101906138ee9190615e7d565b5b61392e576040517f08c379a000000000000000000000000000000000000000000000000000000000815260040161392590615f1c565b60405180910390fd5b505050565b60606000600161394284613bb8565b01905060008167ffffffffffffffff81111561396157613960614300565b5b6040519080825280601f01601f1916602001820160405280156139935781602001600182028036833780820191505090505b509050600082602001820190505b600115613a00578080600190039150507f3031323334353637383961626364656600000000000000000000000000000000600a86061a8153600a85816139ea576139e9615f3c565b5b04945060008514156139fb57613a00565b6139a1565b819350505050919050565b60008083600101600084815260200190815260200160002054905060008114613b13576000600182613a3d91906159ef565b9050600060018660000180549050613a5591906159ef565b9050818114613ac4576000866000018281548110613a7657613a75615151565b5b9060005260206000200154905080876000018481548110613a9a57613a99615151565b5b90600052602060002001819055508387600101600083815260200190815260200160002081905550505b85600001805480613ad857613ad7615f6b565b5b600190038181906000526020600020016000905590558560010160008681526020019081526020016000206000905560019350505050613b19565b60009150505b92915050565b600081600001805490509050919050565b6000613b3c8383613840565b613b95578260000182908060018154018082558091505060019003906000526020600020016000909190919091505582600001805490508360010160008481526020019081526020016000208190555060019050613b9a565b600090505b92915050565b6060613baf8484600085613d0b565b90509392505050565b600080600090507a184f03e93ff9f4daa797ed6e38ed64bf6a1f0100000000000000008310613c16577a184f03e93ff9f4daa797ed6e38ed64bf6a1f0100000000000000008381613c0c57613c0b615f3c565b5b0492506040810190505b6d04ee2d6d415b85acef81000000008310613c53576d04ee2d6d415b85acef81000000008381613c4957613c48615f3c565b5b0492506020810190505b662386f26fc100008310613c8257662386f26fc100008381613c7857613c77615f3c565b5b0492506010810190505b6305f5e1008310613cab576305f5e1008381613ca157613ca0615f3c565b5b0492506008810190505b6127108310613cd0576127108381613cc657613cc5615f3c565b5b0492506004810190505b60648310613cf35760648381613ce957613ce8615f3c565b5b0492506002810190505b600a8310613d02576001810190505b80915050919050565b606082471015613d50576040517f08c379a0000000000000000000000000000000000000000000000000000000008152600401613d479061600c565b60405180910390fd5b6000808673ffffffffffffffffffffffffffffffffffffffff168587604051613d799190616073565b60006040518083038185875af1925050503d8060008114613db6576040519150601f19603f3d011682016040523d82523d6000602084013e613dbb565b606091505b5091509150613dcc87838387613dd8565b92505050949350505050565b60608315613e3b57600083511415613e3357613df385613e4e565b613e32576040517f08c379a0000000000000000000000000000000000000000000000000000000008152600401613e29906160d6565b60405180910390fd5b5b829050613e46565b613e458383613e71565b5b949350505050565b6000808273ffffffffffffffffffffffffffffffffffffffff163b119050919050565b600082511115613e845781518083602001fd5b806040517f08c379a0000000000000000000000000000000000000000000000000000000008152600401613eb891906160f6565b60405180910390fd5b604051806101000160405280600073ffffffffffffffffffffffffffffffffffffffff168152602001600073ffffffffffffffffffffffffffffffffffffffff1681526020016000815260200160008152602001600081526020016060815260200160608152602001606081525090565b828054613f3e90615371565b90600052602060002090601f016020900481019282613f605760008555613fa7565b82601f10613f7957805160ff1916838001178555613fa7565b82800160010185558215613fa7579182015b82811115613fa6578251825591602001919060010190613f8b565b5b509050613fb49190613fb8565b5090565b5b80821115613fd1576000816000905550600101613fb9565b5090565b6000604051905090565b600080fd5b600080fd5b6000819050919050565b613ffc81613fe9565b811461400757600080fd5b50565b60008135905061401981613ff3565b92915050565b60006020828403121561403557614034613fdf565b5b60006140438482850161400a565b91505092915050565b6000819050919050565b61405f8161404c565b82525050565b600060208201905061407a6000830184614056565b92915050565b600074ffffffffffffffffffffffffffffffffffffffffff82169050919050565b6140aa81614080565b81146140b557600080fd5b50565b600073ffffffffffffffffffffffffffffffffffffffff82169050919050565b60006140e3826140b8565b9050919050565b6000813590506140f9816140a1565b614102816140d8565b905092915050565b6000602082840312156141205761411f613fdf565b5b600061412e848285016140ea565b91505092915050565b600080fd5b600080fd5b600080fd5b60008083601f84011261415c5761415b614137565b5b8235905067ffffffffffffffff8111156141795761417861413c565b5b60208301915083600182028301111561419557614194614141565b5b9250929050565b6000806000604084860312156141b5576141b4613fdf565b5b60006141c3868287016140ea565b935050602084013567ffffffffffffffff8111156141e4576141e3613fe4565b5b6141f086828701614146565b92509250509250925092565b60008115159050919050565b614211816141fc565b82525050565b600060208201905061422c6000830184614208565b92915050565b61423b816140d8565b82525050565b60006020820190506142566000830184614232565b92915050565b6142658161404c565b811461427057600080fd5b50565b6000813590506142828161425c565b92915050565b600080600080608085870312156142a2576142a1613fdf565b5b60006142b08782880161400a565b94505060206142c1878288016140ea565b93505060406142d287828801614273565b92505060606142e3878288016140ea565b91505092959194509250565b6000601f19601f8301169050919050565b7f4e487b7100000000000000000000000000000000000000000000000000000000600052604160045260246000fd5b614338826142ef565b810181811067ffffffffffffffff8211171561435757614356614300565b5b80604052505050565b600061436a613fd5565b9050614376828261432f565b919050565b600067ffffffffffffffff82111561439657614395614300565b5b602082029050602081019050919050565b60006143ba6143b58461437b565b614360565b905080838252602082019050602084028301858111156143dd576143dc614141565b5b835b8181101561440657806143f288826140ea565b8452602084019350506020810190506143df565b5050509392505050565b600082601f83011261442557614424614137565b5b81356144358482602086016143a7565b91505092915050565b60008083601f84011261445457614453614137565b5b8235905067ffffffffffffffff8111156144715761447061413c565b5b60208301915083602082028301111561448d5761448c614141565b5b9250929050565b6000806000604084860312156144ad576144ac613fdf565b5b600084013567ffffffffffffffff8111156144cb576144ca613fe4565b5b6144d786828701614410565b935050602084013567ffffffffffffffff8111156144f8576144f7613fe4565b5b6145048682870161443e565b92509250509250925092565b600081519050919050565b600082825260208201905092915050565b6000819050602082019050919050565b6145458161404c565b82525050565b6000614557838361453c565b60208301905092915050565b6000602082019050919050565b600061457b82614510565b614585818561451b565b93506145908361452c565b8060005b838110156145c15781516145a8888261454b565b97506145b383614563565b925050600181019050614594565b5085935050505092915050565b600060208201905081810360008301526145e88184614570565b905092915050565b6000806000806060858703121561460a57614609613fdf565b5b6000614618878288016140ea565b9450506020614629878288016140ea565b935050604085013567ffffffffffffffff81111561464a57614649613fe4565b5b61465687828801614146565b925092505092959194509250565b600081519050919050565b600082825260208201905092915050565b6000819050602082019050919050565b600081519050919050565b600082825260208201905092915050565b60005b838110156146ca5780820151818401526020810190506146af565b838111156146d9576000848401525b50505050565b60006146ea82614690565b6146f4818561469b565b93506147048185602086016146ac565b61470d816142ef565b840191505092915050565b600061472483836146df565b905092915050565b6000602082019050919050565b600061474482614664565b61474e818561466f565b93508360208202850161476085614680565b8060005b8581101561479c578484038952815161477d8582614718565b94506147888361472c565b925060208a01995050600181019050614764565b50829750879550505050505092915050565b600060208201905081810360008301526147c88184614739565b905092915050565b600080600080604085870312156147ea576147e9613fdf565b5b600085013567ffffffffffffffff81111561480857614807613fe4565b5b61481487828801614146565b9450945050602085013567ffffffffffffffff81111561483757614836613fe4565b5b61484387828801614146565b925092505092959194509250565b60008083601f84011261486757614866614137565b5b8235905067ffffffffffffffff8111156148845761488361413c565b5b6020830191508360208202830111156148a05761489f614141565b5b9250929050565b600080602083850312156148be576148bd613fdf565b5b600083013567ffffffffffffffff8111156148dc576148db613fe4565b5b6148e885828601614851565b92509250509250929050565b600080fd5b600067ffffffffffffffff82111561491457614913614300565b5b61491d826142ef565b9050602081019050919050565b82818337600083830152505050565b600061494c614947846148f9565b614360565b905082815260208101848484011115614968576149676148f4565b5b61497384828561492a565b509392505050565b600082601f8301126149905761498f614137565b5b81356149a0848260208601614939565b91505092915050565b600080604083850312156149c0576149bf613fdf565b5b60006149ce858286016140ea565b925050602083013567ffffffffffffffff8111156149ef576149ee613fe4565b5b6149fb8582860161497b565b9150509250929050565b600080600080600060808688031215614a2157614a20613fdf565b5b6000614a2f888289016140ea565b955050602086013567ffffffffffffffff811115614a5057614a4f613fe4565b5b614a5c88828901614146565b94509450506040614a6f88828901614273565b9250506060614a8088828901614273565b9150509295509295909350565b600081519050919050565b600082825260208201905092915050565b6000819050602082019050919050565b614ac2816140d8565b82525050565b600061010083016000830151614ae16000860182614ab9565b506020830151614af46020860182614ab9565b506040830151614b07604086018261453c565b506060830151614b1a606086018261453c565b506080830151614b2d608086018261453c565b5060a083015184820360a0860152614b4582826146df565b91505060c083015184820360c0860152614b5f82826146df565b91505060e083015184820360e0860152614b7982826146df565b9150508091505092915050565b6000614b928383614ac8565b905092915050565b6000602082019050919050565b6000614bb282614a8d565b614bbc8185614a98565b935083602082028501614bce85614aa9565b8060005b85811015614c0a5784840389528151614beb8582614b86565b9450614bf683614b9a565b925060208a01995050600181019050614bd2565b50829750879550505050505092915050565b60006020820190508181036000830152614c368184614ba7565b905092915050565b600080600060608486031215614c5757614c56613fdf565b5b6000614c65868287016140ea565b9350506020614c76868287016140ea565b9250506040614c87868287016140ea565b9150509250925092565b600080600060608486031215614caa57614ca9613fdf565b5b6000614cb88682870161400a565b9350506020614cc9868287016140ea565b9250506040614cda86828701614273565b9150509250925092565b60008060008060008060808789031215614d0157614d00613fdf565b5b6000614d0f89828a016140ea565b9650506020614d2089828a01614273565b955050604087013567ffffffffffffffff811115614d4157614d40613fe4565b5b614d4d89828a01614146565b9450945050606087013567ffffffffffffffff811115614d7057614d6f613fe4565b5b614d7c89828a01614146565b92509250509295509295509295565b600082825260208201905092915050565b7f427269646765496e3a6f6e6c7920666f722057616c6c65742063616c6c000000600082015250565b6000614dd2601d83614d8b565b9150614ddd82614d9c565b602082019050919050565b60006020820190508181036000830152614e0181614dc5565b9050919050565b7f6e6f742070617573656400000000000000000000000000000000000000000000600082015250565b6000614e3e600a83614d8b565b9150614e4982614e08565b602082019050919050565b60006020820190508181036000830152614e6d81614e31565b9050919050565b7f696e76616c696420696e70757400000000000000000000000000000000000000600082015250565b6000614eaa600d83614d8b565b9150614eb582614e74565b602082019050919050565b60006020820190508181036000830152614ed981614e9d565b9050919050565b614ee9816140d8565b82525050565b600082825260208201905092915050565b6000614f0c8385614eef565b9350614f1983858461492a565b614f22836142ef565b840190509392505050565b6000604082019050614f426000830186614ee0565b8181036020830152614f55818486614f00565b9050949350505050565b600081519050614f6e81613ff3565b92915050565b600060208284031215614f8a57614f89613fdf565b5b6000614f9884828501614f5f565b91505092915050565b7f6e6f7420737570706f7274000000000000000000000000000000000000000000600082015250565b6000614fd7600b83614d8b565b9150614fe282614fa1565b602082019050919050565b6000602082019050818103600083015261500681614fca565b9050919050565b7f6465706f736974206e6f7420656e6f7567680000000000000000000000000000600082015250565b6000615043601283614d8b565b915061504e8261500d565b602082019050919050565b6000602082019050818103600083015261507281615036565b9050919050565b61508281613fe9565b82525050565b600060608201905061509d6000830186615079565b6150aa6020830185614232565b6150b76040830184614056565b949350505050565b7f496e76616c696420746f6b656e732f746172676574436861696e49647320696e60008201527f7075740000000000000000000000000000000000000000000000000000000000602082015250565b600061511b602383614d8b565b9150615126826150bf565b604082019050919050565b6000602082019050818103600083015261514a8161510e565b9050919050565b7f4e487b7100000000000000000000000000000000000000000000000000000000600052603260045260246000fd5b600080fd5b600080fd5b600080fd5b600080833560016020038436030381126151ac576151ab615180565b5b80840192508235915067ffffffffffffffff8211156151ce576151cd615185565b5b6020830192506001820236038313156151ea576151e961518a565b5b509250929050565b7f4e487b7100000000000000000000000000000000000000000000000000000000600052601160045260246000fd5b600061522c8261404c565b91507fffffffffffffffffffffffffffffffffffffffffffffffffffffffffffffffff82141561525f5761525e6151f2565b5b600182019050919050565b7f696e76616c696420627269646765206f75742061646472657373000000000000600082015250565b60006152a0601a83614d8b565b91506152ab8261526a565b602082019050919050565b600060208201905081810360008301526152cf81615293565b9050919050565b7f696e76616c6964206c696d697465722061646472657373000000000000000000600082015250565b600061530c601783614d8b565b9150615317826152d6565b602082019050919050565b6000602082019050818103600083015261533b816152ff565b9050919050565b7f4e487b7100000000000000000000000000000000000000000000000000000000600052602260045260246000fd5b6000600282049050600182168061538957607f821691505b6020821081141561539d5761539c615342565b5b50919050565b7f4272696765496e3a6f6e6c7920666f7220706175736520636f6e74726f6c6c6560008201527f7200000000000000000000000000000000000000000000000000000000000000602082015250565b60006153ff602183614d8b565b915061540a826153a3565b604082019050919050565b6000602082019050818103600083015261542e816153f2565b9050919050565b7f616c726561647920706175736564000000000000000000000000000000000000600082015250565b600061546b600e83614d8b565b915061547682615435565b602082019050919050565b6000602082019050818103600083015261549a8161545e565b9050919050565b7f4272696765496e3a706175736564000000000000000000000000000000000000600082015250565b60006154d7600e83614d8b565b91506154e2826154a1565b602082019050919050565b60006020820190508181036000830152615506816154ca565b9050919050565b7f696e70757420746f6b656e20636f756e74206578636565640000000000000000600082015250565b6000615543601883614d8b565b915061554e8261550d565b602082019050919050565b6000602082019050818103600083015261557281615536565b9050919050565b60008235600160400383360303811261559557615594615180565b5b80830191505092915050565b7f746f6b656e4b6579206e6f742065786973740000000000000000000000000000600082015250565b60006155d7601283614d8b565b91506155e2826155a1565b602082019050919050565b60006020820190508181036000830152615606816155ca565b9050919050565b60006156198385614d8b565b935061562683858461492a565b61562f836142ef565b840190509392505050565b600060408201905061564f6000830186614232565b818103602083015261566281848661560d565b9050949350505050565b600061567782614690565b6156818185614eef565b93506156918185602086016146ac565b61569a816142ef565b840191505092915050565b60006040820190506156ba6000830185614ee0565b81810360208301526156cc818461566c565b90509392505050565b7f496e76616c696420696e70757400000000000000000000000000000000000000600082015250565b600061570b600d83614d8b565b9150615716826156d5565b602082019050919050565b6000602082019050818103600083015261573a816156fe565b9050919050565b7f51756572792072616e6765206973206578636565646564000000000000000000600082015250565b6000615777601783614d8b565b915061578282615741565b602082019050919050565b600060208201905081810360008301526157a68161576a565b9050919050565b7f746f6b656e20636f756e74206578636565640000000000000000000000000000600082015250565b60006157e3601283614d8b565b91506157ee826157ad565b602082019050919050565b60006020820190508181036000830152615812816157d6565b9050919050565b7f746f6b656e4b657920616c726561647920616464656400000000000000000000600082015250565b600061584f601683614d8b565b915061585a82615819565b602082019050919050565b6000602082019050818103600083015261587e81615842565b9050919050565b7f4272696765496e3a616c726561647920696e697469616c697a65640000000000600082015250565b60006158bb601b83614d8b565b91506158c682615885565b602082019050919050565b600060208201905081810360008301526158ea816158ae565b9050919050565b7f4f776e61626c653a206e6577206f776e657220697320746865207a65726f206160008201527f6464726573730000000000000000000000000000000000000000000000000000602082015250565b600061594d602683614d8b565b9150615958826158f1565b604082019050919050565b6000602082019050818103600083015261597c81615940565b9050919050565b7f4f776e61626c653a2063616c6c6572206973206e6f7420746865206f776e6572600082015250565b60006159b9602083614d8b565b91506159c482615983565b602082019050919050565b600060208201905081810360008301526159e8816159ac565b9050919050565b60006159fa8261404c565b9150615a058361404c565b925082821015615a1857615a176151f2565b5b828203905092915050565b6000604082019050615a386000830185614232565b615a456020830184614056565b9392505050565b7f546f6b656e206973206e6f7420737570706f727420696e20746861742063686160008201527f696e000000000000000000000000000000000000000000000000000000000000602082015250565b6000615aa8602283614d8b565b9150615ab382615a4c565b604082019050919050565b60006020820190508181036000830152615ad781615a9b565b9050919050565b7f696e76616c696420616d6f756e74000000000000000000000000000000000000600082015250565b6000615b14600e83614d8b565b9150615b1f82615ade565b602082019050919050565b60006020820190508181036000830152615b4381615b07565b9050919050565b6000604082019050615b5f6000830185614232565b615b6c6020830184614232565b9392505050565b600081519050615b828161425c565b92915050565b600060208284031215615b9e57615b9d613fdf565b5b6000615bac84828501615b73565b91505092915050565b7f5361666545524332303a20617070726f76652066726f6d206e6f6e2d7a65726f60008201527f20746f206e6f6e2d7a65726f20616c6c6f77616e636500000000000000000000602082015250565b6000615c11603683614d8b565b9150615c1c82615bb5565b604082019050919050565b60006020820190508181036000830152615c4081615c04565b9050919050565b615c5081613fe9565b82525050565b6000604082019050615c6b6000830185615c47565b8181036020830152615c7d818461566c565b90509392505050565b6000615c99615c94846148f9565b614360565b905082815260208101848484011115615cb557615cb46148f4565b5b615cc08482856146ac565b509392505050565b600082601f830112615cdd57615cdc614137565b5b8151615ced848260208601615c86565b91505092915050565b600060208284031215615d0c57615d0b613fdf565b5b600082015167ffffffffffffffff811115615d2a57615d29613fe4565b5b615d3684828501615cc8565b91505092915050565b6000615d4a82614690565b615d548185614d8b565b9350615d648185602086016146ac565b615d6d816142ef565b840191505092915050565b60006080820190508181036000830152615d928187615d3f565b9050615da16020830186614232565b615dae6040830185614232565b615dbb6060830184614056565b95945050505050565b6000615dcf8261404c565b9150615dda8361404c565b9250827fffffffffffffffffffffffffffffffffffffffffffffffffffffffffffffffff03821115615e0f57615e0e6151f2565b5b828201905092915050565b6000606082019050615e2f6000830186614232565b615e3c6020830185614232565b615e496040830184614056565b949350505050565b615e5a816141fc565b8114615e6557600080fd5b50565b600081519050615e7781615e51565b92915050565b600060208284031215615e9357615e92613fdf565b5b6000615ea184828501615e68565b91505092915050565b7f5361666545524332303a204552433230206f7065726174696f6e20646964206e60008201527f6f74207375636365656400000000000000000000000000000000000000000000602082015250565b6000615f06602a83614d8b565b9150615f1182615eaa565b604082019050919050565b60006020820190508181036000830152615f3581615ef9565b9050919050565b7f4e487b7100000000000000000000000000000000000000000000000000000000600052601260045260246000fd5b7f4e487b7100000000000000000000000000000000000000000000000000000000600052603160045260246000fd5b7f416464726573733a20696e73756666696369656e742062616c616e636520666f60008201527f722063616c6c0000000000000000000000000000000000000000000000000000602082015250565b6000615ff6602683614d8b565b915061600182615f9a565b604082019050919050565b6000602082019050818103600083015261602581615fe9565b9050919050565b600081519050919050565b600081905092915050565b600061604d8261602c565b6160578185616037565b93506160678185602086016146ac565b80840191505092915050565b600061607f8284616042565b915081905092915050565b7f416464726573733a2063616c6c20746f206e6f6e2d636f6e7472616374000000600082015250565b60006160c0601d83614d8b565b91506160cb8261608a565b602082019050919050565b600060208201905081810360008301526160ef816160b3565b9050919050565b600060208201905081810360008301526161108184615d3f565b90509291505056fea26474726f6e58221220aa402497e1769b8501807d21d44838034ffe3f24e2072ae4391ebcfc5a63090464736f6c634300080b0033",
  "source": "pragma solidity ^0.8.11;\n\nimport \"@openzeppelin/contracts/utils/math/SafeMath.sol\";\nimport \"@openzeppelin/contracts/utils/Strings.sol\";\nimport \"@openzeppelin/contracts/utils/structs/EnumerableSet.sol\";\nimport \"@openzeppelin/contracts/token/ERC20/utils/SafeERC20.sol\";\nimport \"./Proxy.sol\";\nimport \"./libraries/StringHex.sol\";\nimport \"./interfaces/BridgeOutInterface.sol\";\nimport \"./interfaces/NativeTokenInterface.sol\";\nimport \"./interfaces/LimiterInterface.sol\";\nimport \"./libraries/BridgeInLibrary.sol\";\n\ncontract BridgeInImplementation is ProxyStorage {\n    using SafeMath for uint256;\n    using EnumerableSet for EnumerableSet.Bytes32Set;\n    using SafeERC20 for IERC20;\n    using Strings for uint256;\n    using StringHex for bytes32;\n\n    address public bridgeOut;\n    address public multiSigWallet;\n    address public tokenAddress;\n    address public pauseController;\n    bool public isPaused;\n    uint256 public constant MaxQueryRange = 100;\n    uint256 public constant MaxTokenCount = 200;\n    uint256 public constant MaxTokenCountPerAddOrRemove = 10;\n    EnumerableSet.Bytes32Set private tokenList;\n\n    mapping(bytes32 => mapping(uint256 => Receipt)) private receiptIndexMap;\n    mapping(bytes32 => uint256) private tokenReceiptIndex; //from 1\n    mapping(bytes32 => uint256) private totalAmountInReceipts;\n    mapping(address => mapping(bytes32 => mapping(uint256 => string)))\n        private ownerToReceiptIdMap;\n    mapping(address => mapping(bytes32 => uint256))\n        private ownerToReceiptsIndexMap; //from 0\n    mapping(bytes32 => uint256) public depositAmount;\n    address public limiter;\n\n    modifier whenNotPaused() {\n        require(!isPaused, \"BrigeIn:paused\");\n        _;\n    }\n    modifier onlyWallet() {\n        require(msg.sender == multiSigWallet, \"BridgeIn:only for Wallet call\");\n        _;\n    }\n    modifier onlyPauseController() {\n        require(\n            msg.sender == pauseController,\n            \"BrigeIn:only for pause controller\"\n        );\n        _;\n    }\n\n    struct Receipt {\n        address asset; // ERC20 Token Address\n        address owner; // Sender\n        uint256 amount; // Locking amount\n        uint256 blockHeight;\n        uint256 blockTime;\n        string targetChainId;\n        string targetAddress; // User address in aelf\n        string receiptId;\n    }\n    struct Token {\n        address tokenAddress;\n        string chainId;\n    }\n    event TokenAdded(address token, string chainId);\n    event TokenRemoved(address token, string chainId);\n    event NewReceipt(\n        string receiptId,\n        address asset,\n        address owner,\n        uint256 amount\n    );\n\n    function initialize(\n        address _multiSigWallet,\n        address _tokenAddress,\n        address _pauseController\n    ) external onlyOwner {\n        require(multiSigWallet == address(0), \"BrigeIn:already initialized\");\n        multiSigWallet = _multiSigWallet;\n        tokenAddress = _tokenAddress;\n        pauseController = _pauseController;\n    }\n\n    function changeMultiSignWallet(address _wallet) external onlyOwner {\n        require(_wallet != address(0), \"invalid input\");\n        multiSigWallet = _wallet;\n    }\n\n    function setBridgeOut(address _bridgeOut) external onlyWallet {\n        require(\n            bridgeOut == address(0) && _bridgeOut != address(0),\n            \"invalid bridge out address\"\n        );\n        bridgeOut = _bridgeOut;\n    }\n\n    function setLimiter(address _limiter) external onlyWallet {\n        require(\n            limiter == address(0) && _limiter != address(0),\n            \"invalid limiter address\"\n        );\n        limiter = _limiter;\n    }\n\n    function changePauseController(\n        address _pauseController\n    ) external onlyWallet {\n        require(_pauseController != address(0), \"invalid input\");\n        pauseController = _pauseController;\n    }\n\n    function addToken(Token[] calldata tokens) public onlyWallet {\n        require(\n            tokenList.length() <= MaxTokenCount && tokens.length <= MaxTokenCountPerAddOrRemove,\n            \"token count exceed\"\n        );\n        for (uint256 i = 0; i < tokens.length; i++) {\n            bytes32 tokenKey = BridgeInLibrary._generateTokenKey(\n                tokens[i].tokenAddress,\n                tokens[i].chainId\n            );\n            require(!tokenList.contains(tokenKey), \"tokenKey already added\");\n            tokenList.add(tokenKey);\n            emit TokenAdded(tokens[i].tokenAddress, tokens[i].chainId);\n        }\n    }\n\n    function removeToken(Token[] calldata tokens) public onlyWallet {\n        require(tokens.length <= MaxTokenCountPerAddOrRemove, \"input token count exceed\");\n        for (uint256 i = 0; i < tokens.length; i++) {\n            bytes32 tokenKey = BridgeInLibrary._generateTokenKey(\n                tokens[i].tokenAddress,\n                tokens[i].chainId\n            );\n            require(tokenList.contains(tokenKey), \"tokenKey not exist\");\n            tokenList.remove(tokenKey);\n            emit TokenRemoved(tokens[i].tokenAddress, tokens[i].chainId);\n        }\n    }\n\n    function pause() external onlyPauseController {\n        require(!isPaused, \"already paused\");\n        isPaused = true;\n        IBridgeOut(bridgeOut).pause();\n    }\n\n    function restart() public onlyWallet {\n        require(isPaused == true, \"not paused\");\n        isPaused = false;\n        IBridgeOut(bridgeOut).restart();\n    }\n\n    function isSupported(\n        address token,\n        string calldata chainId\n    ) public view returns (bool) {\n        bytes32 tokenKey = BridgeInLibrary._generateTokenKey(token, chainId);\n        return tokenList.contains(tokenKey);\n    }\n\n    function createNativeTokenReceipt(\n        string calldata targetChainId,\n        string calldata targetAddress\n    ) external payable whenNotPaused {\n        consumeReceiptLimit(tokenAddress,msg.value,targetChainId);\n        INativeToken(tokenAddress).deposit{value: msg.value}();\n        IERC20(tokenAddress).safeApprove(bridgeOut, msg.value);\n        generateReceipt(tokenAddress, msg.value, targetChainId, targetAddress);\n    }\n\n    // Create new receipt and deposit erc20 token\n    function createReceipt(\n        address token,\n        uint256 amount,\n        string calldata targetChainId,\n        string calldata targetAddress\n    ) external whenNotPaused {\n        consumeReceiptLimit(token,amount,targetChainId);\n        // Deposit token to this contract\n        IERC20(token).safeTransferFrom(msg.sender, address(this), amount);\n        IERC20(token).safeApprove(bridgeOut, amount);\n        generateReceipt(token, amount, targetChainId, targetAddress);\n    }\n\n    function consumeReceiptLimit(\n        address token,\n        uint256 amount,\n        string calldata targetChainId\n    ) internal{\n        bytes32 tokenKey = BridgeInLibrary._generateTokenKey(token, targetChainId);\n        require(\n            tokenList.contains(tokenKey),\n            \"Token is not support in that chain\"\n        );\n        require(amount > 0, \"invalid amount\");\n        ILimiter(limiter).consumeDailyLimit(tokenKey,tokenAddress,amount);\n        ILimiter(limiter).consumeTokenBucket(tokenKey,tokenAddress,amount);\n    }\n\n    function generateReceipt(\n        address token,\n        uint256 amount,\n        string calldata targetChainId,\n        string calldata targetAddress\n    ) internal {\n        bytes32 tokenKey = BridgeInLibrary._generateTokenKey(token, targetChainId);\n        IBridgeOut(bridgeOut).deposit(tokenKey, token, amount);\n        tokenReceiptIndex[tokenKey] = tokenReceiptIndex[tokenKey].add(1);\n        uint256 receiptIndex = tokenReceiptIndex[tokenKey];\n        string memory receiptId = BridgeInLibrary._generateReceiptId(tokenKey, receiptIndex.toString());\n        receiptIndexMap[tokenKey][receiptIndex] = Receipt(\n            token,\n            msg.sender,\n            amount,\n            block.number,\n            block.timestamp,\n            targetChainId,\n            targetAddress,\n            receiptId\n        );\n        totalAmountInReceipts[tokenKey] = totalAmountInReceipts[tokenKey].add(\n            amount\n        );\n        uint256 index = ownerToReceiptsIndexMap[msg.sender][tokenKey];\n        ownerToReceiptsIndexMap[msg.sender][tokenKey] = ownerToReceiptsIndexMap[msg.sender][tokenKey].add(1);\n        ownerToReceiptIdMap[msg.sender][tokenKey][index] = receiptId;\n        emit NewReceipt(receiptId, token, msg.sender, amount);\n    }\n\n    function getMyReceipts(\n        address user,\n        address token,\n        string calldata targetChainId\n    ) external view returns (string[] memory receipt_ids) {\n        bytes32 tokenKey = BridgeInLibrary._generateTokenKey(token, targetChainId);\n        uint256 index = ownerToReceiptsIndexMap[user][tokenKey];\n        receipt_ids = new string[](index);\n        for (uint256 i = 0; i < index; i++) {\n            receipt_ids[i] = ownerToReceiptIdMap[user][tokenKey][i];\n        }\n        return receipt_ids;\n    }\n\n    function getSendReceiptIndex(\n        address[] memory tokens,\n        string[] calldata targetChainIds\n    ) external view returns (uint256[] memory indexes) {\n        require(\n            tokens.length == targetChainIds.length,\n            \"Invalid tokens/targetChainIds input\"\n        );\n        indexes = new uint256[](tokens.length);\n        for (uint256 i = 0; i < tokens.length; i++) {\n            bytes32 tokenKey = BridgeInLibrary._generateTokenKey(tokens[i], targetChainIds[i]);\n            uint256 index = tokenReceiptIndex[tokenKey];\n            indexes[i] = index;\n        }\n        return indexes;\n    }\n\n    function getSendReceiptInfos(\n        address token,\n        string calldata targetChainId,\n        uint256 fromIndex,\n        uint256 endIndex\n    ) public view returns (Receipt[] memory _receipts) {\n        bytes32 tokenKey = BridgeInLibrary._generateTokenKey(token, targetChainId);\n        if (tokenReceiptIndex[tokenKey] == 0) {\n            return _receipts;\n        }\n        require(\n            endIndex <= tokenReceiptIndex[tokenKey] &&\n                fromIndex > 0 &&\n                fromIndex <= endIndex,\n            \"Invalid input\"\n        );\n        uint256 length = endIndex.sub(fromIndex).add(1);\n        require(length <= MaxQueryRange, \"Query range is exceeded\");\n        _receipts = new Receipt[](length);\n        for (uint256 i = 0; i < length; i++) {\n            _receipts[i] = receiptIndexMap[tokenKey][i.add(fromIndex)];\n        }\n        return _receipts;\n    }\n\n    function getTotalAmountInReceipts(\n        address token,\n        string memory chainId\n    ) public view returns (uint256) {\n        bytes32 tokenKey = BridgeInLibrary._generateTokenKey(token, chainId);\n        return totalAmountInReceipts[tokenKey];\n    }\n\n    function deposit(bytes32 tokenKey, address token, uint256 amount) external {\n        require(tokenList.contains(tokenKey), \"not support\");\n        depositAmount[tokenKey] = depositAmount[tokenKey].add(amount);\n        IERC20(token).safeTransferFrom(msg.sender, address(this), amount);\n        IERC20(token).safeApprove(bridgeOut, amount);\n        IBridgeOut(bridgeOut).deposit(tokenKey, token, amount);\n    }\n\n    function withdraw(\n        bytes32 tokenKey,\n        address token,\n        uint256 amount,\n        address receiverAddress\n    ) external onlyOwner {\n        require(tokenList.contains(tokenKey), \"not support\");\n        require(depositAmount[tokenKey] >= amount, \"deposit not enough\");\n        depositAmount[tokenKey] = depositAmount[tokenKey].sub(amount);\n        IBridgeOut(bridgeOut).withdraw(tokenKey, token, amount);\n        IERC20(token).safeTransfer(receiverAddress, amount);\n    }\n}\n",
  "sourcePath": "/Users/jasonlu/Project/ebridge-contracts.ethereum/contracts/BridgeInImplementation.sol",
  "compiler": {
    "name": "solc",
    "version": "0.8.11+commit.b01f3284.mod.Emscripten.clang"
  },
  "schemaVersion": "2.0.1",
  "updatedAt": "2024-01-25T02:24:44.945Z"
}