{
  "contractName": "LimiterImplementation",
  "abi": [
    {
      "inputs": [],
      "name": "BucketOverfilled",
      "type": "error"
    },
    {
      "inputs": [
        {
          "internalType": "uint256",
          "name": "dailyLimit",
          "type": "uint256"
        },
        {
          "internalType": "uint256",
          "name": "amount",
          "type": "uint256"
        }
      ],
      "name": "DailyLimitExceeded",
      "type": "error"
    },
    {
      "inputs": [
        {
          "internalType": "uint256",
          "name": "capacity",
          "type": "uint256"
        },
        {
          "internalType": "uint256",
          "name": "amount",
          "type": "uint256"
        }
      ],
      "name": "MaxCapacityExceeded",
      "type": "error"
    },
    {
      "inputs": [
        {
          "internalType": "uint256",
          "name": "minWaitInSeconds",
          "type": "uint256"
        },
        {
          "internalType": "uint256",
          "name": "available",
          "type": "uint256"
        },
        {
          "internalType": "address",
          "name": "tokenAddress",
          "type": "address"
        }
      ],
      "name": "TokenRateLimitReached",
      "type": "error"
    },
    {
      "anonymous": false,
      "inputs": [
        {
          "indexed": true,
          "internalType": "address",
          "name": "previousOwner",
          "type": "address"
        },
        {
          "indexed": true,
          "internalType": "address",
          "name": "newOwner",
          "type": "address"
        }
      ],
      "name": "OwnershipTransferred",
      "type": "event"
    },
    {
      "inputs": [],
      "name": "admin",
      "outputs": [
        {
          "internalType": "address",
          "name": "",
          "type": "address"
        }
      ],
      "stateMutability": "view",
      "type": "function"
    },
    {
      "inputs": [],
      "name": "bridgeIn",
      "outputs": [
        {
          "internalType": "address",
          "name": "",
          "type": "address"
        }
      ],
      "stateMutability": "view",
      "type": "function"
    },
    {
      "inputs": [],
      "name": "bridgeOut",
      "outputs": [
        {
          "internalType": "address",
          "name": "",
          "type": "address"
        }
      ],
      "stateMutability": "view",
      "type": "function"
    },
    {
      "inputs": [
        {
          "internalType": "address",
          "name": "_admin",
          "type": "address"
        }
      ],
      "name": "changeAdmin",
      "outputs": [],
      "stateMutability": "nonpayable",
      "type": "function"
    },
    {
      "inputs": [
        {
          "internalType": "bytes32",
          "name": "dailyLimitId",
          "type": "bytes32"
        },
        {
          "internalType": "address",
          "name": "tokenAddress",
          "type": "address"
        },
        {
          "internalType": "uint256",
          "name": "amount",
          "type": "uint256"
        }
      ],
      "name": "consumeDailyLimit",
      "outputs": [],
      "stateMutability": "nonpayable",
      "type": "function"
    },
    {
      "inputs": [
        {
          "internalType": "bytes32",
          "name": "bucketId",
          "type": "bytes32"
        },
        {
          "internalType": "address",
          "name": "tokenAddress",
          "type": "address"
        },
        {
          "internalType": "uint256",
          "name": "amount",
          "type": "uint256"
        }
      ],
      "name": "consumeTokenBucket",
      "outputs": [],
      "stateMutability": "nonpayable",
      "type": "function"
    },
    {
      "inputs": [
        {
          "internalType": "address",
          "name": "token",
          "type": "address"
        },
        {
          "internalType": "string",
          "name": "targetChainId",
          "type": "string"
        }
      ],
      "name": "getCurrentReceiptTokenBucketState",
      "outputs": [
        {
          "components": [
            {
              "internalType": "uint128",
              "name": "currentTokenAmount",
              "type": "uint128"
            },
            {
              "internalType": "uint32",
              "name": "lastUpdatedTime",
              "type": "uint32"
            },
            {
              "internalType": "bool",
              "name": "isEnabled",
              "type": "bool"
            },
            {
              "internalType": "uint128",
              "name": "tokenCapacity",
              "type": "uint128"
            },
            {
              "internalType": "uint128",
              "name": "rate",
              "type": "uint128"
            }
          ],
          "internalType": "struct RateLimiter.TokenBucket",
          "name": "",
          "type": "tuple"
        }
      ],
      "stateMutability": "view",
      "type": "function"
    },
    {
      "inputs": [
        {
          "internalType": "address[]",
          "name": "tokens",
          "type": "address[]"
        },
        {
          "internalType": "string[]",
          "name": "targetChainIds",
          "type": "string[]"
        }
      ],
      "name": "getCurrentReceiptTokenBucketStates",
      "outputs": [
        {
          "components": [
            {
              "internalType": "uint128",
              "name": "currentTokenAmount",
              "type": "uint128"
            },
            {
              "internalType": "uint32",
              "name": "lastUpdatedTime",
              "type": "uint32"
            },
            {
              "internalType": "bool",
              "name": "isEnabled",
              "type": "bool"
            },
            {
              "internalType": "uint128",
              "name": "tokenCapacity",
              "type": "uint128"
            },
            {
              "internalType": "uint128",
              "name": "rate",
              "type": "uint128"
            }
          ],
          "internalType": "struct RateLimiter.TokenBucket[]",
          "name": "_tokenBuckets",
          "type": "tuple[]"
        }
      ],
      "stateMutability": "view",
      "type": "function"
    },
    {
      "inputs": [
        {
          "internalType": "address",
          "name": "token",
          "type": "address"
        },
        {
          "internalType": "string",
          "name": "fromChainId",
          "type": "string"
        }
      ],
      "name": "getCurrentSwapTokenBucketState",
      "outputs": [
        {
          "components": [
            {
              "internalType": "uint128",
              "name": "currentTokenAmount",
              "type": "uint128"
            },
            {
              "internalType": "uint32",
              "name": "lastUpdatedTime",
              "type": "uint32"
            },
            {
              "internalType": "bool",
              "name": "isEnabled",
              "type": "bool"
            },
            {
              "internalType": "uint128",
              "name": "tokenCapacity",
              "type": "uint128"
            },
            {
              "internalType": "uint128",
              "name": "rate",
              "type": "uint128"
            }
          ],
          "internalType": "struct RateLimiter.TokenBucket",
          "name": "",
          "type": "tuple"
        }
      ],
      "stateMutability": "view",
      "type": "function"
    },
    {
      "inputs": [
        {
          "internalType": "address[]",
          "name": "tokens",
          "type": "address[]"
        },
        {
          "internalType": "string[]",
          "name": "fromChainIds",
          "type": "string[]"
        }
      ],
      "name": "getCurrentSwapTokenBucketStates",
      "outputs": [
        {
          "components": [
            {
              "internalType": "uint128",
              "name": "currentTokenAmount",
              "type": "uint128"
            },
            {
              "internalType": "uint32",
              "name": "lastUpdatedTime",
              "type": "uint32"
            },
            {
              "internalType": "bool",
              "name": "isEnabled",
              "type": "bool"
            },
            {
              "internalType": "uint128",
              "name": "tokenCapacity",
              "type": "uint128"
            },
            {
              "internalType": "uint128",
              "name": "rate",
              "type": "uint128"
            }
          ],
          "internalType": "struct RateLimiter.TokenBucket[]",
          "name": "_tokenBuckets",
          "type": "tuple[]"
        }
      ],
      "stateMutability": "view",
      "type": "function"
    },
    {
      "inputs": [
        {
          "internalType": "uint256",
          "name": "amount",
          "type": "uint256"
        },
        {
          "internalType": "address",
          "name": "token",
          "type": "address"
        },
        {
          "internalType": "string",
          "name": "targetChainId",
          "type": "string"
        }
      ],
      "name": "getReceiptBucketMinWaitSeconds",
      "outputs": [
        {
          "internalType": "uint256",
          "name": "",
          "type": "uint256"
        }
      ],
      "stateMutability": "view",
      "type": "function"
    },
    {
      "inputs": [
        {
          "internalType": "address",
          "name": "token",
          "type": "address"
        },
        {
          "internalType": "string",
          "name": "targetChainId",
          "type": "string"
        }
      ],
      "name": "getReceiptDailyLimit",
      "outputs": [
        {
          "components": [
            {
              "internalType": "uint256",
              "name": "tokenAmount",
              "type": "uint256"
            },
            {
              "internalType": "uint32",
              "name": "refreshTime",
              "type": "uint32"
            },
            {
              "internalType": "uint256",
              "name": "defaultTokenAmount",
              "type": "uint256"
            }
          ],
          "internalType": "struct DailyLimiter.DailyLimitTokenInfo",
          "name": "",
          "type": "tuple"
        }
      ],
      "stateMutability": "view",
      "type": "function"
    },
    {
      "inputs": [
        {
          "internalType": "uint256",
          "name": "amount",
          "type": "uint256"
        },
        {
          "internalType": "address",
          "name": "token",
          "type": "address"
        },
        {
          "internalType": "string",
          "name": "fromChainId",
          "type": "string"
        }
      ],
      "name": "getSwapBucketMinWaitSeconds",
      "outputs": [
        {
          "internalType": "uint256",
          "name": "",
          "type": "uint256"
        }
      ],
      "stateMutability": "view",
      "type": "function"
    },
    {
      "inputs": [
        {
          "internalType": "bytes32",
          "name": "swapId",
          "type": "bytes32"
        }
      ],
      "name": "getSwapDailyLimit",
      "outputs": [
        {
          "components": [
            {
              "internalType": "uint256",
              "name": "tokenAmount",
              "type": "uint256"
            },
            {
              "internalType": "uint32",
              "name": "refreshTime",
              "type": "uint32"
            },
            {
              "internalType": "uint256",
              "name": "defaultTokenAmount",
              "type": "uint256"
            }
          ],
          "internalType": "struct DailyLimiter.DailyLimitTokenInfo",
          "name": "",
          "type": "tuple"
        }
      ],
      "stateMutability": "view",
      "type": "function"
    },
    {
      "inputs": [
        {
          "internalType": "address",
          "name": "_bridgeIn",
          "type": "address"
        },
        {
          "internalType": "address",
          "name": "_bridgeOut",
          "type": "address"
        },
        {
          "internalType": "address",
          "name": "_admin",
          "type": "address"
        }
      ],
      "name": "initialize",
      "outputs": [],
      "stateMutability": "nonpayable",
      "type": "function"
    },
    {
      "inputs": [],
      "name": "owner",
      "outputs": [
        {
          "internalType": "address",
          "name": "",
          "type": "address"
        }
      ],
      "stateMutability": "view",
      "type": "function"
    },
    {
      "inputs": [],
      "name": "renounceOwnership",
      "outputs": [],
      "stateMutability": "nonpayable",
      "type": "function"
    },
    {
      "inputs": [
        {
          "components": [
            {
              "internalType": "bytes32",
              "name": "dailyLimitId",
              "type": "bytes32"
            },
            {
              "internalType": "uint32",
              "name": "refreshTime",
              "type": "uint32"
            },
            {
              "internalType": "uint256",
              "name": "defaultTokenAmount",
              "type": "uint256"
            }
          ],
          "internalType": "struct DailyLimiter.DailyLimitConfig[]",
          "name": "dailyLimitConfigs",
          "type": "tuple[]"
        }
      ],
      "name": "setDailyLimit",
      "outputs": [],
      "stateMutability": "nonpayable",
      "type": "function"
    },
    {
      "inputs": [
        {
          "components": [
            {
              "internalType": "bytes32",
              "name": "bucketId",
              "type": "bytes32"
            },
            {
              "internalType": "bool",
              "name": "isEnabled",
              "type": "bool"
            },
            {
              "internalType": "uint128",
              "name": "tokenCapacity",
              "type": "uint128"
            },
            {
              "internalType": "uint128",
              "name": "rate",
              "type": "uint128"
            }
          ],
          "internalType": "struct RateLimiter.TokenBucketConfig[]",
          "name": "configs",
          "type": "tuple[]"
        }
      ],
      "name": "setTokenBucketConfig",
      "outputs": [],
      "stateMutability": "nonpayable",
      "type": "function"
    },
    {
      "inputs": [
        {
          "internalType": "address",
          "name": "newOwner",
          "type": "address"
        }
      ],
      "name": "transferOwnership",
      "outputs": [],
      "stateMutability": "nonpayable",
      "type": "function"
    }
  ],
  "bytecode": "0x60806040523480156200001157600080fd5b50d380156200001f57600080fd5b50d280156200002d57600080fd5b506200004e620000426200005460201b60201c565b6200005c60201b60201c565b62000120565b600033905090565b60008060009054906101000a900473ffffffffffffffffffffffffffffffffffffffff169050816000806101000a81548173ffffffffffffffffffffffffffffffffffffffff021916908373ffffffffffffffffffffffffffffffffffffffff1602179055508173ffffffffffffffffffffffffffffffffffffffff168173ffffffffffffffffffffffffffffffffffffffff167f8be0079c531659141344cd1fd0a4f28419497f9722a3daafe3b4186f6b6457e060405160405180910390a35050565b613cb080620001306000396000f3fe608060405234801561001057600080fd5b50d3801561001d57600080fd5b50d2801561002a57600080fd5b50600436106101465760003560e01c8063715018a6116100c7578063c0c53b8b1161008b578063c0c53b8b14610381578063d73a09b31461039d578063d96c3976146103b9578063f2fde38b146103d7578063f851a440146103f357610146565b8063715018a6146102ef57806372c912ae146102f95780638256ce4d146103295780638da5cb5b146103475780638f2839701461036557610146565b80631af4871d1161010e5780631af4871d1461022757806331980b84146102575780634fb2a5c9146102735780636917a75d146102a357806370a53489146102d357610146565b80630a3539af1461014b57806318e44ad81461017b57806319467d66146101ab5780631ac29d1a146101db5780631ac87fbf1461020b575b600080fd5b610165600480360381019061016091906129b6565b610411565b6040516101729190612a34565b60405180910390f35b61019560048036038101906101909190612bf8565b6104a4565b6040516101a29190612dec565b60405180910390f35b6101c560048036038101906101c09190612e0e565b61075d565b6040516101d29190612ed2565b60405180910390f35b6101f560048036038101906101f09190612e0e565b610931565b6040516102029190612ed2565b60405180910390f35b610225600480360381019061022091906130bb565b610b29565b005b610241600480360381019061023c91906129b6565b610c3f565b60405161024e9190612a34565b60405180910390f35b610271600480360381019061026c9190613104565b610cf6565b005b61028d60048036038101906102889190612e0e565b610e0a565b60405161029a91906131a8565b60405180910390f35b6102bd60048036038101906102b89190612bf8565b610ef9565b6040516102ca9190612dec565b60405180910390f35b6102ed60048036038101906102e89190613104565b61118e565b005b6102f76112a2565b005b610313600480360381019061030e91906131c3565b6112b6565b60405161032091906131a8565b60405180910390f35b610331611325565b60405161033e91906131ff565b60405180910390f35b61034f61134b565b60405161035c91906131ff565b60405180910390f35b61037f600480360381019061037a919061321a565b611374565b005b61039b60048036038101906103969190613247565b6114b8565b005b6103b760048036038101906103b291906133ed565b611619565b005b6103c1611715565b6040516103ce91906131ff565b60405180910390f35b6103f160048036038101906103ec919061321a565b61173b565b005b6103fb6117bf565b60405161040891906131ff565b60405180910390f35b60008073__BridgeInLibrary_______________________63446f95b485856040518363ffffffff1660e01b815260040161044d9291906134cd565b602060405180830381865af415801561046a573d6000803e3d6000fd5b505050506040513d601f19601f8201168201806040525081019061048e9190613512565b905061049a81866117e5565b9150509392505050565b6060825167ffffffffffffffff8111156104c1576104c061288b565b5b6040519080825280602002602001820160405280156104fa57816020015b6104e7612708565b8152602001906001900390816104df5790505b50905060005b8351811015610756576000600660009054906101000a900473ffffffffffffffffffffffffffffffffffffffff1673ffffffffffffffffffffffffffffffffffffffff166371d0c5ca86848151811061055c5761055b61353f565b5b60200260200101518685815181106105775761057661353f565b5b60200260200101516040518363ffffffff1660e01b815260040161059c9291906135b8565b602060405180830381865afa1580156105b9573d6000803e3d6000fd5b505050506040513d601f19601f820116820180604052508101906105dd9190613512565b9050610724600260008381526020019081526020016000206040518060a00160405290816000820160009054906101000a90046fffffffffffffffffffffffffffffffff166fffffffffffffffffffffffffffffffff166fffffffffffffffffffffffffffffffff1681526020016000820160109054906101000a900463ffffffff1663ffffffff1663ffffffff1681526020016000820160149054906101000a900460ff161515151581526020016001820160009054906101000a90046fffffffffffffffffffffffffffffffff166fffffffffffffffffffffffffffffffff166fffffffffffffffffffffffffffffffff1681526020016001820160109054906101000a90046fffffffffffffffffffffffffffffffff166fffffffffffffffffffffffffffffffff166fffffffffffffffffffffffffffffffff16815250506119ed565b8383815181106107375761073661353f565b5b602002602001018190525050808061074e90613617565b915050610500565b5092915050565b610765612708565b600073__BridgeInLibrary_______________________63446f95b485856040518363ffffffff1660e01b81526004016107a09291906134cd565b602060405180830381865af41580156107bd573d6000803e3d6000fd5b505050506040513d601f19601f820116820180604052508101906107e19190613512565b9050610928600260008381526020019081526020016000206040518060a00160405290816000820160009054906101000a90046fffffffffffffffffffffffffffffffff166fffffffffffffffffffffffffffffffff166fffffffffffffffffffffffffffffffff1681526020016000820160109054906101000a900463ffffffff1663ffffffff1663ffffffff1681526020016000820160149054906101000a900460ff161515151581526020016001820160009054906101000a90046fffffffffffffffffffffffffffffffff166fffffffffffffffffffffffffffffffff166fffffffffffffffffffffffffffffffff1681526020016001820160109054906101000a90046fffffffffffffffffffffffffffffffff166fffffffffffffffffffffffffffffffff166fffffffffffffffffffffffffffffffff16815250506119ed565b91505092915050565b610939612708565b6000600660009054906101000a900473ffffffffffffffffffffffffffffffffffffffff1673ffffffffffffffffffffffffffffffffffffffff166371d0c5ca85856040518363ffffffff1660e01b81526004016109989291906135b8565b602060405180830381865afa1580156109b5573d6000803e3d6000fd5b505050506040513d601f19601f820116820180604052508101906109d99190613512565b9050610b20600260008381526020019081526020016000206040518060a00160405290816000820160009054906101000a90046fffffffffffffffffffffffffffffffff166fffffffffffffffffffffffffffffffff166fffffffffffffffffffffffffffffffff1681526020016000820160109054906101000a900463ffffffff1663ffffffff1663ffffffff1681526020016000820160149054906101000a900460ff161515151581526020016001820160009054906101000a90046fffffffffffffffffffffffffffffffff166fffffffffffffffffffffffffffffffff166fffffffffffffffffffffffffffffffff1681526020016001820160109054906101000a90046fffffffffffffffffffffffffffffffff166fffffffffffffffffffffffffffffffff166fffffffffffffffffffffffffffffffff16815250506119ed565b91505092915050565b600460009054906101000a900473ffffffffffffffffffffffffffffffffffffffff1673ffffffffffffffffffffffffffffffffffffffff163373ffffffffffffffffffffffffffffffffffffffff1614610bb9576040517f08c379a0000000000000000000000000000000000000000000000000000000008152600401610bb0906136ac565b60405180910390fd5b60005b8151811015610c3b576000828281518110610bda57610bd961353f565b5b60200260200101519050610c27838381518110610bfa57610bf961353f565b5b60200260200101516002600084600001518152602001908152602001600020611aae90919063ffffffff16565b508080610c3390613617565b915050610bbc565b5050565b600080600660009054906101000a900473ffffffffffffffffffffffffffffffffffffffff1673ffffffffffffffffffffffffffffffffffffffff166371d0c5ca85856040518363ffffffff1660e01b8152600401610c9f9291906135b8565b602060405180830381865afa158015610cbc573d6000803e3d6000fd5b505050506040513d601f19601f82011682018060405250810190610ce09190613512565b9050610cec81866117e5565b9150509392505050565b600560009054906101000a900473ffffffffffffffffffffffffffffffffffffffff1673ffffffffffffffffffffffffffffffffffffffff163373ffffffffffffffffffffffffffffffffffffffff161480610d9f5750600660009054906101000a900473ffffffffffffffffffffffffffffffffffffffff1673ffffffffffffffffffffffffffffffffffffffff163373ffffffffffffffffffffffffffffffffffffffff16145b610dde576040517f08c379a0000000000000000000000000000000000000000000000000000000008152600401610dd5906136ac565b60405180910390fd5b610e05828260036000878152602001908152602001600020611dd79092919063ffffffff16565b505050565b610e12612775565b600073__BridgeInLibrary_______________________63446f95b485856040518363ffffffff1660e01b8152600401610e4d9291906134cd565b602060405180830381865af4158015610e6a573d6000803e3d6000fd5b505050506040513d601f19601f82011682018060405250810190610e8e9190613512565b9050610ef060036000838152602001908152602001600020604051806060016040529081600082015481526020016001820160009054906101000a900463ffffffff1663ffffffff1663ffffffff168152602001600282015481525050611ed3565b91505092915050565b6060825167ffffffffffffffff811115610f1657610f1561288b565b5b604051908082528060200260200182016040528015610f4f57816020015b610f3c612708565b815260200190600190039081610f345790505b50905060005b835181101561118757600073__BridgeInLibrary_______________________63446f95b4868481518110610f8d57610f8c61353f565b5b6020026020010151868581518110610fa857610fa761353f565b5b60200260200101516040518363ffffffff1660e01b8152600401610fcd9291906134cd565b602060405180830381865af4158015610fea573d6000803e3d6000fd5b505050506040513d601f19601f8201168201806040525081019061100e9190613512565b9050611155600260008381526020019081526020016000206040518060a00160405290816000820160009054906101000a90046fffffffffffffffffffffffffffffffff166fffffffffffffffffffffffffffffffff166fffffffffffffffffffffffffffffffff1681526020016000820160109054906101000a900463ffffffff1663ffffffff1663ffffffff1681526020016000820160149054906101000a900460ff161515151581526020016001820160009054906101000a90046fffffffffffffffffffffffffffffffff166fffffffffffffffffffffffffffffffff166fffffffffffffffffffffffffffffffff1681526020016001820160109054906101000a90046fffffffffffffffffffffffffffffffff166fffffffffffffffffffffffffffffffff166fffffffffffffffffffffffffffffffff16815250506119ed565b8383815181106111685761116761353f565b5b602002602001018190525050808061117f90613617565b915050610f55565b5092915050565b600560009054906101000a900473ffffffffffffffffffffffffffffffffffffffff1673ffffffffffffffffffffffffffffffffffffffff163373ffffffffffffffffffffffffffffffffffffffff1614806112375750600660009054906101000a900473ffffffffffffffffffffffffffffffffffffffff1673ffffffffffffffffffffffffffffffffffffffff163373ffffffffffffffffffffffffffffffffffffffff16145b611276576040517f08c379a000000000000000000000000000000000000000000000000000000000815260040161126d906136ac565b60405180910390fd5b61129d828260026000878152602001908152602001600020611f2b9092919063ffffffff16565b505050565b6112aa612232565b6112b460006122b0565b565b6112be612775565b61131e60036000848152602001908152602001600020604051806060016040529081600082015481526020016001820160009054906101000a900463ffffffff1663ffffffff1663ffffffff168152602001600282015481525050611ed3565b9050919050565b600560009054906101000a900473ffffffffffffffffffffffffffffffffffffffff1681565b60008060009054906101000a900473ffffffffffffffffffffffffffffffffffffffff16905090565b600460009054906101000a900473ffffffffffffffffffffffffffffffffffffffff1673ffffffffffffffffffffffffffffffffffffffff163373ffffffffffffffffffffffffffffffffffffffff1614611404576040517f08c379a00000000000000000000000000000000000000000000000000000000081526004016113fb906136ac565b60405180910390fd5b600073ffffffffffffffffffffffffffffffffffffffff168173ffffffffffffffffffffffffffffffffffffffff161415611474576040517f08c379a000000000000000000000000000000000000000000000000000000000815260040161146b90613718565b60405180910390fd5b80600460006101000a81548173ffffffffffffffffffffffffffffffffffffffff021916908373ffffffffffffffffffffffffffffffffffffffff16021790555050565b6114c0612232565b600073ffffffffffffffffffffffffffffffffffffffff16600560009054906101000a900473ffffffffffffffffffffffffffffffffffffffff1673ffffffffffffffffffffffffffffffffffffffff1614611551576040517f08c379a000000000000000000000000000000000000000000000000000000000815260040161154890613784565b60405180910390fd5b82600560006101000a81548173ffffffffffffffffffffffffffffffffffffffff021916908373ffffffffffffffffffffffffffffffffffffffff16021790555081600660006101000a81548173ffffffffffffffffffffffffffffffffffffffff021916908373ffffffffffffffffffffffffffffffffffffffff16021790555080600460006101000a81548173ffffffffffffffffffffffffffffffffffffffff021916908373ffffffffffffffffffffffffffffffffffffffff160217905550505050565b600460009054906101000a900473ffffffffffffffffffffffffffffffffffffffff1673ffffffffffffffffffffffffffffffffffffffff163373ffffffffffffffffffffffffffffffffffffffff16146116a9576040517f08c379a00000000000000000000000000000000000000000000000000000000081526004016116a0906136ac565b60405180910390fd5b60005b81518110156117115760008282815181106116ca576116c961353f565b5b602002602001015190506116fd81600360008460000151815260200190815260200160002061237490919063ffffffff16565b50808061170990613617565b9150506116ac565b5050565b600660009054906101000a900473ffffffffffffffffffffffffffffffffffffffff1681565b611743612232565b600073ffffffffffffffffffffffffffffffffffffffff168173ffffffffffffffffffffffffffffffffffffffff1614156117b3576040517f08c379a00000000000000000000000000000000000000000000000000000000081526004016117aa90613816565b60405180910390fd5b6117bc816122b0565b50565b600460009054906101000a900473ffffffffffffffffffffffffffffffffffffffff1681565b60008061192d600260008681526020019081526020016000206040518060a00160405290816000820160009054906101000a90046fffffffffffffffffffffffffffffffff166fffffffffffffffffffffffffffffffff166fffffffffffffffffffffffffffffffff1681526020016000820160109054906101000a900463ffffffff1663ffffffff1663ffffffff1681526020016000820160149054906101000a900460ff161515151581526020016001820160009054906101000a90046fffffffffffffffffffffffffffffffff166fffffffffffffffffffffffffffffffff166fffffffffffffffffffffffffffffffff1681526020016001820160109054906101000a90046fffffffffffffffffffffffffffffffff166fffffffffffffffffffffffffffffffff166fffffffffffffffffffffffffffffffff16815250506119ed565b905080600001516fffffffffffffffffffffffffffffffff168311156119e1576119d981608001516fffffffffffffffffffffffffffffffff166119cb611994600185608001516fffffffffffffffffffffffffffffffff166125b290919063ffffffff16565b6119bd85600001516fffffffffffffffffffffffffffffffff16886125b290919063ffffffff16565b6125c890919063ffffffff16565b6125de90919063ffffffff16565b9150506119e7565b60009150505b92915050565b6119f5612708565b611a5f82606001516fffffffffffffffffffffffffffffffff1683600001516fffffffffffffffffffffffffffffffff1684608001516fffffffffffffffffffffffffffffffff16611a5a866020015163ffffffff16426125b290919063ffffffff16565b6125f4565b82600001906fffffffffffffffffffffffffffffffff1690816fffffffffffffffffffffffffffffffff168152505042826020019063ffffffff16908163ffffffff1681525050819050919050565b60008260000160109054906101000a900463ffffffff1663ffffffff1614611c9b576000611aff8360000160109054906101000a900463ffffffff1663ffffffff16426125b290919063ffffffff16565b905060008114611c0957611bab8360010160009054906101000a90046fffffffffffffffffffffffffffffffff166fffffffffffffffffffffffffffffffff168460000160009054906101000a90046fffffffffffffffffffffffffffffffff166fffffffffffffffffffffffffffffffff168560010160109054906101000a90046fffffffffffffffffffffffffffffffff166fffffffffffffffffffffffffffffffff16846125f4565b8360000160006101000a8154816fffffffffffffffffffffffffffffffff02191690836fffffffffffffffffffffffffffffffff160217905550428360000160106101000a81548163ffffffff021916908363ffffffff1602179055505b611c5b82604001516fffffffffffffffffffffffffffffffff168460000160009054906101000a90046fffffffffffffffffffffffffffffffff166fffffffffffffffffffffffffffffffff1661262e565b8360000160006101000a8154816fffffffffffffffffffffffffffffffff02191690836fffffffffffffffffffffffffffffffff16021790555050611cfe565b80604001518260000160006101000a8154816fffffffffffffffffffffffffffffffff02191690836fffffffffffffffffffffffffffffffff160217905550428260000160106101000a81548163ffffffff021916908363ffffffff1602179055505b80604001518260010160006101000a8154816fffffffffffffffffffffffffffffffff02191690836fffffffffffffffffffffffffffffffff16021790555080602001518260000160146101000a81548160ff02191690831515021790555080606001518260010160106101000a8154816fffffffffffffffffffffffffffffffff02191690836fffffffffffffffffffffffffffffffff1602179055507fa640a737de27972dce6fd31f0f94b0632cbbb4383c09cd0ada676c804a0ee76481604051611dcb919061389a565b60405180910390a15050565b600080611e078560010160009054906101000a900463ffffffff1663ffffffff1686600001548760020154612647565b91509150818560010160006101000a81548163ffffffff021916908363ffffffff16021790555080831115611e755780836040517fef664d6a000000000000000000000000000000000000000000000000000000008152600401611e6c9291906138b5565b60405180910390fd5b611e8883826125b290919063ffffffff16565b90508085600001819055507fa39ba3817e5a89273ef2f57a632f9335f8f26a5a870c5c8325f28bdc033624f38484604051611ec49291906138de565b60405180910390a15050505050565b611edb612775565b600080611efb846020015163ffffffff1685600001518660400151612647565b9150915081846020019063ffffffff16908163ffffffff1681525050808460000181815250508392505050919050565b8260000160149054906101000a900460ff16611f465761222d565b60008360000160009054906101000a90046fffffffffffffffffffffffffffffffff166fffffffffffffffffffffffffffffffff16905060008460010160009054906101000a90046fffffffffffffffffffffffffffffffff166fffffffffffffffffffffffffffffffff1690506000611fe38660000160109054906101000a900463ffffffff1663ffffffff16426125b290919063ffffffff16565b90506000811461208b5781831115612027576040517f9725942a00000000000000000000000000000000000000000000000000000000815260040160405180910390fd5b61206582848860010160109054906101000a90046fffffffffffffffffffffffffffffffff166fffffffffffffffffffffffffffffffff16846125f4565b9250428660000160106101000a81548163ffffffff021916908363ffffffff1602179055505b838210156120d25781846040517f597dbe2e0000000000000000000000000000000000000000000000000000000081526004016120c99291906138b5565b60405180910390fd5b838310156121a05760008660010160109054906101000a90046fffffffffffffffffffffffffffffffff166fffffffffffffffffffffffffffffffff169050600061215d8261214f61212e6001866125b290919063ffffffff16565b612141898b6125b290919063ffffffff16565b6125c890919063ffffffff16565b6125de90919063ffffffff16565b90508086886040517fd0c8d23a00000000000000000000000000000000000000000000000000000000815260040161219793929190613907565b60405180910390fd5b6121b384846125b290919063ffffffff16565b9250828660000160006101000a8154816fffffffffffffffffffffffffffffffff02191690836fffffffffffffffffffffffffffffffff1602179055507f374a8d4f03696afa82dcd155bdd4229715be920b1148c5e20ee47d609dd758d585856040516122219291906138de565b60405180910390a15050505b505050565b61223a6126d4565b73ffffffffffffffffffffffffffffffffffffffff1661225861134b565b73ffffffffffffffffffffffffffffffffffffffff16146122ae576040517f08c379a00000000000000000000000000000000000000000000000000000000081526004016122a59061398a565b60405180910390fd5b565b60008060009054906101000a900473ffffffffffffffffffffffffffffffffffffffff169050816000806101000a81548173ffffffffffffffffffffffffffffffffffffffff021916908373ffffffffffffffffffffffffffffffffffffffff1602179055508173ffffffffffffffffffffffffffffffffffffffff168173ffffffffffffffffffffffffffffffffffffffff167f8be0079c531659141344cd1fd0a4f28419497f9722a3daafe3b4186f6b6457e060405160405180910390a35050565b600061239c6201518063ffffffff16836020015163ffffffff166126dc90919063ffffffff16565b146123dc576040517f08c379a00000000000000000000000000000000000000000000000000000000081526004016123d3906139f6565b60405180910390fd5b806020015163ffffffff16421015801561241b57506201518063ffffffff16612418826020015163ffffffff16426125b290919063ffffffff16565b11155b61245a576040517f08c379a000000000000000000000000000000000000000000000000000000000815260040161245190613a88565b60405180910390fd5b60008260010160009054906101000a900463ffffffff1663ffffffff16141580156124cc575060016124ca6201518063ffffffff166124bc8560010160009054906101000a900463ffffffff1663ffffffff16426125b290919063ffffffff16565b6125de90919063ffffffff16565b105b156125355760008260020154905060008360000154905060006124f882846125b290919063ffffffff16565b905080846040015111156125225761251d8185604001516125b290919063ffffffff16565b612525565b60005b8560000181905550505050612543565b806040015182600001819055505b8060400151826002018190555080602001518260010160006101000a81548163ffffffff021916908363ffffffff1602179055507f38adbdcf6de9c9a4a8899434abfb9e88c3e3e127329f8d61ecce6bf51dd40e51816040516125a69190613aea565b60405180910390a15050565b600081836125c09190613b05565b905092915050565b600081836125d69190613b39565b905092915050565b600081836125ec9190613bbe565b905092915050565b60006126248561261f61261086866126f290919063ffffffff16565b876125c890919063ffffffff16565b61262e565b9050949350505050565b600081831061263d578161263f565b825b905092915050565b600080600061267a6201518063ffffffff1661266c88426125b290919063ffffffff16565b6125de90919063ffffffff16565b90506000869050600086905060008311156126c3576126bd6126ae846201518063ffffffff166126f290919063ffffffff16565b896125c890919063ffffffff16565b91508590505b818194509450505050935093915050565b600033905090565b600081836126ea9190613bef565b905092915050565b600081836127009190613c20565b905092915050565b6040518060a0016040528060006fffffffffffffffffffffffffffffffff168152602001600063ffffffff16815260200160001515815260200160006fffffffffffffffffffffffffffffffff16815260200160006fffffffffffffffffffffffffffffffff1681525090565b604051806060016040528060008152602001600063ffffffff168152602001600081525090565b6000604051905090565b600080fd5b600080fd5b6000819050919050565b6127c3816127b0565b81146127ce57600080fd5b50565b6000813590506127e0816127ba565b92915050565b600074ffffffffffffffffffffffffffffffffffffffffff82169050919050565b612810816127e6565b811461281b57600080fd5b50565b600073ffffffffffffffffffffffffffffffffffffffff82169050919050565b60006128498261281e565b9050919050565b60008135905061285f81612807565b6128688161283e565b905092915050565b600080fd5b600080fd5b6000601f19601f8301169050919050565b7f4e487b7100000000000000000000000000000000000000000000000000000000600052604160045260246000fd5b6128c38261287a565b810181811067ffffffffffffffff821117156128e2576128e161288b565b5b80604052505050565b60006128f561279c565b905061290182826128ba565b919050565b600067ffffffffffffffff8211156129215761292061288b565b5b61292a8261287a565b9050602081019050919050565b82818337600083830152505050565b600061295961295484612906565b6128eb565b90508281526020810184848401111561297557612974612875565b5b612980848285612937565b509392505050565b600082601f83011261299d5761299c612870565b5b81356129ad848260208601612946565b91505092915050565b6000806000606084860312156129cf576129ce6127a6565b5b60006129dd868287016127d1565b93505060206129ee86828701612850565b925050604084013567ffffffffffffffff811115612a0f57612a0e6127ab565b5b612a1b86828701612988565b9150509250925092565b612a2e816127b0565b82525050565b6000602082019050612a496000830184612a25565b92915050565b600067ffffffffffffffff821115612a6a57612a6961288b565b5b602082029050602081019050919050565b600080fd5b6000612a93612a8e84612a4f565b6128eb565b90508083825260208201905060208402830185811115612ab657612ab5612a7b565b5b835b81811015612adf5780612acb8882612850565b845260208401935050602081019050612ab8565b5050509392505050565b600082601f830112612afe57612afd612870565b5b8135612b0e848260208601612a80565b91505092915050565b600067ffffffffffffffff821115612b3257612b3161288b565b5b602082029050602081019050919050565b6000612b56612b5184612b17565b6128eb565b90508083825260208201905060208402830185811115612b7957612b78612a7b565b5b835b81811015612bc057803567ffffffffffffffff811115612b9e57612b9d612870565b5b808601612bab8982612988565b85526020850194505050602081019050612b7b565b5050509392505050565b600082601f830112612bdf57612bde612870565b5b8135612bef848260208601612b43565b91505092915050565b60008060408385031215612c0f57612c0e6127a6565b5b600083013567ffffffffffffffff811115612c2d57612c2c6127ab565b5b612c3985828601612ae9565b925050602083013567ffffffffffffffff811115612c5a57612c596127ab565b5b612c6685828601612bca565b9150509250929050565b600081519050919050565b600082825260208201905092915050565b6000819050602082019050919050565b60006fffffffffffffffffffffffffffffffff82169050919050565b612cc181612c9c565b82525050565b600063ffffffff82169050919050565b612ce081612cc7565b82525050565b60008115159050919050565b612cfb81612ce6565b82525050565b60a082016000820151612d176000850182612cb8565b506020820151612d2a6020850182612cd7565b506040820151612d3d6040850182612cf2565b506060820151612d506060850182612cb8565b506080820151612d636080850182612cb8565b50505050565b6000612d758383612d01565b60a08301905092915050565b6000602082019050919050565b6000612d9982612c70565b612da38185612c7b565b9350612dae83612c8c565b8060005b83811015612ddf578151612dc68882612d69565b9750612dd183612d81565b925050600181019050612db2565b5085935050505092915050565b60006020820190508181036000830152612e068184612d8e565b905092915050565b60008060408385031215612e2557612e246127a6565b5b6000612e3385828601612850565b925050602083013567ffffffffffffffff811115612e5457612e536127ab565b5b612e6085828601612988565b9150509250929050565b60a082016000820151612e806000850182612cb8565b506020820151612e936020850182612cd7565b506040820151612ea66040850182612cf2565b506060820151612eb96060850182612cb8565b506080820151612ecc6080850182612cb8565b50505050565b600060a082019050612ee76000830184612e6a565b92915050565b600067ffffffffffffffff821115612f0857612f0761288b565b5b602082029050602081019050919050565b600080fd5b6000819050919050565b612f3181612f1e565b8114612f3c57600080fd5b50565b600081359050612f4e81612f28565b92915050565b612f5d81612ce6565b8114612f6857600080fd5b50565b600081359050612f7a81612f54565b92915050565b612f8981612c9c565b8114612f9457600080fd5b50565b600081359050612fa681612f80565b92915050565b600060808284031215612fc257612fc1612f19565b5b612fcc60806128eb565b90506000612fdc84828501612f3f565b6000830152506020612ff084828501612f6b565b602083015250604061300484828501612f97565b604083015250606061301884828501612f97565b60608301525092915050565b600061303761303284612eed565b6128eb565b9050808382526020820190506080840283018581111561305a57613059612a7b565b5b835b81811015613083578061306f8882612fac565b84526020840193505060808101905061305c565b5050509392505050565b600082601f8301126130a2576130a1612870565b5b81356130b2848260208601613024565b91505092915050565b6000602082840312156130d1576130d06127a6565b5b600082013567ffffffffffffffff8111156130ef576130ee6127ab565b5b6130fb8482850161308d565b91505092915050565b60008060006060848603121561311d5761311c6127a6565b5b600061312b86828701612f3f565b935050602061313c86828701612850565b925050604061314d868287016127d1565b9150509250925092565b613160816127b0565b82525050565b60608201600082015161317c6000850182613157565b50602082015161318f6020850182612cd7565b5060408201516131a26040850182613157565b50505050565b60006060820190506131bd6000830184613166565b92915050565b6000602082840312156131d9576131d86127a6565b5b60006131e784828501612f3f565b91505092915050565b6131f98161283e565b82525050565b600060208201905061321460008301846131f0565b92915050565b6000602082840312156132305761322f6127a6565b5b600061323e84828501612850565b91505092915050565b6000806000606084860312156132605761325f6127a6565b5b600061326e86828701612850565b935050602061327f86828701612850565b925050604061329086828701612850565b9150509250925092565b600067ffffffffffffffff8211156132b5576132b461288b565b5b602082029050602081019050919050565b6132cf81612cc7565b81146132da57600080fd5b50565b6000813590506132ec816132c6565b92915050565b60006060828403121561330857613307612f19565b5b61331260606128eb565b9050600061332284828501612f3f565b6000830152506020613336848285016132dd565b602083015250604061334a848285016127d1565b60408301525092915050565b60006133696133648461329a565b6128eb565b9050808382526020820190506060840283018581111561338c5761338b612a7b565b5b835b818110156133b557806133a188826132f2565b84526020840193505060608101905061338e565b5050509392505050565b600082601f8301126133d4576133d3612870565b5b81356133e4848260208601613356565b91505092915050565b600060208284031215613403576134026127a6565b5b600082013567ffffffffffffffff811115613421576134206127ab565b5b61342d848285016133bf565b91505092915050565b61343f8161283e565b82525050565b600081519050919050565b600082825260208201905092915050565b60005b8381101561347f578082015181840152602081019050613464565b8381111561348e576000848401525b50505050565b600061349f82613445565b6134a98185613450565b93506134b9818560208601613461565b6134c28161287a565b840191505092915050565b60006040820190506134e26000830185613436565b81810360208301526134f48184613494565b90509392505050565b60008151905061350c81612f28565b92915050565b600060208284031215613528576135276127a6565b5b6000613536848285016134fd565b91505092915050565b7f4e487b7100000000000000000000000000000000000000000000000000000000600052603260045260246000fd5b600082825260208201905092915050565b600061358a82613445565b613594818561356e565b93506135a4818560208601613461565b6135ad8161287a565b840191505092915050565b60006040820190506135cd60008301856131f0565b81810360208301526135df818461357f565b90509392505050565b7f4e487b7100000000000000000000000000000000000000000000000000000000600052601160045260246000fd5b6000613622826127b0565b91507fffffffffffffffffffffffffffffffffffffffffffffffffffffffffffffffff821415613655576136546135e8565b5b600182019050919050565b7f6e6f207065726d697373696f6e00000000000000000000000000000000000000600082015250565b6000613696600d8361356e565b91506136a182613660565b602082019050919050565b600060208201905081810360008301526136c581613689565b9050919050565b7f696e76616c696420696e70757400000000000000000000000000000000000000600082015250565b6000613702600d8361356e565b915061370d826136cc565b602082019050919050565b60006020820190508181036000830152613731816136f5565b9050919050565b7f616c726561647920696e697469616c697a656400000000000000000000000000600082015250565b600061376e60138361356e565b915061377982613738565b602082019050919050565b6000602082019050818103600083015261379d81613761565b9050919050565b7f4f776e61626c653a206e6577206f776e657220697320746865207a65726f206160008201527f6464726573730000000000000000000000000000000000000000000000000000602082015250565b600061380060268361356e565b915061380b826137a4565b604082019050919050565b6000602082019050818103600083015261382f816137f3565b9050919050565b61383f81612f1e565b82525050565b60808201600082015161385b6000850182613836565b50602082015161386e6020850182612cf2565b5060408201516138816040850182612cb8565b5060608201516138946060850182612cb8565b50505050565b60006080820190506138af6000830184613845565b92915050565b60006040820190506138ca6000830185612a25565b6138d76020830184612a25565b9392505050565b60006040820190506138f360008301856131f0565b6139006020830184612a25565b9392505050565b600060608201905061391c6000830186612a25565b6139296020830185612a25565b61393660408301846131f0565b949350505050565b7f4f776e61626c653a2063616c6c6572206973206e6f7420746865206f776e6572600082015250565b600061397460208361356e565b915061397f8261393e565b602082019050919050565b600060208201905081810360008301526139a381613967565b9050919050565b7f496e76616c696420726566726573682074696d652e0000000000000000000000600082015250565b60006139e060158361356e565b91506139eb826139aa565b602082019050919050565b60006020820190508181036000830152613a0f816139d3565b9050919050565b7f4f6e6c79206461696c79206c696d6974732061726520737570706f727465642060008201527f77697468696e2074686520636f6e74726163742e000000000000000000000000602082015250565b6000613a7260348361356e565b9150613a7d82613a16565b604082019050919050565b60006020820190508181036000830152613aa181613a65565b9050919050565b606082016000820151613abe6000850182613836565b506020820151613ad16020850182612cd7565b506040820151613ae46040850182613157565b50505050565b6000606082019050613aff6000830184613aa8565b92915050565b6000613b10826127b0565b9150613b1b836127b0565b925082821015613b2e57613b2d6135e8565b5b828203905092915050565b6000613b44826127b0565b9150613b4f836127b0565b9250827fffffffffffffffffffffffffffffffffffffffffffffffffffffffffffffffff03821115613b8457613b836135e8565b5b828201905092915050565b7f4e487b7100000000000000000000000000000000000000000000000000000000600052601260045260246000fd5b6000613bc9826127b0565b9150613bd4836127b0565b925082613be457613be3613b8f565b5b828204905092915050565b6000613bfa826127b0565b9150613c05836127b0565b925082613c1557613c14613b8f565b5b828206905092915050565b6000613c2b826127b0565b9150613c36836127b0565b9250817fffffffffffffffffffffffffffffffffffffffffffffffffffffffffffffffff0483118215151615613c6f57613c6e6135e8565b5b82820290509291505056fea26474726f6e5822122003501a6b505301b82da97c99b1d291eadddc62ec1400c21db34a50da0a7a4bdf64736f6c634300080b0033",
  "deployedBytecode": "0x608060405234801561001057600080fd5b50d3801561001d57600080fd5b50d2801561002a57600080fd5b50600436106101465760003560e01c8063715018a6116100c7578063c0c53b8b1161008b578063c0c53b8b14610381578063d73a09b31461039d578063d96c3976146103b9578063f2fde38b146103d7578063f851a440146103f357610146565b8063715018a6146102ef57806372c912ae146102f95780638256ce4d146103295780638da5cb5b146103475780638f2839701461036557610146565b80631af4871d1161010e5780631af4871d1461022757806331980b84146102575780634fb2a5c9146102735780636917a75d146102a357806370a53489146102d357610146565b80630a3539af1461014b57806318e44ad81461017b57806319467d66146101ab5780631ac29d1a146101db5780631ac87fbf1461020b575b600080fd5b610165600480360381019061016091906129b6565b610411565b6040516101729190612a34565b60405180910390f35b61019560048036038101906101909190612bf8565b6104a4565b6040516101a29190612dec565b60405180910390f35b6101c560048036038101906101c09190612e0e565b61075d565b6040516101d29190612ed2565b60405180910390f35b6101f560048036038101906101f09190612e0e565b610931565b6040516102029190612ed2565b60405180910390f35b610225600480360381019061022091906130bb565b610b29565b005b610241600480360381019061023c91906129b6565b610c3f565b60405161024e9190612a34565b60405180910390f35b610271600480360381019061026c9190613104565b610cf6565b005b61028d60048036038101906102889190612e0e565b610e0a565b60405161029a91906131a8565b60405180910390f35b6102bd60048036038101906102b89190612bf8565b610ef9565b6040516102ca9190612dec565b60405180910390f35b6102ed60048036038101906102e89190613104565b61118e565b005b6102f76112a2565b005b610313600480360381019061030e91906131c3565b6112b6565b60405161032091906131a8565b60405180910390f35b610331611325565b60405161033e91906131ff565b60405180910390f35b61034f61134b565b60405161035c91906131ff565b60405180910390f35b61037f600480360381019061037a919061321a565b611374565b005b61039b60048036038101906103969190613247565b6114b8565b005b6103b760048036038101906103b291906133ed565b611619565b005b6103c1611715565b6040516103ce91906131ff565b60405180910390f35b6103f160048036038101906103ec919061321a565b61173b565b005b6103fb6117bf565b60405161040891906131ff565b60405180910390f35b60008073__$626e42c3f3fdbda1180711fae0265f84c2$__63446f95b485856040518363ffffffff1660e01b815260040161044d9291906134cd565b602060405180830381865af415801561046a573d6000803e3d6000fd5b505050506040513d601f19601f8201168201806040525081019061048e9190613512565b905061049a81866117e5565b9150509392505050565b6060825167ffffffffffffffff8111156104c1576104c061288b565b5b6040519080825280602002602001820160405280156104fa57816020015b6104e7612708565b8152602001906001900390816104df5790505b50905060005b8351811015610756576000600660009054906101000a900473ffffffffffffffffffffffffffffffffffffffff1673ffffffffffffffffffffffffffffffffffffffff166371d0c5ca86848151811061055c5761055b61353f565b5b60200260200101518685815181106105775761057661353f565b5b60200260200101516040518363ffffffff1660e01b815260040161059c9291906135b8565b602060405180830381865afa1580156105b9573d6000803e3d6000fd5b505050506040513d601f19601f820116820180604052508101906105dd9190613512565b9050610724600260008381526020019081526020016000206040518060a00160405290816000820160009054906101000a90046fffffffffffffffffffffffffffffffff166fffffffffffffffffffffffffffffffff166fffffffffffffffffffffffffffffffff1681526020016000820160109054906101000a900463ffffffff1663ffffffff1663ffffffff1681526020016000820160149054906101000a900460ff161515151581526020016001820160009054906101000a90046fffffffffffffffffffffffffffffffff166fffffffffffffffffffffffffffffffff166fffffffffffffffffffffffffffffffff1681526020016001820160109054906101000a90046fffffffffffffffffffffffffffffffff166fffffffffffffffffffffffffffffffff166fffffffffffffffffffffffffffffffff16815250506119ed565b8383815181106107375761073661353f565b5b602002602001018190525050808061074e90613617565b915050610500565b5092915050565b610765612708565b600073__$626e42c3f3fdbda1180711fae0265f84c2$__63446f95b485856040518363ffffffff1660e01b81526004016107a09291906134cd565b602060405180830381865af41580156107bd573d6000803e3d6000fd5b505050506040513d601f19601f820116820180604052508101906107e19190613512565b9050610928600260008381526020019081526020016000206040518060a00160405290816000820160009054906101000a90046fffffffffffffffffffffffffffffffff166fffffffffffffffffffffffffffffffff166fffffffffffffffffffffffffffffffff1681526020016000820160109054906101000a900463ffffffff1663ffffffff1663ffffffff1681526020016000820160149054906101000a900460ff161515151581526020016001820160009054906101000a90046fffffffffffffffffffffffffffffffff166fffffffffffffffffffffffffffffffff166fffffffffffffffffffffffffffffffff1681526020016001820160109054906101000a90046fffffffffffffffffffffffffffffffff166fffffffffffffffffffffffffffffffff166fffffffffffffffffffffffffffffffff16815250506119ed565b91505092915050565b610939612708565b6000600660009054906101000a900473ffffffffffffffffffffffffffffffffffffffff1673ffffffffffffffffffffffffffffffffffffffff166371d0c5ca85856040518363ffffffff1660e01b81526004016109989291906135b8565b602060405180830381865afa1580156109b5573d6000803e3d6000fd5b505050506040513d601f19601f820116820180604052508101906109d99190613512565b9050610b20600260008381526020019081526020016000206040518060a00160405290816000820160009054906101000a90046fffffffffffffffffffffffffffffffff166fffffffffffffffffffffffffffffffff166fffffffffffffffffffffffffffffffff1681526020016000820160109054906101000a900463ffffffff1663ffffffff1663ffffffff1681526020016000820160149054906101000a900460ff161515151581526020016001820160009054906101000a90046fffffffffffffffffffffffffffffffff166fffffffffffffffffffffffffffffffff166fffffffffffffffffffffffffffffffff1681526020016001820160109054906101000a90046fffffffffffffffffffffffffffffffff166fffffffffffffffffffffffffffffffff166fffffffffffffffffffffffffffffffff16815250506119ed565b91505092915050565b600460009054906101000a900473ffffffffffffffffffffffffffffffffffffffff1673ffffffffffffffffffffffffffffffffffffffff163373ffffffffffffffffffffffffffffffffffffffff1614610bb9576040517f08c379a0000000000000000000000000000000000000000000000000000000008152600401610bb0906136ac565b60405180910390fd5b60005b8151811015610c3b576000828281518110610bda57610bd961353f565b5b60200260200101519050610c27838381518110610bfa57610bf961353f565b5b60200260200101516002600084600001518152602001908152602001600020611aae90919063ffffffff16565b508080610c3390613617565b915050610bbc565b5050565b600080600660009054906101000a900473ffffffffffffffffffffffffffffffffffffffff1673ffffffffffffffffffffffffffffffffffffffff166371d0c5ca85856040518363ffffffff1660e01b8152600401610c9f9291906135b8565b602060405180830381865afa158015610cbc573d6000803e3d6000fd5b505050506040513d601f19601f82011682018060405250810190610ce09190613512565b9050610cec81866117e5565b9150509392505050565b600560009054906101000a900473ffffffffffffffffffffffffffffffffffffffff1673ffffffffffffffffffffffffffffffffffffffff163373ffffffffffffffffffffffffffffffffffffffff161480610d9f5750600660009054906101000a900473ffffffffffffffffffffffffffffffffffffffff1673ffffffffffffffffffffffffffffffffffffffff163373ffffffffffffffffffffffffffffffffffffffff16145b610dde576040517f08c379a0000000000000000000000000000000000000000000000000000000008152600401610dd5906136ac565b60405180910390fd5b610e05828260036000878152602001908152602001600020611dd79092919063ffffffff16565b505050565b610e12612775565b600073__$626e42c3f3fdbda1180711fae0265f84c2$__63446f95b485856040518363ffffffff1660e01b8152600401610e4d9291906134cd565b602060405180830381865af4158015610e6a573d6000803e3d6000fd5b505050506040513d601f19601f82011682018060405250810190610e8e9190613512565b9050610ef060036000838152602001908152602001600020604051806060016040529081600082015481526020016001820160009054906101000a900463ffffffff1663ffffffff1663ffffffff168152602001600282015481525050611ed3565b91505092915050565b6060825167ffffffffffffffff811115610f1657610f1561288b565b5b604051908082528060200260200182016040528015610f4f57816020015b610f3c612708565b815260200190600190039081610f345790505b50905060005b835181101561118757600073__$626e42c3f3fdbda1180711fae0265f84c2$__63446f95b4868481518110610f8d57610f8c61353f565b5b6020026020010151868581518110610fa857610fa761353f565b5b60200260200101516040518363ffffffff1660e01b8152600401610fcd9291906134cd565b602060405180830381865af4158015610fea573d6000803e3d6000fd5b505050506040513d601f19601f8201168201806040525081019061100e9190613512565b9050611155600260008381526020019081526020016000206040518060a00160405290816000820160009054906101000a90046fffffffffffffffffffffffffffffffff166fffffffffffffffffffffffffffffffff166fffffffffffffffffffffffffffffffff1681526020016000820160109054906101000a900463ffffffff1663ffffffff1663ffffffff1681526020016000820160149054906101000a900460ff161515151581526020016001820160009054906101000a90046fffffffffffffffffffffffffffffffff166fffffffffffffffffffffffffffffffff166fffffffffffffffffffffffffffffffff1681526020016001820160109054906101000a90046fffffffffffffffffffffffffffffffff166fffffffffffffffffffffffffffffffff166fffffffffffffffffffffffffffffffff16815250506119ed565b8383815181106111685761116761353f565b5b602002602001018190525050808061117f90613617565b915050610f55565b5092915050565b600560009054906101000a900473ffffffffffffffffffffffffffffffffffffffff1673ffffffffffffffffffffffffffffffffffffffff163373ffffffffffffffffffffffffffffffffffffffff1614806112375750600660009054906101000a900473ffffffffffffffffffffffffffffffffffffffff1673ffffffffffffffffffffffffffffffffffffffff163373ffffffffffffffffffffffffffffffffffffffff16145b611276576040517f08c379a000000000000000000000000000000000000000000000000000000000815260040161126d906136ac565b60405180910390fd5b61129d828260026000878152602001908152602001600020611f2b9092919063ffffffff16565b505050565b6112aa612232565b6112b460006122b0565b565b6112be612775565b61131e60036000848152602001908152602001600020604051806060016040529081600082015481526020016001820160009054906101000a900463ffffffff1663ffffffff1663ffffffff168152602001600282015481525050611ed3565b9050919050565b600560009054906101000a900473ffffffffffffffffffffffffffffffffffffffff1681565b60008060009054906101000a900473ffffffffffffffffffffffffffffffffffffffff16905090565b600460009054906101000a900473ffffffffffffffffffffffffffffffffffffffff1673ffffffffffffffffffffffffffffffffffffffff163373ffffffffffffffffffffffffffffffffffffffff1614611404576040517f08c379a00000000000000000000000000000000000000000000000000000000081526004016113fb906136ac565b60405180910390fd5b600073ffffffffffffffffffffffffffffffffffffffff168173ffffffffffffffffffffffffffffffffffffffff161415611474576040517f08c379a000000000000000000000000000000000000000000000000000000000815260040161146b90613718565b60405180910390fd5b80600460006101000a81548173ffffffffffffffffffffffffffffffffffffffff021916908373ffffffffffffffffffffffffffffffffffffffff16021790555050565b6114c0612232565b600073ffffffffffffffffffffffffffffffffffffffff16600560009054906101000a900473ffffffffffffffffffffffffffffffffffffffff1673ffffffffffffffffffffffffffffffffffffffff1614611551576040517f08c379a000000000000000000000000000000000000000000000000000000000815260040161154890613784565b60405180910390fd5b82600560006101000a81548173ffffffffffffffffffffffffffffffffffffffff021916908373ffffffffffffffffffffffffffffffffffffffff16021790555081600660006101000a81548173ffffffffffffffffffffffffffffffffffffffff021916908373ffffffffffffffffffffffffffffffffffffffff16021790555080600460006101000a81548173ffffffffffffffffffffffffffffffffffffffff021916908373ffffffffffffffffffffffffffffffffffffffff160217905550505050565b600460009054906101000a900473ffffffffffffffffffffffffffffffffffffffff1673ffffffffffffffffffffffffffffffffffffffff163373ffffffffffffffffffffffffffffffffffffffff16146116a9576040517f08c379a00000000000000000000000000000000000000000000000000000000081526004016116a0906136ac565b60405180910390fd5b60005b81518110156117115760008282815181106116ca576116c961353f565b5b602002602001015190506116fd81600360008460000151815260200190815260200160002061237490919063ffffffff16565b50808061170990613617565b9150506116ac565b5050565b600660009054906101000a900473ffffffffffffffffffffffffffffffffffffffff1681565b611743612232565b600073ffffffffffffffffffffffffffffffffffffffff168173ffffffffffffffffffffffffffffffffffffffff1614156117b3576040517f08c379a00000000000000000000000000000000000000000000000000000000081526004016117aa90613816565b60405180910390fd5b6117bc816122b0565b50565b600460009054906101000a900473ffffffffffffffffffffffffffffffffffffffff1681565b60008061192d600260008681526020019081526020016000206040518060a00160405290816000820160009054906101000a90046fffffffffffffffffffffffffffffffff166fffffffffffffffffffffffffffffffff166fffffffffffffffffffffffffffffffff1681526020016000820160109054906101000a900463ffffffff1663ffffffff1663ffffffff1681526020016000820160149054906101000a900460ff161515151581526020016001820160009054906101000a90046fffffffffffffffffffffffffffffffff166fffffffffffffffffffffffffffffffff166fffffffffffffffffffffffffffffffff1681526020016001820160109054906101000a90046fffffffffffffffffffffffffffffffff166fffffffffffffffffffffffffffffffff166fffffffffffffffffffffffffffffffff16815250506119ed565b905080600001516fffffffffffffffffffffffffffffffff168311156119e1576119d981608001516fffffffffffffffffffffffffffffffff166119cb611994600185608001516fffffffffffffffffffffffffffffffff166125b290919063ffffffff16565b6119bd85600001516fffffffffffffffffffffffffffffffff16886125b290919063ffffffff16565b6125c890919063ffffffff16565b6125de90919063ffffffff16565b9150506119e7565b60009150505b92915050565b6119f5612708565b611a5f82606001516fffffffffffffffffffffffffffffffff1683600001516fffffffffffffffffffffffffffffffff1684608001516fffffffffffffffffffffffffffffffff16611a5a866020015163ffffffff16426125b290919063ffffffff16565b6125f4565b82600001906fffffffffffffffffffffffffffffffff1690816fffffffffffffffffffffffffffffffff168152505042826020019063ffffffff16908163ffffffff1681525050819050919050565b60008260000160109054906101000a900463ffffffff1663ffffffff1614611c9b576000611aff8360000160109054906101000a900463ffffffff1663ffffffff16426125b290919063ffffffff16565b905060008114611c0957611bab8360010160009054906101000a90046fffffffffffffffffffffffffffffffff166fffffffffffffffffffffffffffffffff168460000160009054906101000a90046fffffffffffffffffffffffffffffffff166fffffffffffffffffffffffffffffffff168560010160109054906101000a90046fffffffffffffffffffffffffffffffff166fffffffffffffffffffffffffffffffff16846125f4565b8360000160006101000a8154816fffffffffffffffffffffffffffffffff02191690836fffffffffffffffffffffffffffffffff160217905550428360000160106101000a81548163ffffffff021916908363ffffffff1602179055505b611c5b82604001516fffffffffffffffffffffffffffffffff168460000160009054906101000a90046fffffffffffffffffffffffffffffffff166fffffffffffffffffffffffffffffffff1661262e565b8360000160006101000a8154816fffffffffffffffffffffffffffffffff02191690836fffffffffffffffffffffffffffffffff16021790555050611cfe565b80604001518260000160006101000a8154816fffffffffffffffffffffffffffffffff02191690836fffffffffffffffffffffffffffffffff160217905550428260000160106101000a81548163ffffffff021916908363ffffffff1602179055505b80604001518260010160006101000a8154816fffffffffffffffffffffffffffffffff02191690836fffffffffffffffffffffffffffffffff16021790555080602001518260000160146101000a81548160ff02191690831515021790555080606001518260010160106101000a8154816fffffffffffffffffffffffffffffffff02191690836fffffffffffffffffffffffffffffffff1602179055507fa640a737de27972dce6fd31f0f94b0632cbbb4383c09cd0ada676c804a0ee76481604051611dcb919061389a565b60405180910390a15050565b600080611e078560010160009054906101000a900463ffffffff1663ffffffff1686600001548760020154612647565b91509150818560010160006101000a81548163ffffffff021916908363ffffffff16021790555080831115611e755780836040517fef664d6a000000000000000000000000000000000000000000000000000000008152600401611e6c9291906138b5565b60405180910390fd5b611e8883826125b290919063ffffffff16565b90508085600001819055507fa39ba3817e5a89273ef2f57a632f9335f8f26a5a870c5c8325f28bdc033624f38484604051611ec49291906138de565b60405180910390a15050505050565b611edb612775565b600080611efb846020015163ffffffff1685600001518660400151612647565b9150915081846020019063ffffffff16908163ffffffff1681525050808460000181815250508392505050919050565b8260000160149054906101000a900460ff16611f465761222d565b60008360000160009054906101000a90046fffffffffffffffffffffffffffffffff166fffffffffffffffffffffffffffffffff16905060008460010160009054906101000a90046fffffffffffffffffffffffffffffffff166fffffffffffffffffffffffffffffffff1690506000611fe38660000160109054906101000a900463ffffffff1663ffffffff16426125b290919063ffffffff16565b90506000811461208b5781831115612027576040517f9725942a00000000000000000000000000000000000000000000000000000000815260040160405180910390fd5b61206582848860010160109054906101000a90046fffffffffffffffffffffffffffffffff166fffffffffffffffffffffffffffffffff16846125f4565b9250428660000160106101000a81548163ffffffff021916908363ffffffff1602179055505b838210156120d25781846040517f597dbe2e0000000000000000000000000000000000000000000000000000000081526004016120c99291906138b5565b60405180910390fd5b838310156121a05760008660010160109054906101000a90046fffffffffffffffffffffffffffffffff166fffffffffffffffffffffffffffffffff169050600061215d8261214f61212e6001866125b290919063ffffffff16565b612141898b6125b290919063ffffffff16565b6125c890919063ffffffff16565b6125de90919063ffffffff16565b90508086886040517fd0c8d23a00000000000000000000000000000000000000000000000000000000815260040161219793929190613907565b60405180910390fd5b6121b384846125b290919063ffffffff16565b9250828660000160006101000a8154816fffffffffffffffffffffffffffffffff02191690836fffffffffffffffffffffffffffffffff1602179055507f374a8d4f03696afa82dcd155bdd4229715be920b1148c5e20ee47d609dd758d585856040516122219291906138de565b60405180910390a15050505b505050565b61223a6126d4565b73ffffffffffffffffffffffffffffffffffffffff1661225861134b565b73ffffffffffffffffffffffffffffffffffffffff16146122ae576040517f08c379a00000000000000000000000000000000000000000000000000000000081526004016122a59061398a565b60405180910390fd5b565b60008060009054906101000a900473ffffffffffffffffffffffffffffffffffffffff169050816000806101000a81548173ffffffffffffffffffffffffffffffffffffffff021916908373ffffffffffffffffffffffffffffffffffffffff1602179055508173ffffffffffffffffffffffffffffffffffffffff168173ffffffffffffffffffffffffffffffffffffffff167f8be0079c531659141344cd1fd0a4f28419497f9722a3daafe3b4186f6b6457e060405160405180910390a35050565b600061239c6201518063ffffffff16836020015163ffffffff166126dc90919063ffffffff16565b146123dc576040517f08c379a00000000000000000000000000000000000000000000000000000000081526004016123d3906139f6565b60405180910390fd5b806020015163ffffffff16421015801561241b57506201518063ffffffff16612418826020015163ffffffff16426125b290919063ffffffff16565b11155b61245a576040517f08c379a000000000000000000000000000000000000000000000000000000000815260040161245190613a88565b60405180910390fd5b60008260010160009054906101000a900463ffffffff1663ffffffff16141580156124cc575060016124ca6201518063ffffffff166124bc8560010160009054906101000a900463ffffffff1663ffffffff16426125b290919063ffffffff16565b6125de90919063ffffffff16565b105b156125355760008260020154905060008360000154905060006124f882846125b290919063ffffffff16565b905080846040015111156125225761251d8185604001516125b290919063ffffffff16565b612525565b60005b8560000181905550505050612543565b806040015182600001819055505b8060400151826002018190555080602001518260010160006101000a81548163ffffffff021916908363ffffffff1602179055507f38adbdcf6de9c9a4a8899434abfb9e88c3e3e127329f8d61ecce6bf51dd40e51816040516125a69190613aea565b60405180910390a15050565b600081836125c09190613b05565b905092915050565b600081836125d69190613b39565b905092915050565b600081836125ec9190613bbe565b905092915050565b60006126248561261f61261086866126f290919063ffffffff16565b876125c890919063ffffffff16565b61262e565b9050949350505050565b600081831061263d578161263f565b825b905092915050565b600080600061267a6201518063ffffffff1661266c88426125b290919063ffffffff16565b6125de90919063ffffffff16565b90506000869050600086905060008311156126c3576126bd6126ae846201518063ffffffff166126f290919063ffffffff16565b896125c890919063ffffffff16565b91508590505b818194509450505050935093915050565b600033905090565b600081836126ea9190613bef565b905092915050565b600081836127009190613c20565b905092915050565b6040518060a0016040528060006fffffffffffffffffffffffffffffffff168152602001600063ffffffff16815260200160001515815260200160006fffffffffffffffffffffffffffffffff16815260200160006fffffffffffffffffffffffffffffffff1681525090565b604051806060016040528060008152602001600063ffffffff168152602001600081525090565b6000604051905090565b600080fd5b600080fd5b6000819050919050565b6127c3816127b0565b81146127ce57600080fd5b50565b6000813590506127e0816127ba565b92915050565b600074ffffffffffffffffffffffffffffffffffffffffff82169050919050565b612810816127e6565b811461281b57600080fd5b50565b600073ffffffffffffffffffffffffffffffffffffffff82169050919050565b60006128498261281e565b9050919050565b60008135905061285f81612807565b6128688161283e565b905092915050565b600080fd5b600080fd5b6000601f19601f8301169050919050565b7f4e487b7100000000000000000000000000000000000000000000000000000000600052604160045260246000fd5b6128c38261287a565b810181811067ffffffffffffffff821117156128e2576128e161288b565b5b80604052505050565b60006128f561279c565b905061290182826128ba565b919050565b600067ffffffffffffffff8211156129215761292061288b565b5b61292a8261287a565b9050602081019050919050565b82818337600083830152505050565b600061295961295484612906565b6128eb565b90508281526020810184848401111561297557612974612875565b5b612980848285612937565b509392505050565b600082601f83011261299d5761299c612870565b5b81356129ad848260208601612946565b91505092915050565b6000806000606084860312156129cf576129ce6127a6565b5b60006129dd868287016127d1565b93505060206129ee86828701612850565b925050604084013567ffffffffffffffff811115612a0f57612a0e6127ab565b5b612a1b86828701612988565b9150509250925092565b612a2e816127b0565b82525050565b6000602082019050612a496000830184612a25565b92915050565b600067ffffffffffffffff821115612a6a57612a6961288b565b5b602082029050602081019050919050565b600080fd5b6000612a93612a8e84612a4f565b6128eb565b90508083825260208201905060208402830185811115612ab657612ab5612a7b565b5b835b81811015612adf5780612acb8882612850565b845260208401935050602081019050612ab8565b5050509392505050565b600082601f830112612afe57612afd612870565b5b8135612b0e848260208601612a80565b91505092915050565b600067ffffffffffffffff821115612b3257612b3161288b565b5b602082029050602081019050919050565b6000612b56612b5184612b17565b6128eb565b90508083825260208201905060208402830185811115612b7957612b78612a7b565b5b835b81811015612bc057803567ffffffffffffffff811115612b9e57612b9d612870565b5b808601612bab8982612988565b85526020850194505050602081019050612b7b565b5050509392505050565b600082601f830112612bdf57612bde612870565b5b8135612bef848260208601612b43565b91505092915050565b60008060408385031215612c0f57612c0e6127a6565b5b600083013567ffffffffffffffff811115612c2d57612c2c6127ab565b5b612c3985828601612ae9565b925050602083013567ffffffffffffffff811115612c5a57612c596127ab565b5b612c6685828601612bca565b9150509250929050565b600081519050919050565b600082825260208201905092915050565b6000819050602082019050919050565b60006fffffffffffffffffffffffffffffffff82169050919050565b612cc181612c9c565b82525050565b600063ffffffff82169050919050565b612ce081612cc7565b82525050565b60008115159050919050565b612cfb81612ce6565b82525050565b60a082016000820151612d176000850182612cb8565b506020820151612d2a6020850182612cd7565b506040820151612d3d6040850182612cf2565b506060820151612d506060850182612cb8565b506080820151612d636080850182612cb8565b50505050565b6000612d758383612d01565b60a08301905092915050565b6000602082019050919050565b6000612d9982612c70565b612da38185612c7b565b9350612dae83612c8c565b8060005b83811015612ddf578151612dc68882612d69565b9750612dd183612d81565b925050600181019050612db2565b5085935050505092915050565b60006020820190508181036000830152612e068184612d8e565b905092915050565b60008060408385031215612e2557612e246127a6565b5b6000612e3385828601612850565b925050602083013567ffffffffffffffff811115612e5457612e536127ab565b5b612e6085828601612988565b9150509250929050565b60a082016000820151612e806000850182612cb8565b506020820151612e936020850182612cd7565b506040820151612ea66040850182612cf2565b506060820151612eb96060850182612cb8565b506080820151612ecc6080850182612cb8565b50505050565b600060a082019050612ee76000830184612e6a565b92915050565b600067ffffffffffffffff821115612f0857612f0761288b565b5b602082029050602081019050919050565b600080fd5b6000819050919050565b612f3181612f1e565b8114612f3c57600080fd5b50565b600081359050612f4e81612f28565b92915050565b612f5d81612ce6565b8114612f6857600080fd5b50565b600081359050612f7a81612f54565b92915050565b612f8981612c9c565b8114612f9457600080fd5b50565b600081359050612fa681612f80565b92915050565b600060808284031215612fc257612fc1612f19565b5b612fcc60806128eb565b90506000612fdc84828501612f3f565b6000830152506020612ff084828501612f6b565b602083015250604061300484828501612f97565b604083015250606061301884828501612f97565b60608301525092915050565b600061303761303284612eed565b6128eb565b9050808382526020820190506080840283018581111561305a57613059612a7b565b5b835b81811015613083578061306f8882612fac565b84526020840193505060808101905061305c565b5050509392505050565b600082601f8301126130a2576130a1612870565b5b81356130b2848260208601613024565b91505092915050565b6000602082840312156130d1576130d06127a6565b5b600082013567ffffffffffffffff8111156130ef576130ee6127ab565b5b6130fb8482850161308d565b91505092915050565b60008060006060848603121561311d5761311c6127a6565b5b600061312b86828701612f3f565b935050602061313c86828701612850565b925050604061314d868287016127d1565b9150509250925092565b613160816127b0565b82525050565b60608201600082015161317c6000850182613157565b50602082015161318f6020850182612cd7565b5060408201516131a26040850182613157565b50505050565b60006060820190506131bd6000830184613166565b92915050565b6000602082840312156131d9576131d86127a6565b5b60006131e784828501612f3f565b91505092915050565b6131f98161283e565b82525050565b600060208201905061321460008301846131f0565b92915050565b6000602082840312156132305761322f6127a6565b5b600061323e84828501612850565b91505092915050565b6000806000606084860312156132605761325f6127a6565b5b600061326e86828701612850565b935050602061327f86828701612850565b925050604061329086828701612850565b9150509250925092565b600067ffffffffffffffff8211156132b5576132b461288b565b5b602082029050602081019050919050565b6132cf81612cc7565b81146132da57600080fd5b50565b6000813590506132ec816132c6565b92915050565b60006060828403121561330857613307612f19565b5b61331260606128eb565b9050600061332284828501612f3f565b6000830152506020613336848285016132dd565b602083015250604061334a848285016127d1565b60408301525092915050565b60006133696133648461329a565b6128eb565b9050808382526020820190506060840283018581111561338c5761338b612a7b565b5b835b818110156133b557806133a188826132f2565b84526020840193505060608101905061338e565b5050509392505050565b600082601f8301126133d4576133d3612870565b5b81356133e4848260208601613356565b91505092915050565b600060208284031215613403576134026127a6565b5b600082013567ffffffffffffffff811115613421576134206127ab565b5b61342d848285016133bf565b91505092915050565b61343f8161283e565b82525050565b600081519050919050565b600082825260208201905092915050565b60005b8381101561347f578082015181840152602081019050613464565b8381111561348e576000848401525b50505050565b600061349f82613445565b6134a98185613450565b93506134b9818560208601613461565b6134c28161287a565b840191505092915050565b60006040820190506134e26000830185613436565b81810360208301526134f48184613494565b90509392505050565b60008151905061350c81612f28565b92915050565b600060208284031215613528576135276127a6565b5b6000613536848285016134fd565b91505092915050565b7f4e487b7100000000000000000000000000000000000000000000000000000000600052603260045260246000fd5b600082825260208201905092915050565b600061358a82613445565b613594818561356e565b93506135a4818560208601613461565b6135ad8161287a565b840191505092915050565b60006040820190506135cd60008301856131f0565b81810360208301526135df818461357f565b90509392505050565b7f4e487b7100000000000000000000000000000000000000000000000000000000600052601160045260246000fd5b6000613622826127b0565b91507fffffffffffffffffffffffffffffffffffffffffffffffffffffffffffffffff821415613655576136546135e8565b5b600182019050919050565b7f6e6f207065726d697373696f6e00000000000000000000000000000000000000600082015250565b6000613696600d8361356e565b91506136a182613660565b602082019050919050565b600060208201905081810360008301526136c581613689565b9050919050565b7f696e76616c696420696e70757400000000000000000000000000000000000000600082015250565b6000613702600d8361356e565b915061370d826136cc565b602082019050919050565b60006020820190508181036000830152613731816136f5565b9050919050565b7f616c726561647920696e697469616c697a656400000000000000000000000000600082015250565b600061376e60138361356e565b915061377982613738565b602082019050919050565b6000602082019050818103600083015261379d81613761565b9050919050565b7f4f776e61626c653a206e6577206f776e657220697320746865207a65726f206160008201527f6464726573730000000000000000000000000000000000000000000000000000602082015250565b600061380060268361356e565b915061380b826137a4565b604082019050919050565b6000602082019050818103600083015261382f816137f3565b9050919050565b61383f81612f1e565b82525050565b60808201600082015161385b6000850182613836565b50602082015161386e6020850182612cf2565b5060408201516138816040850182612cb8565b5060608201516138946060850182612cb8565b50505050565b60006080820190506138af6000830184613845565b92915050565b60006040820190506138ca6000830185612a25565b6138d76020830184612a25565b9392505050565b60006040820190506138f360008301856131f0565b6139006020830184612a25565b9392505050565b600060608201905061391c6000830186612a25565b6139296020830185612a25565b61393660408301846131f0565b949350505050565b7f4f776e61626c653a2063616c6c6572206973206e6f7420746865206f776e6572600082015250565b600061397460208361356e565b915061397f8261393e565b602082019050919050565b600060208201905081810360008301526139a381613967565b9050919050565b7f496e76616c696420726566726573682074696d652e0000000000000000000000600082015250565b60006139e060158361356e565b91506139eb826139aa565b602082019050919050565b60006020820190508181036000830152613a0f816139d3565b9050919050565b7f4f6e6c79206461696c79206c696d6974732061726520737570706f727465642060008201527f77697468696e2074686520636f6e74726163742e000000000000000000000000602082015250565b6000613a7260348361356e565b9150613a7d82613a16565b604082019050919050565b60006020820190508181036000830152613aa181613a65565b9050919050565b606082016000820151613abe6000850182613836565b506020820151613ad16020850182612cd7565b506040820151613ae46040850182613157565b50505050565b6000606082019050613aff6000830184613aa8565b92915050565b6000613b10826127b0565b9150613b1b836127b0565b925082821015613b2e57613b2d6135e8565b5b828203905092915050565b6000613b44826127b0565b9150613b4f836127b0565b9250827fffffffffffffffffffffffffffffffffffffffffffffffffffffffffffffffff03821115613b8457613b836135e8565b5b828201905092915050565b7f4e487b7100000000000000000000000000000000000000000000000000000000600052601260045260246000fd5b6000613bc9826127b0565b9150613bd4836127b0565b925082613be457613be3613b8f565b5b828204905092915050565b6000613bfa826127b0565b9150613c05836127b0565b925082613c1557613c14613b8f565b5b828206905092915050565b6000613c2b826127b0565b9150613c36836127b0565b9250817fffffffffffffffffffffffffffffffffffffffffffffffffffffffffffffffff0483118215151615613c6f57613c6e6135e8565b5b82820290509291505056fea26474726f6e5822122003501a6b505301b82da97c99b1d291eadddc62ec1400c21db34a50da0a7a4bdf64736f6c634300080b0033",
  "source": "pragma solidity ^0.8.11;\n\nimport {RateLimiter} from './libraries/RateLimiter.sol';\nimport {DailyLimiter} from './libraries/DailyLimiter.sol';\nimport './libraries/BridgeInLibrary.sol';\nimport './Proxy.sol';\nimport '@openzeppelin/contracts/utils/math/SafeMath.sol';\nimport './interfaces/BridgeOutInterface.sol';\n\ncontract LimiterImplementation is ProxyStorage {\n  using DailyLimiter for DailyLimiter.DailyLimitTokenInfo;\n  using RateLimiter for RateLimiter.TokenBucket;\n  using SafeMath for uint256;\n\n  // key: tokenKey / swapId\n  mapping(bytes32 => RateLimiter.TokenBucket) private tokenBucket;\n  mapping(bytes32 => DailyLimiter.DailyLimitTokenInfo) private dailyLimit;\n  address public admin;\n  address public bridgeIn;\n  address public bridgeOut;\n\n  modifier onlyAdmin() {\n    require(msg.sender == admin, 'no permission');\n    _;\n  }\n  modifier onlyBridge() {\n    require(msg.sender == bridgeIn || msg.sender == bridgeOut, 'no permission');\n    _;\n  }\n\n  function changeAdmin(address _admin) external onlyAdmin{\n    require(_admin != address(0), \"invalid input\");\n    admin = _admin;\n  }\n\n  function initialize(address _bridgeIn, address _bridgeOut, address _admin) external onlyOwner {\n    require(bridgeIn == address(0), 'already initialized');\n    bridgeIn = _bridgeIn;\n    bridgeOut = _bridgeOut;\n    admin = _admin;\n  }\n\n  function consumeDailyLimit(\n    bytes32 dailyLimitId,\n    address tokenAddress,\n    uint256 amount\n  ) external onlyBridge {\n    dailyLimit[dailyLimitId]._consume(tokenAddress, amount);\n  }\n\n  function consumeTokenBucket(\n    bytes32 bucketId,\n    address tokenAddress,\n    uint256 amount\n  ) external onlyBridge {\n    tokenBucket[bucketId]._consume(tokenAddress, amount);\n  }\n\n  function setDailyLimit(\n    DailyLimiter.DailyLimitConfig[] memory dailyLimitConfigs\n  ) external onlyAdmin {\n    for (uint i = 0; i < dailyLimitConfigs.length; i++) {\n      DailyLimiter.DailyLimitConfig memory dailyLimitConfig = dailyLimitConfigs[i];\n      dailyLimit[dailyLimitConfig.dailyLimitId]._setDailyLimit(dailyLimitConfig);\n    }\n  }\n\n  function getReceiptDailyLimit(\n    address token,\n    string memory targetChainId\n  ) public view returns (DailyLimiter.DailyLimitTokenInfo memory) {\n    bytes32 dailyLimitId = BridgeInLibrary._generateTokenKey(token, targetChainId);\n    return dailyLimit[dailyLimitId]._currentDailyLimit();\n  }\n\n  function getSwapDailyLimit(\n    bytes32 swapId\n  ) public view returns (DailyLimiter.DailyLimitTokenInfo memory) {\n        return dailyLimit[swapId]._currentDailyLimit();\n  }\n\n  function setTokenBucketConfig(RateLimiter.TokenBucketConfig[] memory configs) external onlyAdmin {\n    for (uint i = 0; i < configs.length; i++) {\n      RateLimiter.TokenBucketConfig memory config = configs[i];\n      tokenBucket[config.bucketId]._configTokenBucket(configs[i]);\n    }\n  }\n\n  function getCurrentReceiptTokenBucketState(\n    address token,\n    string memory targetChainId\n  ) public view returns (RateLimiter.TokenBucket memory) {\n    bytes32 bucketId = BridgeInLibrary._generateTokenKey(token, targetChainId);\n    return tokenBucket[bucketId]._currentTokenBucketState();\n  }\n\n  function getCurrentReceiptTokenBucketStates(\n    address[] memory tokens,\n    string[] memory targetChainIds\n  ) public view returns (RateLimiter.TokenBucket[] memory _tokenBuckets) {\n    _tokenBuckets = new RateLimiter.TokenBucket[](tokens.length);\n    for (uint i = 0; i < tokens.length; i++) {\n      bytes32 bucketId = BridgeInLibrary._generateTokenKey(tokens[i], targetChainIds[i]);\n      _tokenBuckets[i] = tokenBucket[bucketId]._currentTokenBucketState();\n    }\n    return _tokenBuckets;\n  }\n\n  function getCurrentSwapTokenBucketState(\n    address token,\n    string memory fromChainId\n  ) public view returns (RateLimiter.TokenBucket memory) {\n    bytes32 swapId = IBridgeOut(bridgeOut).getSwapId(token, fromChainId);\n    return tokenBucket[swapId]._currentTokenBucketState();\n  }\n\n    function getCurrentSwapTokenBucketStates(\n    address[] memory tokens,\n    string[] memory fromChainIds\n  ) public view returns (RateLimiter.TokenBucket[] memory _tokenBuckets) {\n    _tokenBuckets = new RateLimiter.TokenBucket[](tokens.length);\n    for (uint i = 0; i < tokens.length; i++) {\n      bytes32 swapId = IBridgeOut(bridgeOut).getSwapId(tokens[i], fromChainIds[i]);\n      _tokenBuckets[i] = tokenBucket[swapId]._currentTokenBucketState();\n    }\n    return _tokenBuckets;\n  }\n\n  function getReceiptBucketMinWaitSeconds(\n    uint256 amount,\n    address token,\n    string memory targetChainId\n  ) public view returns (uint256) {\n    bytes32 bucketId = BridgeInLibrary._generateTokenKey(token, targetChainId);\n    return getMinWaitSeconds(bucketId,amount);\n  }\n\n  function getSwapBucketMinWaitSeconds(\n    uint256 amount,\n    address token,\n    string memory fromChainId\n  ) public view returns (uint256) {\n    bytes32 swapId = IBridgeOut(bridgeOut).getSwapId(token, fromChainId);\n    return getMinWaitSeconds(swapId,amount);\n  }\n\n  function getMinWaitSeconds(bytes32 bucketId,uint256 amount) private view returns (uint256) {\n     RateLimiter.TokenBucket memory bucket = tokenBucket[bucketId]._currentTokenBucketState();\n    if (amount > bucket.currentTokenAmount) {\n      return\n        ((amount.sub(bucket.currentTokenAmount)).add(((uint256)(bucket.rate).sub(1)))).div(\n          bucket.rate\n        );\n    } else {\n      return 0;\n    }\n  }\n}\n",
  "sourcePath": "/Users/jasonlu/Project/ebridge-contracts.ethereum/contracts/LimiterImplementation.sol",
  "compiler": {
    "name": "solc",
    "version": "0.8.11+commit.b01f3284.mod.Emscripten.clang"
  },
  "schemaVersion": "2.0.1",
  "updatedAt": "2024-01-25T02:24:44.934Z"
}